{
  "contractName": "VeelancingToken",
  "abi": [
    {
      "inputs": [
        {
          "internalType": "string",
          "name": "name",
          "type": "string"
        },
        {
          "internalType": "string",
          "name": "symbol",
          "type": "string"
        },
        {
          "internalType": "address",
          "name": "Liquidity",
          "type": "address"
        },
        {
          "internalType": "uint256",
          "name": "volume_liquidity",
          "type": "uint256"
        },
        {
          "internalType": "uint256",
          "name": "percIco_",
          "type": "uint256"
        },
        {
          "internalType": "uint256",
          "name": "percPreIco_",
          "type": "uint256"
        },
        {
          "internalType": "uint256",
          "name": "icoCap_",
          "type": "uint256"
        },
        {
          "internalType": "uint256",
          "name": "cap_",
          "type": "uint256"
        },
        {
          "internalType": "address",
          "name": "owner",
          "type": "address"
        }
      ],
      "stateMutability": "nonpayable",
      "type": "constructor"
    },
    {
      "anonymous": false,
      "inputs": [
        {
          "indexed": true,
          "internalType": "address",
          "name": "owner",
          "type": "address"
        },
        {
          "indexed": true,
          "internalType": "address",
          "name": "spender",
          "type": "address"
        },
        {
          "indexed": false,
          "internalType": "uint256",
          "name": "value",
          "type": "uint256"
        }
      ],
      "name": "Approval",
      "type": "event"
    },
    {
      "anonymous": false,
      "inputs": [
        {
          "indexed": true,
          "internalType": "address",
          "name": "to",
          "type": "address"
        },
        {
          "indexed": false,
          "internalType": "uint256",
          "name": "value",
          "type": "uint256"
        }
      ],
      "name": "Deposit",
      "type": "event"
    },
    {
      "anonymous": false,
      "inputs": [
        {
          "indexed": true,
          "internalType": "address",
          "name": "to",
          "type": "address"
        },
        {
          "indexed": false,
          "internalType": "uint256",
          "name": "value",
          "type": "uint256"
        }
      ],
      "name": "DepositToVested",
      "type": "event"
    },
    {
      "anonymous": false,
      "inputs": [
        {
          "indexed": true,
          "internalType": "bytes32",
          "name": "role",
          "type": "bytes32"
        },
        {
          "indexed": true,
          "internalType": "bytes32",
          "name": "previousAdminRole",
          "type": "bytes32"
        },
        {
          "indexed": true,
          "internalType": "bytes32",
          "name": "newAdminRole",
          "type": "bytes32"
        }
      ],
      "name": "RoleAdminChanged",
      "type": "event"
    },
    {
      "anonymous": false,
      "inputs": [
        {
          "indexed": true,
          "internalType": "bytes32",
          "name": "role",
          "type": "bytes32"
        },
        {
          "indexed": true,
          "internalType": "address",
          "name": "account",
          "type": "address"
        },
        {
          "indexed": true,
          "internalType": "address",
          "name": "sender",
          "type": "address"
        }
      ],
      "name": "RoleGranted",
      "type": "event"
    },
    {
      "anonymous": false,
      "inputs": [
        {
          "indexed": true,
          "internalType": "bytes32",
          "name": "role",
          "type": "bytes32"
        },
        {
          "indexed": true,
          "internalType": "address",
          "name": "account",
          "type": "address"
        },
        {
          "indexed": true,
          "internalType": "address",
          "name": "sender",
          "type": "address"
        }
      ],
      "name": "RoleRevoked",
      "type": "event"
    },
    {
      "anonymous": false,
      "inputs": [
        {
          "indexed": true,
          "internalType": "address",
          "name": "from",
          "type": "address"
        },
        {
          "indexed": true,
          "internalType": "address",
          "name": "to",
          "type": "address"
        },
        {
          "indexed": false,
          "internalType": "uint256",
          "name": "value",
          "type": "uint256"
        }
      ],
      "name": "Transfer",
      "type": "event"
    },
    {
      "anonymous": false,
      "inputs": [
        {
          "indexed": true,
          "internalType": "address",
          "name": "to",
          "type": "address"
        },
        {
          "indexed": false,
          "internalType": "enum VeelancingToken.WalletStatus",
          "name": "status",
          "type": "uint8"
        }
      ],
      "name": "WalletStatusChanged",
      "type": "event"
    },
    {
      "anonymous": false,
      "inputs": [
        {
          "indexed": true,
          "internalType": "address",
          "name": "to",
          "type": "address"
        },
        {
          "indexed": false,
          "internalType": "uint256",
          "name": "value",
          "type": "uint256"
        }
      ],
      "name": "WithdrawFromVested",
      "type": "event"
    },
    {
      "inputs": [],
      "name": "ADMIN_ROLE",
      "outputs": [
        {
          "internalType": "bytes32",
          "name": "",
          "type": "bytes32"
        }
      ],
      "stateMutability": "view",
      "type": "function"
    },
    {
      "inputs": [],
      "name": "BONUS_ICO_ROLE",
      "outputs": [
        {
          "internalType": "bytes32",
          "name": "",
          "type": "bytes32"
        }
      ],
      "stateMutability": "view",
      "type": "function"
    },
    {
      "inputs": [],
      "name": "DEFAULT_ADMIN_ROLE",
      "outputs": [
        {
          "internalType": "bytes32",
          "name": "",
          "type": "bytes32"
        }
      ],
      "stateMutability": "view",
      "type": "function"
    },
    {
      "inputs": [],
      "name": "INVESTOR_ROLE",
      "outputs": [
        {
          "internalType": "bytes32",
          "name": "",
          "type": "bytes32"
        }
      ],
      "stateMutability": "view",
      "type": "function"
    },
    {
      "inputs": [],
      "name": "TEAM_ROLE",
      "outputs": [
        {
          "internalType": "bytes32",
          "name": "",
          "type": "bytes32"
        }
      ],
      "stateMutability": "view",
      "type": "function"
    },
    {
      "inputs": [
        {
          "internalType": "address",
          "name": "owner",
          "type": "address"
        },
        {
          "internalType": "address",
          "name": "spender",
          "type": "address"
        }
      ],
      "name": "allowance",
      "outputs": [
        {
          "internalType": "uint256",
          "name": "",
          "type": "uint256"
        }
      ],
      "stateMutability": "view",
      "type": "function"
    },
    {
      "inputs": [
        {
          "internalType": "address",
          "name": "spender",
          "type": "address"
        },
        {
          "internalType": "uint256",
          "name": "amount",
          "type": "uint256"
        }
      ],
      "name": "approve",
      "outputs": [
        {
          "internalType": "bool",
          "name": "",
          "type": "bool"
        }
      ],
      "stateMutability": "nonpayable",
      "type": "function"
    },
    {
      "inputs": [
        {
          "internalType": "address",
          "name": "account",
          "type": "address"
        }
      ],
      "name": "balanceOf",
      "outputs": [
        {
          "internalType": "uint256",
          "name": "",
          "type": "uint256"
        }
      ],
      "stateMutability": "view",
      "type": "function"
    },
    {
      "inputs": [],
      "name": "basePrice",
      "outputs": [
        {
          "internalType": "uint256",
          "name": "",
          "type": "uint256"
        }
      ],
      "stateMutability": "view",
      "type": "function"
    },
    {
      "inputs": [],
      "name": "decimals",
      "outputs": [
        {
          "internalType": "uint8",
          "name": "",
          "type": "uint8"
        }
      ],
      "stateMutability": "view",
      "type": "function"
    },
    {
      "inputs": [
        {
          "internalType": "address",
          "name": "spender",
          "type": "address"
        },
        {
          "internalType": "uint256",
          "name": "subtractedValue",
          "type": "uint256"
        }
      ],
      "name": "decreaseAllowance",
      "outputs": [
        {
          "internalType": "bool",
          "name": "",
          "type": "bool"
        }
      ],
      "stateMutability": "nonpayable",
      "type": "function"
    },
    {
      "inputs": [
        {
          "internalType": "bytes32",
          "name": "role",
          "type": "bytes32"
        }
      ],
      "name": "getRoleAdmin",
      "outputs": [
        {
          "internalType": "bytes32",
          "name": "",
          "type": "bytes32"
        }
      ],
      "stateMutability": "view",
      "type": "function"
    },
    {
      "inputs": [
        {
          "internalType": "bytes32",
          "name": "role",
          "type": "bytes32"
        },
        {
          "internalType": "address",
          "name": "account",
          "type": "address"
        }
      ],
      "name": "grantRole",
      "outputs": [],
      "stateMutability": "nonpayable",
      "type": "function"
    },
    {
      "inputs": [
        {
          "internalType": "bytes32",
          "name": "role",
          "type": "bytes32"
        },
        {
          "internalType": "address",
          "name": "account",
          "type": "address"
        }
      ],
      "name": "hasRole",
      "outputs": [
        {
          "internalType": "bool",
          "name": "",
          "type": "bool"
        }
      ],
      "stateMutability": "view",
      "type": "function"
    },
    {
      "inputs": [
        {
          "internalType": "address",
          "name": "spender",
          "type": "address"
        },
        {
          "internalType": "uint256",
          "name": "addedValue",
          "type": "uint256"
        }
      ],
      "name": "increaseAllowance",
      "outputs": [
        {
          "internalType": "bool",
          "name": "",
          "type": "bool"
        }
      ],
      "stateMutability": "nonpayable",
      "type": "function"
    },
    {
      "inputs": [],
      "name": "name",
      "outputs": [
        {
          "internalType": "string",
          "name": "",
          "type": "string"
        }
      ],
      "stateMutability": "view",
      "type": "function"
    },
    {
      "inputs": [
        {
          "internalType": "bytes32",
          "name": "role",
          "type": "bytes32"
        },
        {
          "internalType": "address",
          "name": "account",
          "type": "address"
        }
      ],
      "name": "renounceRole",
      "outputs": [],
      "stateMutability": "nonpayable",
      "type": "function"
    },
    {
      "inputs": [
        {
          "internalType": "bytes32",
          "name": "role",
          "type": "bytes32"
        },
        {
          "internalType": "address",
          "name": "account",
          "type": "address"
        }
      ],
      "name": "revokeRole",
      "outputs": [],
      "stateMutability": "nonpayable",
      "type": "function"
    },
    {
      "inputs": [
        {
          "internalType": "bytes4",
          "name": "interfaceId",
          "type": "bytes4"
        }
      ],
      "name": "supportsInterface",
      "outputs": [
        {
          "internalType": "bool",
          "name": "",
          "type": "bool"
        }
      ],
      "stateMutability": "view",
      "type": "function"
    },
    {
      "inputs": [],
      "name": "symbol",
      "outputs": [
        {
          "internalType": "string",
          "name": "",
          "type": "string"
        }
      ],
      "stateMutability": "view",
      "type": "function"
    },
    {
      "inputs": [],
      "name": "totalSupply",
      "outputs": [
        {
          "internalType": "uint256",
          "name": "",
          "type": "uint256"
        }
      ],
      "stateMutability": "view",
      "type": "function"
    },
    {
      "inputs": [
        {
          "internalType": "address",
          "name": "sender",
          "type": "address"
        },
        {
          "internalType": "address",
          "name": "recipient",
          "type": "address"
        },
        {
          "internalType": "uint256",
          "name": "amount",
          "type": "uint256"
        }
      ],
      "name": "transferFrom",
      "outputs": [
        {
          "internalType": "bool",
          "name": "",
          "type": "bool"
        }
      ],
      "stateMutability": "nonpayable",
      "type": "function"
    },
    {
      "stateMutability": "payable",
      "type": "receive"
    },
    {
      "inputs": [],
      "name": "getCap",
      "outputs": [
        {
          "internalType": "uint256",
          "name": "",
          "type": "uint256"
        }
      ],
      "stateMutability": "view",
      "type": "function"
    },
    {
      "inputs": [],
      "name": "getIcoCap",
      "outputs": [
        {
          "internalType": "uint256",
          "name": "",
          "type": "uint256"
        }
      ],
      "stateMutability": "view",
      "type": "function"
    },
    {
      "inputs": [],
      "name": "getIcoSold",
      "outputs": [
        {
          "internalType": "uint256",
          "name": "",
          "type": "uint256"
        }
      ],
      "stateMutability": "view",
      "type": "function"
    },
    {
      "inputs": [],
      "name": "getCurrentStatus",
      "outputs": [
        {
          "internalType": "string",
          "name": "",
          "type": "string"
        }
      ],
      "stateMutability": "view",
      "type": "function"
    },
    {
      "inputs": [
        {
          "internalType": "address",
          "name": "to",
          "type": "address"
        }
      ],
      "name": "getVestedAllowedPerc",
      "outputs": [
        {
          "internalType": "uint256",
          "name": "",
          "type": "uint256"
        }
      ],
      "stateMutability": "nonpayable",
      "type": "function"
    },
    {
      "inputs": [
        {
          "internalType": "address",
          "name": "to",
          "type": "address"
        }
      ],
      "name": "getVestedTotalBalance",
      "outputs": [
        {
          "internalType": "uint256",
          "name": "",
          "type": "uint256"
        }
      ],
      "stateMutability": "view",
      "type": "function"
    },
    {
      "inputs": [
        {
          "internalType": "address",
          "name": "to",
          "type": "address"
        }
      ],
      "name": "getVestedAllowedBalance",
      "outputs": [
        {
          "internalType": "uint256",
          "name": "",
          "type": "uint256"
        }
      ],
      "stateMutability": "nonpayable",
      "type": "function"
    },
    {
      "inputs": [
        {
          "internalType": "uint256",
          "name": "amount",
          "type": "uint256"
        }
      ],
      "name": "withdrawFromVested",
      "outputs": [],
      "stateMutability": "nonpayable",
      "type": "function"
    },
    {
      "inputs": [
        {
          "internalType": "address",
          "name": "recipient",
          "type": "address"
        },
        {
          "internalType": "uint256",
          "name": "amount",
          "type": "uint256"
        }
      ],
      "name": "depositToVested",
      "outputs": [],
      "stateMutability": "nonpayable",
      "type": "function"
    },
    {
      "inputs": [
        {
          "internalType": "address",
          "name": "recipient",
          "type": "address"
        }
      ],
      "name": "getWalletStatus",
      "outputs": [
        {
          "internalType": "enum VeelancingToken.WalletStatus",
          "name": "",
          "type": "uint8"
        }
      ],
      "stateMutability": "view",
      "type": "function"
    },
    {
      "inputs": [
        {
          "internalType": "address",
          "name": "recipient",
          "type": "address"
        },
        {
          "internalType": "enum VeelancingToken.WalletStatus",
          "name": "status",
          "type": "uint8"
        }
      ],
      "name": "setWalletStatus",
      "outputs": [],
      "stateMutability": "nonpayable",
      "type": "function"
    },
    {
      "inputs": [
        {
          "internalType": "address",
          "name": "recipient",
          "type": "address"
        },
        {
          "internalType": "uint256",
          "name": "amount",
          "type": "uint256"
        }
      ],
      "name": "deposit",
      "outputs": [],
      "stateMutability": "nonpayable",
      "type": "function"
    },
    {
      "inputs": [
        {
          "internalType": "address",
          "name": "recipient",
          "type": "address"
        },
        {
          "internalType": "uint256",
          "name": "amount",
          "type": "uint256"
        }
      ],
      "name": "transfer",
      "outputs": [
        {
          "internalType": "bool",
          "name": "",
          "type": "bool"
        }
      ],
      "stateMutability": "nonpayable",
      "type": "function"
    },
    {
      "inputs": [],
      "name": "startPreIco",
      "outputs": [],
      "stateMutability": "nonpayable",
      "type": "function"
    },
    {
      "inputs": [],
      "name": "startIco",
      "outputs": [],
      "stateMutability": "nonpayable",
      "type": "function"
    },
    {
      "inputs": [],
      "name": "endIco",
      "outputs": [],
      "stateMutability": "nonpayable",
      "type": "function"
    },
    {
      "inputs": [
        {
          "internalType": "address",
          "name": "recipient",
          "type": "address"
        },
        {
          "internalType": "uint256",
          "name": "amount",
          "type": "uint256"
        }
      ],
      "name": "createBonus",
      "outputs": [],
      "stateMutability": "nonpayable",
      "type": "function"
    }
  ],
  "bytecode": "0x60806040523480156200001157600080fd5b506040516200596a3803806200596a8339818101604052810190620000379190620012ce565b888881600390805190602001906200005192919062000e10565b5080600490805190602001906200006a92919062000e10565b50505084600681905550836007819055508260088190555081600b8190555060006009819055506000601a60006101000a81548160ff02191690836003811115620000ba57620000b9620013eb565b5b02179055506276a700600d819055506014600c81905550604051806101e0016040528073f553ce9e38b21077f518d8db39db892f05751fa173ffffffffffffffffffffffffffffffffffffffff1673ffffffffffffffffffffffffffffffffffffffff16815260200173da974670f0fa770db9277a0306d568e4d6f6c5a373ffffffffffffffffffffffffffffffffffffffff1673ffffffffffffffffffffffffffffffffffffffff1681526020017323922042557af5b562eab49fd0ac09b16e6ac5e273ffffffffffffffffffffffffffffffffffffffff1673ffffffffffffffffffffffffffffffffffffffff16815260200173a0e6f859c24549efc0f873e7e5c043d90ba68eab73ffffffffffffffffffffffffffffffffffffffff1673ffffffffffffffffffffffffffffffffffffffff16815260200173733acd147e486cbe9f33257dc6272ad5292a8e6f73ffffffffffffffffffffffffffffffffffffffff1673ffffffffffffffffffffffffffffffffffffffff16815260200173700ff631e391e22f8b7c97051626f98ff4ae212373ffffffffffffffffffffffffffffffffffffffff1673ffffffffffffffffffffffffffffffffffffffff168152602001736c7ccd2c0f29fe4a01f834e98a97e3698c7ee16873ffffffffffffffffffffffffffffffffffffffff1673ffffffffffffffffffffffffffffffffffffffff16815260200173b02dbf9e04535cf3f086fe812bf765d9a8ece5db73ffffffffffffffffffffffffffffffffffffffff1673ffffffffffffffffffffffffffffffffffffffff16815260200173a7d4301f1f5f1c5ac2dcc2e761b04fcbe0ba1fed73ffffffffffffffffffffffffffffffffffffffff1673ffffffffffffffffffffffffffffffffffffffff16815260200173c9d8fb40f6d0e3e14c36b93e66ec16c9d4f70ed373ffffffffffffffffffffffffffffffffffffffff1673ffffffffffffffffffffffffffffffffffffffff1681526020017372e8bbe74a17dfa47533e556189152f174a00ed973ffffffffffffffffffffffffffffffffffffffff1673ffffffffffffffffffffffffffffffffffffffff1681526020017381a806e845d80bc775d721878d976e6f20dfa11573ffffffffffffffffffffffffffffffffffffffff1673ffffffffffffffffffffffffffffffffffffffff16815260200173bdb1d0e82620bf90a7b231b19c69cad39107334173ffffffffffffffffffffffffffffffffffffffff1673ffffffffffffffffffffffffffffffffffffffff16815260200173ac531927bd88c9a59e757cb5bb556535c9c3043f73ffffffffffffffffffffffffffffffffffffffff1673ffffffffffffffffffffffffffffffffffffffff168152602001732bc800abe1bd22bec07561bc740520908897716973ffffffffffffffffffffffffffffffffffffffff1673ffffffffffffffffffffffffffffffffffffffff16815250601290600f6200050792919062000ea1565b50604051806101e001604052806301312e0e63ffffffff168152602001625b914063ffffffff1681526020016301c9c4ac63ffffffff168152602001626acfc063ffffffff168152602001626acfc063ffffffff168152602001626acfc063ffffffff168152602001622dc6c063ffffffff16815260200161c35063ffffffff168152602001626acfc063ffffffff168152602001626acfc063ffffffff168152602001625b8d8063ffffffff168152602001626ad02463ffffffff1681526020016113ec63ffffffff16815260200161044c63ffffffff168152602001626ad02463ffffffff16815250601390600f6200060492919062000f30565b50601e601481905550629e3400601581905550604051806080016040528073c9c4aaf0042daa49e404bdb5a84efcfc17c5488073ffffffffffffffffffffffffffffffffffffffff1673ffffffffffffffffffffffffffffffffffffffff1681526020017372321dec1bc93d8c906e40d1056522283a4389f973ffffffffffffffffffffffffffffffffffffffff1673ffffffffffffffffffffffffffffffffffffffff16815260200173b2bd39587cf589aaab6a36e25b0aed76fcf58c7b73ffffffffffffffffffffffffffffffffffffffff1673ffffffffffffffffffffffffffffffffffffffff168152602001733effec8ebcf00052f62e4001b7804011da7c6f1473ffffffffffffffffffffffffffffffffffffffff1673ffffffffffffffffffffffffffffffffffffffff16815250600e9060046200074a92919062000f8a565b506040518060800160405280619c4a62ffffff16815260200162bebc2062ffffff16815260200161981c62ffffff168152602001619ad862ffffff16815250600f9060046200079b92919062001019565b50601960108190555062ed4e00601181905550601460168190555063013c6800601781905550620007f67fa49807205ce4d355092ef5a8a18f56e8913cf4a201fbe287825b095693c217756000801b62000a6760201b60201c565b620008287fa49807205ce4d355092ef5a8a18f56e8913cf4a201fbe287825b095693c217758262000ac560201b60201c565b6200083a878762000adb60201b60201c565b60005b600e805490508110156200094857620008be7fb165298935924f540e4181c03493a5d686c54a0aaeb3f6216de85b7ffbba7738600e83815481106200088757620008866200141a565b5b9060005260206000200160009054906101000a900473ffffffffffffffffffffffffffffffffffffffff1662000ac560201b60201c565b62000932600e8281548110620008d957620008d86200141a565b5b9060005260206000200160009054906101000a900473ffffffffffffffffffffffffffffffffffffffff16600f83815481106200091b576200091a6200141a565b5b906000526020600020015462000adb60201b60201c565b80806200093f9062001478565b9150506200083d565b5060005b60128054905081101562000a5757620009cd7f5146a08baf902532d0ee2f909971144f12ca32651cd70cbee1117cddfb3b3b33601283815481106200099657620009956200141a565b5b9060005260206000200160009054906101000a900473ffffffffffffffffffffffffffffffffffffffff1662000ac560201b60201c565b62000a4160128281548110620009e857620009e76200141a565b5b9060005260206000200160009054906101000a900473ffffffffffffffffffffffffffffffffffffffff166013838154811062000a2a5762000a296200141a565b5b906000526020600020015462000adb60201b60201c565b808062000a4e9062001478565b9150506200094c565b50505050505050505050620015b6565b8062000a798362000c7360201b60201c565b837fbd79b86ffe0ab8e8776151514217cd7cacd52c909f66475c3af44e129f0b00ff60405160405180910390a48060056000848152602001908152602001600020600101819055505050565b62000ad7828262000c9360201b60201c565b5050565b62000b3781601860008573ffffffffffffffffffffffffffffffffffffffff1673ffffffffffffffffffffffffffffffffffffffff1681526020019081526020016000206002015462000d8560201b620024271790919060201c565b601860008473ffffffffffffffffffffffffffffffffffffffff1673ffffffffffffffffffffffffffffffffffffffff1681526020019081526020016000206002018190555062000bd981601860008573ffffffffffffffffffffffffffffffffffffffff1673ffffffffffffffffffffffffffffffffffffffff1681526020019081526020016000206001015462000d8560201b620024271790919060201c565b601860008473ffffffffffffffffffffffffffffffffffffffff1673ffffffffffffffffffffffffffffffffffffffff168152602001908152602001600020600101819055508173ffffffffffffffffffffffffffffffffffffffff167f231472cdefc3c25438a167454431d6b08cddc40dcc454abbb9d8d8ca98ebbcd28260405162000c679190620014d7565b60405180910390a25050565b600060056000838152602001908152602001600020600101549050919050565b62000ca5828262000d9d60201b60201c565b62000d815760016005600084815260200190815260200160002060000160008373ffffffffffffffffffffffffffffffffffffffff1673ffffffffffffffffffffffffffffffffffffffff16815260200190815260200160002060006101000a81548160ff02191690831515021790555062000d2662000e0860201b60201c565b73ffffffffffffffffffffffffffffffffffffffff168173ffffffffffffffffffffffffffffffffffffffff16837f2f8788117e7eff1d82e926ec794901d17c78024a50270940304540a733656f0d60405160405180910390a45b5050565b6000818362000d959190620014f4565b905092915050565b60006005600084815260200190815260200160002060000160008373ffffffffffffffffffffffffffffffffffffffff1673ffffffffffffffffffffffffffffffffffffffff16815260200190815260200160002060009054906101000a900460ff16905092915050565b600033905090565b82805462000e1e9062001580565b90600052602060002090601f01602090048101928262000e42576000855562000e8e565b82601f1062000e5d57805160ff191683800117855562000e8e565b8280016001018555821562000e8e579182015b8281111562000e8d57825182559160200191906001019062000e70565b5b50905062000e9d919062001072565b5090565b82805482825590600052602060002090810192821562000f1d579160200282015b8281111562000f1c5782518260006101000a81548173ffffffffffffffffffffffffffffffffffffffff021916908373ffffffffffffffffffffffffffffffffffffffff1602179055509160200191906001019062000ec2565b5b50905062000f2c919062001072565b5090565b82805482825590600052602060002090810192821562000f77579160200282015b8281111562000f76578251829063ffffffff1690559160200191906001019062000f51565b5b50905062000f86919062001072565b5090565b82805482825590600052602060002090810192821562001006579160200282015b82811115620010055782518260006101000a81548173ffffffffffffffffffffffffffffffffffffffff021916908373ffffffffffffffffffffffffffffffffffffffff1602179055509160200191906001019062000fab565b5b50905062001015919062001072565b5090565b8280548282559060005260206000209081019282156200105f579160200282015b828111156200105e578251829062ffffff169055916020019190600101906200103a565b5b5090506200106e919062001072565b5090565b5b808211156200108d57600081600090555060010162001073565b5090565b6000604051905090565b600080fd5b600080fd5b600080fd5b600080fd5b6000601f19601f8301169050919050565b7f4e487b7100000000000000000000000000000000000000000000000000000000600052604160045260246000fd5b620010fa82620010af565b810181811067ffffffffffffffff821117156200111c576200111b620010c0565b5b80604052505050565b60006200113162001091565b90506200113f8282620010ef565b919050565b600067ffffffffffffffff821115620011625762001161620010c0565b5b6200116d82620010af565b9050602081019050919050565b60005b838110156200119a5780820151818401526020810190506200117d565b83811115620011aa576000848401525b50505050565b6000620011c7620011c18462001144565b62001125565b905082815260208101848484011115620011e657620011e5620010aa565b5b620011f38482856200117a565b509392505050565b600082601f830112620012135762001212620010a5565b5b815162001225848260208601620011b0565b91505092915050565b600073ffffffffffffffffffffffffffffffffffffffff82169050919050565b60006200125b826200122e565b9050919050565b6200126d816200124e565b81146200127957600080fd5b50565b6000815190506200128d8162001262565b92915050565b6000819050919050565b620012a88162001293565b8114620012b457600080fd5b50565b600081519050620012c8816200129d565b92915050565b60008060008060008060008060006101208a8c031215620012f457620012f36200109b565b5b60008a015167ffffffffffffffff811115620013155762001314620010a0565b5b620013238c828d01620011fb565b99505060208a015167ffffffffffffffff811115620013475762001346620010a0565b5b620013558c828d01620011fb565b9850506040620013688c828d016200127c565b97505060606200137b8c828d01620012b7565b96505060806200138e8c828d01620012b7565b95505060a0620013a18c828d01620012b7565b94505060c0620013b48c828d01620012b7565b93505060e0620013c78c828d01620012b7565b925050610100620013db8c828d016200127c565b9150509295985092959850929598565b7f4e487b7100000000000000000000000000000000000000000000000000000000600052602160045260246000fd5b7f4e487b7100000000000000000000000000000000000000000000000000000000600052603260045260246000fd5b7f4e487b7100000000000000000000000000000000000000000000000000000000600052601160045260246000fd5b6000620014858262001293565b91507fffffffffffffffffffffffffffffffffffffffffffffffffffffffffffffffff821415620014bb57620014ba62001449565b5b600182019050919050565b620014d18162001293565b82525050565b6000602082019050620014ee6000830184620014c6565b92915050565b6000620015018262001293565b91506200150e8362001293565b9250827fffffffffffffffffffffffffffffffffffffffffffffffffffffffffffffffff0382111562001546576200154562001449565b5b828201905092915050565b7f4e487b7100000000000000000000000000000000000000000000000000000000600052602260045260246000fd5b600060028204905060018216806200159957607f821691505b60208210811415620015b057620015af62001551565b5b50919050565b6143a480620015c66000396000f3fe6080604052600436106102345760003560e01c806375b238fc1161012e578063c06d1272116100ab578063d547741f1161006f578063d547741f146108fe578063dd62ed3e14610927578063e5130c9014610964578063e657807b1461098d578063ef6e312d146109a45761028d565b8063c06d12721461083f578063c7876ea414610856578063c807cb2514610881578063cab24ee6146108aa578063cb9974d6146108d35761028d565b8063a217fddf116100f2578063a217fddf14610746578063a3dd261914610771578063a457c2d71461079c578063a9059cbb146107d9578063b04fd845146108165761028d565b806375b238fc1461067157806376082a5e1461069c57806389311e6f146106c757806391d14854146106de57806395d89b411461071b5761028d565b806336568abe116101bc5780634cb84b9a116101805780634cb84b9a1461056457806353ab1a7c1461058f578063554d578d146105cc5780635de593cd146105f757806370a08231146106345761028d565b806336568abe1461046d578063395093511461049657806347e7ef24146104d357806347fcfb7e146104fc57806349d5e604146105395761028d565b806323b872dd1161020357806323b872dd14610362578063248a9ca31461039f5780632c083c97146103dc5780632f2ff15d14610419578063313ce567146104425761028d565b806301ffc9a71461029257806306fdde03146102cf578063095ea7b3146102fa57806318160ddd146103375761028d565b3661028d5760003490506000610276670de0b6b3a764000061026868056bc75e2d63100000856109cf90919063ffffffff16565b6109e590919063ffffffff16565b90506102896102836109fb565b82610a03565b5050005b600080fd5b34801561029e57600080fd5b506102b960048036038101906102b49190613010565b610cce565b6040516102c69190613058565b60405180910390f35b3480156102db57600080fd5b506102e4610d48565b6040516102f1919061310c565b60405180910390f35b34801561030657600080fd5b50610321600480360381019061031c91906131c2565b610dda565b60405161032e9190613058565b60405180910390f35b34801561034357600080fd5b5061034c610df8565b6040516103599190613211565b60405180910390f35b34801561036e57600080fd5b506103896004803603810190610384919061322c565b610e02565b6040516103969190613058565b60405180910390f35b3480156103ab57600080fd5b506103c660048036038101906103c191906132b5565b610f03565b6040516103d391906132f1565b60405180910390f35b3480156103e857600080fd5b5061040360048036038101906103fe919061330c565b610f23565b6040516104109190613211565b60405180910390f35b34801561042557600080fd5b50610440600480360381019061043b9190613339565b6110e9565b005b34801561044e57600080fd5b50610457611112565b6040516104649190613395565b60405180910390f35b34801561047957600080fd5b50610494600480360381019061048f9190613339565b61111b565b005b3480156104a257600080fd5b506104bd60048036038101906104b891906131c2565b61119e565b6040516104ca9190613058565b60405180910390f35b3480156104df57600080fd5b506104fa60048036038101906104f591906131c2565b610a03565b005b34801561050857600080fd5b50610523600480360381019061051e919061330c565b61124a565b6040516105309190613211565b60405180910390f35b34801561054557600080fd5b5061054e61133c565b60405161055b91906132f1565b60405180910390f35b34801561057057600080fd5b50610579611360565b6040516105869190613211565b60405180910390f35b34801561059b57600080fd5b506105b660048036038101906105b1919061330c565b61136a565b6040516105c39190613211565b60405180910390f35b3480156105d857600080fd5b506105e1611459565b6040516105ee9190613211565b60405180910390f35b34801561060357600080fd5b5061061e6004803603810190610619919061330c565b611463565b60405161062b9190613427565b60405180910390f35b34801561064057600080fd5b5061065b6004803603810190610656919061330c565b6114b9565b6040516106689190613211565b60405180910390f35b34801561067d57600080fd5b50610686611501565b60405161069391906132f1565b60405180910390f35b3480156106a857600080fd5b506106b1611525565b6040516106be91906132f1565b60405180910390f35b3480156106d357600080fd5b506106dc611549565b005b3480156106ea57600080fd5b5061070560048036038101906107009190613339565b6115e6565b6040516107129190613058565b60405180910390f35b34801561072757600080fd5b50610730611651565b60405161073d919061310c565b60405180910390f35b34801561075257600080fd5b5061075b6116e3565b60405161076891906132f1565b60405180910390f35b34801561077d57600080fd5b506107866116ea565b604051610793919061310c565b60405180910390f35b3480156107a857600080fd5b506107c360048036038101906107be91906131c2565b611893565b6040516107d09190613058565b60405180910390f35b3480156107e557600080fd5b5061080060048036038101906107fb91906131c2565b611987565b60405161080d9190613058565b60405180910390f35b34801561082257600080fd5b5061083d600480360381019061083891906131c2565b611ac5565b005b34801561084b57600080fd5b50610854611c4d565b005b34801561086257600080fd5b5061086b611cea565b6040516108789190613211565b60405180910390f35b34801561088d57600080fd5b506108a860048036038101906108a39190613442565b611cf7565b005b3480156108b657600080fd5b506108d160048036038101906108cc9190613494565b61200c565b005b3480156108df57600080fd5b506108e8612135565b6040516108f591906132f1565b60405180910390f35b34801561090a57600080fd5b5061092560048036038101906109209190613339565b612159565b005b34801561093357600080fd5b5061094e600480360381019061094991906134d4565b612182565b60405161095b9190613211565b60405180910390f35b34801561097057600080fd5b5061098b600480360381019061098691906131c2565b612209565b005b34801561099957600080fd5b506109a26122cc565b005b3480156109b057600080fd5b506109b961241d565b6040516109c69190613211565b60405180910390f35b600081836109dd9190613543565b905092915050565b600081836109f391906135cc565b905092915050565b600033905090565b600081905060016003811115610a1c57610a1b6133b0565b5b601a60009054906101000a900460ff166003811115610a3e57610a3d6133b0565b5b1415610b4357610a7e81610a706064610a62600754866109cf90919063ffffffff16565b6109e590919063ffffffff16565b61242790919063ffffffff16565b9050600854610a988260095461242790919063ffffffff16565b1115610ad9576040517f08c379a0000000000000000000000000000000000000000000000000000000008152600401610ad090613649565b60405180910390fd5b600180811115610aec57610aeb6133b0565b5b610af584611463565b6001811115610b0757610b066133b0565b5b1415610b1957610b1883600061200c565b5b610b2e8160095461242790919063ffffffff16565b600981905550610b3e8382611ac5565b610cc9565b60026003811115610b5757610b566133b0565b5b601a60009054906101000a900460ff166003811115610b7957610b786133b0565b5b1415610c7057610bb981610bab6064610b9d600654866109cf90919063ffffffff16565b6109e590919063ffffffff16565b61242790919063ffffffff16565b9050600854610bd38260095461242790919063ffffffff16565b1115610c14576040517f08c379a0000000000000000000000000000000000000000000000000000000008152600401610c0b90613649565b60405180910390fd5b600180811115610c2757610c266133b0565b5b610c3084611463565b6001811115610c4257610c416133b0565b5b1415610c5457610c5383600061200c565b5b610c698160095461242790919063ffffffff16565b6009819055505b610c7a838261243d565b8273ffffffffffffffffffffffffffffffffffffffff167fe1fffcc4923d04b559f4d29a8bfc6cda04eb5b0d3c460751c2402c5c5cc9109c82604051610cc09190613211565b60405180910390a25b505050565b60007f7965db0b000000000000000000000000000000000000000000000000000000007bffffffffffffffffffffffffffffffffffffffffffffffffffffffff1916827bffffffffffffffffffffffffffffffffffffffffffffffffffffffff19161480610d415750610d4082612591565b5b9050919050565b606060038054610d5790613698565b80601f0160208091040260200160405190810160405280929190818152602001828054610d8390613698565b8015610dd05780601f10610da557610100808354040283529160200191610dd0565b820191906000526020600020905b815481529060010190602001808311610db357829003601f168201915b5050505050905090565b6000610dee610de76109fb565b84846125fb565b6001905092915050565b6000600254905090565b6000610e0f8484846127c6565b6000600160008673ffffffffffffffffffffffffffffffffffffffff1673ffffffffffffffffffffffffffffffffffffffff1681526020019081526020016000206000610e5a6109fb565b73ffffffffffffffffffffffffffffffffffffffff1673ffffffffffffffffffffffffffffffffffffffff16815260200190815260200160002054905082811015610eda576040517f08c379a0000000000000000000000000000000000000000000000000000000008152600401610ed19061373c565b60405180910390fd5b610ef785610ee66109fb565b8584610ef2919061375c565b6125fb565b60019150509392505050565b600060056000838152602001908152602001600020600101549050919050565b600080600a5490506000600380811115610f4057610f3f6133b0565b5b601a60009054906101000a900460ff166003811115610f6257610f616133b0565b5b14610f72576000925050506110e4565b5b610f9d7f9a655bf4f3f1c7d2f9e9e0f77235619a2dbb74cae04687c73945e706d64d1c56856115e6565b15610fd557610fb76016548261242790919063ffffffff16565b9050610fce6017548361242790919063ffffffff16565b91506110ca565b610fff7f5146a08baf902532d0ee2f909971144f12ca32651cd70cbee1117cddfb3b3b33856115e6565b15611037576110196014548261242790919063ffffffff16565b90506110306015548361242790919063ffffffff16565b91506110c9565b6110617fb165298935924f540e4181c03493a5d686c54a0aaeb3f6216de85b7ffbba7738856115e6565b156110995761107b6010548261242790919063ffffffff16565b90506110926011548361242790919063ffffffff16565b91506110c8565b6110ae600c548261242790919063ffffffff16565b90506110c5600d548361242790919063ffffffff16565b91505b5b5b42821080156110da575060648111155b610f735780925050505b919050565b6110f282610f03565b611103816110fe6109fb565b612a45565b61110d8383612ae2565b505050565b60006012905090565b6111236109fb565b73ffffffffffffffffffffffffffffffffffffffff168173ffffffffffffffffffffffffffffffffffffffff1614611190576040517f08c379a000000000000000000000000000000000000000000000000000000000815260040161118790613802565b60405180910390fd5b61119a8282612bc3565b5050565b60006112406111ab6109fb565b8484600160006111b96109fb565b73ffffffffffffffffffffffffffffffffffffffff1673ffffffffffffffffffffffffffffffffffffffff16815260200190815260200160002060008873ffffffffffffffffffffffffffffffffffffffff1673ffffffffffffffffffffffffffffffffffffffff1681526020019081526020016000205461123b9190613822565b6125fb565b6001905092915050565b6000806000600a90505b606481116112d8576112c2601860008673ffffffffffffffffffffffffffffffffffffffff1673ffffffffffffffffffffffffffffffffffffffff1681526020019081526020016000206000016000838152602001908152602001600020548361242790919063ffffffff16565b9150600a816112d19190613822565b9050611254565b506000601860008573ffffffffffffffffffffffffffffffffffffffff1673ffffffffffffffffffffffffffffffffffffffff1681526020019081526020016000206002015490506113338282612ca590919063ffffffff16565b92505050919050565b7f5146a08baf902532d0ee2f909971144f12ca32651cd70cbee1117cddfb3b3b3381565b6000600854905090565b60008061137683610f23565b905060006113e2826113d46064601860008973ffffffffffffffffffffffffffffffffffffffff1673ffffffffffffffffffffffffffffffffffffffff168152602001908152602001600020600201546109e590919063ffffffff16565b6109cf90919063ffffffff16565b90506000601860008673ffffffffffffffffffffffffffffffffffffffff1673ffffffffffffffffffffffffffffffffffffffff168152602001908152602001600020600001600084815260200190815260200160002054905061144f8183612ca590919063ffffffff16565b9350505050919050565b6000600b54905090565b6000601960008373ffffffffffffffffffffffffffffffffffffffff1673ffffffffffffffffffffffffffffffffffffffff16815260200190815260200160002060009054906101000a900460ff169050919050565b60008060008373ffffffffffffffffffffffffffffffffffffffff1673ffffffffffffffffffffffffffffffffffffffff168152602001908152602001600020549050919050565b7fa49807205ce4d355092ef5a8a18f56e8913cf4a201fbe287825b095693c2177581565b7fb165298935924f540e4181c03493a5d686c54a0aaeb3f6216de85b7ffbba773881565b61157a7fa49807205ce4d355092ef5a8a18f56e8913cf4a201fbe287825b095693c217756115756109fb565b6115e6565b6115b9576040517f08c379a00000000000000000000000000000000000000000000000000000000081526004016115b0906138ea565b60405180910390fd5b6002601a60006101000a81548160ff021916908360038111156115df576115de6133b0565b5b0217905550565b60006005600084815260200190815260200160002060000160008373ffffffffffffffffffffffffffffffffffffffff1673ffffffffffffffffffffffffffffffffffffffff16815260200190815260200160002060009054906101000a900460ff16905092915050565b60606004805461166090613698565b80601f016020809104026020016040519081016040528092919081815260200182805461168c90613698565b80156116d95780601f106116ae576101008083540402835291602001916116d9565b820191906000526020600020905b8154815290600101906020018083116116bc57829003601f168201915b5050505050905090565b6000801b81565b606060006003811115611700576116ff6133b0565b5b601a60009054906101000a900460ff166003811115611722576117216133b0565b5b1415611765576040518060400160405280600a81526020017f4e6f7453746172746564000000000000000000000000000000000000000000008152509050611890565b60016003811115611779576117786133b0565b5b601a60009054906101000a900460ff16600381111561179b5761179a6133b0565b5b14156117de576040518060400160405280600781526020017f5072652049434f000000000000000000000000000000000000000000000000008152509050611890565b600260038111156117f2576117f16133b0565b5b601a60009054906101000a900460ff166003811115611814576118136133b0565b5b1415611857576040518060400160405280600381526020017f49434f00000000000000000000000000000000000000000000000000000000008152509050611890565b6040518060400160405280600881526020017f46696e697368656400000000000000000000000000000000000000000000000081525090505b90565b600080600160006118a26109fb565b73ffffffffffffffffffffffffffffffffffffffff1673ffffffffffffffffffffffffffffffffffffffff16815260200190815260200160002060008573ffffffffffffffffffffffffffffffffffffffff1673ffffffffffffffffffffffffffffffffffffffff1681526020019081526020016000205490508281101561195f576040517f08c379a00000000000000000000000000000000000000000000000000000000081526004016119569061397c565b60405180910390fd5b61197c61196a6109fb565b858584611977919061375c565b6125fb565b600191505092915050565b60006119ba7fa49807205ce4d355092ef5a8a18f56e8913cf4a201fbe287825b095693c217756119b56109fb565b6115e6565b611a34576003808111156119d1576119d06133b0565b5b601a60009054906101000a900460ff1660038111156119f3576119f26133b0565b5b14611a33576040517f08c379a0000000000000000000000000000000000000000000000000000000008152600401611a2a906139e8565b60405180910390fd5b5b600180811115611a4757611a466133b0565b5b611a57611a526109fb565b611463565b6001811115611a6957611a686133b0565b5b14611aa9576040517f08c379a0000000000000000000000000000000000000000000000000000000008152600401611aa090613a54565b60405180910390fd5b611abb611ab46109fb565b84846127c6565b6001905092915050565b611b1a81601860008573ffffffffffffffffffffffffffffffffffffffff1673ffffffffffffffffffffffffffffffffffffffff1681526020019081526020016000206002015461242790919063ffffffff16565b601860008473ffffffffffffffffffffffffffffffffffffffff1673ffffffffffffffffffffffffffffffffffffffff16815260200190815260200160002060020181905550611bb581601860008573ffffffffffffffffffffffffffffffffffffffff1673ffffffffffffffffffffffffffffffffffffffff1681526020019081526020016000206001015461242790919063ffffffff16565b601860008473ffffffffffffffffffffffffffffffffffffffff1673ffffffffffffffffffffffffffffffffffffffff168152602001908152602001600020600101819055508173ffffffffffffffffffffffffffffffffffffffff167f231472cdefc3c25438a167454431d6b08cddc40dcc454abbb9d8d8ca98ebbcd282604051611c419190613211565b60405180910390a25050565b611c7e7fa49807205ce4d355092ef5a8a18f56e8913cf4a201fbe287825b095693c21775611c796109fb565b6115e6565b611cbd576040517f08c379a0000000000000000000000000000000000000000000000000000000008152600401611cb490613ae6565b60405180910390fd5b6001601a60006101000a81548160ff02191690836003811115611ce357611ce26133b0565b5b0217905550565b68056bc75e2d6310000081565b6000611d09611d046109fb565b610f23565b90506000611de860186000611d1c6109fb565b73ffffffffffffffffffffffffffffffffffffffff1673ffffffffffffffffffffffffffffffffffffffff168152602001908152602001600020600001600084815260200190815260200160002054611dda84611dcc606460186000611d806109fb565b73ffffffffffffffffffffffffffffffffffffffff1673ffffffffffffffffffffffffffffffffffffffff168152602001908152602001600020600201546109e590919063ffffffff16565b6109cf90919063ffffffff16565b612ca590919063ffffffff16565b905080831115611e2d576040517f08c379a0000000000000000000000000000000000000000000000000000000008152600401611e2490613b78565b60405180910390fd5b611e898360186000611e3d6109fb565b73ffffffffffffffffffffffffffffffffffffffff1673ffffffffffffffffffffffffffffffffffffffff16815260200190815260200160002060010154612ca590919063ffffffff16565b60186000611e956109fb565b73ffffffffffffffffffffffffffffffffffffffff1673ffffffffffffffffffffffffffffffffffffffff16815260200190815260200160002060010181905550611f438360186000611ee66109fb565b73ffffffffffffffffffffffffffffffffffffffff1673ffffffffffffffffffffffffffffffffffffffff16815260200190815260200160002060000160008581526020019081526020016000205461242790919063ffffffff16565b60186000611f4f6109fb565b73ffffffffffffffffffffffffffffffffffffffff1673ffffffffffffffffffffffffffffffffffffffff168152602001908152602001600020600001600084815260200190815260200160002081905550611fb2611fac6109fb565b8461243d565b611fba6109fb565b73ffffffffffffffffffffffffffffffffffffffff167f393c95e9d26e675951a2e5342d80b93219994d655eb7f2834bde4f51a4a7927284604051611fff9190613211565b60405180910390a2505050565b61203d7fa49807205ce4d355092ef5a8a18f56e8913cf4a201fbe287825b095693c217756120386109fb565b6115e6565b61207c576040517f08c379a000000000000000000000000000000000000000000000000000000000815260040161207390613c0a565b60405180910390fd5b80601960008473ffffffffffffffffffffffffffffffffffffffff1673ffffffffffffffffffffffffffffffffffffffff16815260200190815260200160002060006101000a81548160ff021916908360018111156120de576120dd6133b0565b5b02179055508173ffffffffffffffffffffffffffffffffffffffff167fe889d83d305e4aa8bb35213963828d1bd52e88e6af324362092d9b1622a4f27c826040516121299190613427565b60405180910390a25050565b7f9a655bf4f3f1c7d2f9e9e0f77235619a2dbb74cae04687c73945e706d64d1c5681565b61216282610f03565b6121738161216e6109fb565b612a45565b61217d8383612bc3565b505050565b6000600160008473ffffffffffffffffffffffffffffffffffffffff1673ffffffffffffffffffffffffffffffffffffffff16815260200190815260200160002060008373ffffffffffffffffffffffffffffffffffffffff1673ffffffffffffffffffffffffffffffffffffffff16815260200190815260200160002054905092915050565b61223a7fa49807205ce4d355092ef5a8a18f56e8913cf4a201fbe287825b095693c217756122356109fb565b6115e6565b612279576040517f08c379a000000000000000000000000000000000000000000000000000000000815260040161227090613c9c565b60405180910390fd5b6122a37f9a655bf4f3f1c7d2f9e9e0f77235619a2dbb74cae04687c73945e706d64d1c5683612cbb565b6122ad8282611ac5565b6122c28160095461242790919063ffffffff16565b6009819055505050565b600260038111156122e0576122df6133b0565b5b601a60009054906101000a900460ff166003811115612302576123016133b0565b5b14612342576040517f08c379a000000000000000000000000000000000000000000000000000000000815260040161233990613d08565b60405180910390fd5b6123737fa49807205ce4d355092ef5a8a18f56e8913cf4a201fbe287825b095693c2177561236e6109fb565b6115e6565b6123b2576040517f08c379a00000000000000000000000000000000000000000000000000000000081526004016123a990613d9a565b60405180910390fd5b60006123cb600954600854612ca590919063ffffffff16565b90506003601a60006101000a81548160ff021916908360038111156123f3576123f26133b0565b5b021790555042600a81905550600081111561241a576124196124136109fb565b82610a03565b5b50565b6000600954905090565b600081836124359190613822565b905092915050565b600073ffffffffffffffffffffffffffffffffffffffff168273ffffffffffffffffffffffffffffffffffffffff1614156124ad576040517f08c379a00000000000000000000000000000000000000000000000000000000081526004016124a490613e06565b60405180910390fd5b6124b960008383612cc9565b80600260008282546124cb9190613822565b92505081905550806000808473ffffffffffffffffffffffffffffffffffffffff1673ffffffffffffffffffffffffffffffffffffffff16815260200190815260200160002060008282546125209190613822565b925050819055508173ffffffffffffffffffffffffffffffffffffffff16600073ffffffffffffffffffffffffffffffffffffffff167fddf252ad1be2c89b69c2b068fc378daa952ba7f163c4a11628f55a4df523b3ef836040516125859190613211565b60405180910390a35050565b60007f01ffc9a7000000000000000000000000000000000000000000000000000000007bffffffffffffffffffffffffffffffffffffffffffffffffffffffff1916827bffffffffffffffffffffffffffffffffffffffffffffffffffffffff1916149050919050565b600073ffffffffffffffffffffffffffffffffffffffff168373ffffffffffffffffffffffffffffffffffffffff16141561266b576040517f08c379a000000000000000000000000000000000000000000000000000000000815260040161266290613e98565b60405180910390fd5b600073ffffffffffffffffffffffffffffffffffffffff168273ffffffffffffffffffffffffffffffffffffffff1614156126db576040517f08c379a00000000000000000000000000000000000000000000000000000000081526004016126d290613f2a565b60405180910390fd5b80600160008573ffffffffffffffffffffffffffffffffffffffff1673ffffffffffffffffffffffffffffffffffffffff16815260200190815260200160002060008473ffffffffffffffffffffffffffffffffffffffff1673ffffffffffffffffffffffffffffffffffffffff168152602001908152602001600020819055508173ffffffffffffffffffffffffffffffffffffffff168373ffffffffffffffffffffffffffffffffffffffff167f8c5be1e5ebec7d5bd14f71427d1e84f3dd0314c0f7b2291e5b200ac8c7c3b925836040516127b99190613211565b60405180910390a3505050565b600073ffffffffffffffffffffffffffffffffffffffff168373ffffffffffffffffffffffffffffffffffffffff161415612836576040517f08c379a000000000000000000000000000000000000000000000000000000000815260040161282d90613fbc565b60405180910390fd5b600073ffffffffffffffffffffffffffffffffffffffff168273ffffffffffffffffffffffffffffffffffffffff1614156128a6576040517f08c379a000000000000000000000000000000000000000000000000000000000815260040161289d9061404e565b60405180910390fd5b6128b1838383612cc9565b60008060008573ffffffffffffffffffffffffffffffffffffffff1673ffffffffffffffffffffffffffffffffffffffff16815260200190815260200160002054905081811015612937576040517f08c379a000000000000000000000000000000000000000000000000000000000815260040161292e906140e0565b60405180910390fd5b8181612943919061375c565b6000808673ffffffffffffffffffffffffffffffffffffffff1673ffffffffffffffffffffffffffffffffffffffff16815260200190815260200160002081905550816000808573ffffffffffffffffffffffffffffffffffffffff1673ffffffffffffffffffffffffffffffffffffffff16815260200190815260200160002060008282546129d39190613822565b925050819055508273ffffffffffffffffffffffffffffffffffffffff168473ffffffffffffffffffffffffffffffffffffffff167fddf252ad1be2c89b69c2b068fc378daa952ba7f163c4a11628f55a4df523b3ef84604051612a379190613211565b60405180910390a350505050565b612a4f82826115e6565b612ade57612a748173ffffffffffffffffffffffffffffffffffffffff166014612d72565b612a828360001c6020612d72565b604051602001612a939291906141d4565b6040516020818303038152906040526040517f08c379a0000000000000000000000000000000000000000000000000000000008152600401612ad5919061310c565b60405180910390fd5b5050565b612aec82826115e6565b612bbf5760016005600084815260200190815260200160002060000160008373ffffffffffffffffffffffffffffffffffffffff1673ffffffffffffffffffffffffffffffffffffffff16815260200190815260200160002060006101000a81548160ff021916908315150217905550612b646109fb565b73ffffffffffffffffffffffffffffffffffffffff168173ffffffffffffffffffffffffffffffffffffffff16837f2f8788117e7eff1d82e926ec794901d17c78024a50270940304540a733656f0d60405160405180910390a45b5050565b612bcd82826115e6565b15612ca15760006005600084815260200190815260200160002060000160008373ffffffffffffffffffffffffffffffffffffffff1673ffffffffffffffffffffffffffffffffffffffff16815260200190815260200160002060006101000a81548160ff021916908315150217905550612c466109fb565b73ffffffffffffffffffffffffffffffffffffffff168173ffffffffffffffffffffffffffffffffffffffff16837ff6391f5c32d9c69d2a47ea670b442974b53935d1edc7fd64eb21e047a839171b60405160405180910390a45b5050565b60008183612cb3919061375c565b905092915050565b612cc58282612ae2565b5050565b612cd4838383612fae565b600073ffffffffffffffffffffffffffffffffffffffff168373ffffffffffffffffffffffffffffffffffffffff161415612d6d57612d11611459565b612d2b82612d1d610df8565b61242790919063ffffffff16565b1115612d6c576040517f08c379a0000000000000000000000000000000000000000000000000000000008152600401612d639061425a565b60405180910390fd5b5b505050565b606060006002836002612d859190613543565b612d8f9190613822565b67ffffffffffffffff811115612da857612da761427a565b5b6040519080825280601f01601f191660200182016040528015612dda5781602001600182028036833780820191505090505b5090507f300000000000000000000000000000000000000000000000000000000000000081600081518110612e1257612e116142a9565b5b60200101907effffffffffffffffffffffffffffffffffffffffffffffffffffffffffffff1916908160001a9053507f780000000000000000000000000000000000000000000000000000000000000081600181518110612e7657612e756142a9565b5b60200101907effffffffffffffffffffffffffffffffffffffffffffffffffffffffffffff1916908160001a90535060006001846002612eb69190613543565b612ec09190613822565b90505b6001811115612f60577f3031323334353637383961626364656600000000000000000000000000000000600f861660108110612f0257612f016142a9565b5b1a60f81b828281518110612f1957612f186142a9565b5b60200101907effffffffffffffffffffffffffffffffffffffffffffffffffffffffffffff1916908160001a905350600485901c945080612f59906142d8565b9050612ec3565b5060008414612fa4576040517f08c379a0000000000000000000000000000000000000000000000000000000008152600401612f9b9061434e565b60405180910390fd5b8091505092915050565b505050565b600080fd5b60007fffffffff0000000000000000000000000000000000000000000000000000000082169050919050565b612fed81612fb8565b8114612ff857600080fd5b50565b60008135905061300a81612fe4565b92915050565b60006020828403121561302657613025612fb3565b5b600061303484828501612ffb565b91505092915050565b60008115159050919050565b6130528161303d565b82525050565b600060208201905061306d6000830184613049565b92915050565b600081519050919050565b600082825260208201905092915050565b60005b838110156130ad578082015181840152602081019050613092565b838111156130bc576000848401525b50505050565b6000601f19601f8301169050919050565b60006130de82613073565b6130e8818561307e565b93506130f881856020860161308f565b613101816130c2565b840191505092915050565b6000602082019050818103600083015261312681846130d3565b905092915050565b600073ffffffffffffffffffffffffffffffffffffffff82169050919050565b60006131598261312e565b9050919050565b6131698161314e565b811461317457600080fd5b50565b60008135905061318681613160565b92915050565b6000819050919050565b61319f8161318c565b81146131aa57600080fd5b50565b6000813590506131bc81613196565b92915050565b600080604083850312156131d9576131d8612fb3565b5b60006131e785828601613177565b92505060206131f8858286016131ad565b9150509250929050565b61320b8161318c565b82525050565b60006020820190506132266000830184613202565b92915050565b60008060006060848603121561324557613244612fb3565b5b600061325386828701613177565b935050602061326486828701613177565b9250506040613275868287016131ad565b9150509250925092565b6000819050919050565b6132928161327f565b811461329d57600080fd5b50565b6000813590506132af81613289565b92915050565b6000602082840312156132cb576132ca612fb3565b5b60006132d9848285016132a0565b91505092915050565b6132eb8161327f565b82525050565b600060208201905061330660008301846132e2565b92915050565b60006020828403121561332257613321612fb3565b5b600061333084828501613177565b91505092915050565b600080604083850312156133505761334f612fb3565b5b600061335e858286016132a0565b925050602061336f85828601613177565b9150509250929050565b600060ff82169050919050565b61338f81613379565b82525050565b60006020820190506133aa6000830184613386565b92915050565b7f4e487b7100000000000000000000000000000000000000000000000000000000600052602160045260246000fd5b600281106133f0576133ef6133b0565b5b50565b6000819050613401826133df565b919050565b6000613411826133f3565b9050919050565b61342181613406565b82525050565b600060208201905061343c6000830184613418565b92915050565b60006020828403121561345857613457612fb3565b5b6000613466848285016131ad565b91505092915050565b6002811061347c57600080fd5b50565b60008135905061348e8161346f565b92915050565b600080604083850312156134ab576134aa612fb3565b5b60006134b985828601613177565b92505060206134ca8582860161347f565b9150509250929050565b600080604083850312156134eb576134ea612fb3565b5b60006134f985828601613177565b925050602061350a85828601613177565b9150509250929050565b7f4e487b7100000000000000000000000000000000000000000000000000000000600052601160045260246000fd5b600061354e8261318c565b91506135598361318c565b9250817fffffffffffffffffffffffffffffffffffffffffffffffffffffffffffffffff048311821515161561359257613591613514565b5b828202905092915050565b7f4e487b7100000000000000000000000000000000000000000000000000000000600052601260045260246000fd5b60006135d78261318c565b91506135e28361318c565b9250826135f2576135f161359d565b5b828204905092915050565b7f5665656c616e63696e673a2049434f2043617020657863656465656400000000600082015250565b6000613633601c8361307e565b915061363e826135fd565b602082019050919050565b6000602082019050818103600083015261366281613626565b9050919050565b7f4e487b7100000000000000000000000000000000000000000000000000000000600052602260045260246000fd5b600060028204905060018216806136b057607f821691505b602082108114156136c4576136c3613669565b5b50919050565b7f45524332303a207472616e7366657220616d6f756e742065786365656473206160008201527f6c6c6f77616e6365000000000000000000000000000000000000000000000000602082015250565b600061372660288361307e565b9150613731826136ca565b604082019050919050565b6000602082019050818103600083015261375581613719565b9050919050565b60006137678261318c565b91506137728361318c565b92508282101561378557613784613514565b5b828203905092915050565b7f416363657373436f6e74726f6c3a2063616e206f6e6c792072656e6f756e636560008201527f20726f6c657320666f722073656c660000000000000000000000000000000000602082015250565b60006137ec602f8361307e565b91506137f782613790565b604082019050919050565b6000602082019050818103600083015261381b816137df565b9050919050565b600061382d8261318c565b91506138388361318c565b9250827fffffffffffffffffffffffffffffffffffffffffffffffffffffffffffffffff0382111561386d5761386c613514565b5b828201905092915050565b7f5665656c616e63696e673a204f6e6c79207468652061646d696e2063616e207360008201527f74617274207468652049434f0000000000000000000000000000000000000000602082015250565b60006138d4602c8361307e565b91506138df82613878565b604082019050919050565b60006020820190508181036000830152613903816138c7565b9050919050565b7f45524332303a2064656372656173656420616c6c6f77616e63652062656c6f7760008201527f207a65726f000000000000000000000000000000000000000000000000000000602082015250565b600061396660258361307e565b91506139718261390a565b604082019050919050565b6000602082019050818103600083015261399581613959565b9050919050565b7f5665656c616e63696e673a2049434f20736561736f6e00000000000000000000600082015250565b60006139d260168361307e565b91506139dd8261399c565b602082019050919050565b60006020820190508181036000830152613a01816139c5565b9050919050565b7f5665656c616e63696e673a2057616c6c657420697320626c6f636b6564000000600082015250565b6000613a3e601d8361307e565b9150613a4982613a08565b602082019050919050565b60006020820190508181036000830152613a6d81613a31565b9050919050565b7f5665656c616e63696e673a204f6e6c79207468652061646d696e2063616e207360008201527f7461727420746865205072652049434f00000000000000000000000000000000602082015250565b6000613ad060308361307e565b9150613adb82613a74565b604082019050919050565b60006020820190508181036000830152613aff81613ac3565b9050919050565b7f5665656c616e63696e673a20776974686472617720616d6f756e74206578636560008201527f6564732062616c616e6365000000000000000000000000000000000000000000602082015250565b6000613b62602b8361307e565b9150613b6d82613b06565b604082019050919050565b60006020820190508181036000830152613b9181613b55565b9050919050565b7f5665656c616e63696e673a204f6e6c79207468652061646d696e2063616e206360008201527f68616e6765207468652077616c6c657420737461747573000000000000000000602082015250565b6000613bf460378361307e565b9150613bff82613b98565b604082019050919050565b60006020820190508181036000830152613c2381613be7565b9050919050565b7f5665656c616e63696e673a204f6e6c79207468652061646d696e2063616e206360008201527f726561746520626f6e7573657300000000000000000000000000000000000000602082015250565b6000613c86602d8361307e565b9150613c9182613c2a565b604082019050919050565b60006020820190508181036000830152613cb581613c79565b9050919050565b7f5665656c616e63696e673a2049434f20616c726561647920656e6465642e0000600082015250565b6000613cf2601e8361307e565b9150613cfd82613cbc565b602082019050919050565b60006020820190508181036000830152613d2181613ce5565b9050919050565b7f5665656c616e63696e673a204f6e6c79207468652061646d696e2063616e206560008201527f6e64207468652049434f00000000000000000000000000000000000000000000602082015250565b6000613d84602a8361307e565b9150613d8f82613d28565b604082019050919050565b60006020820190508181036000830152613db381613d77565b9050919050565b7f45524332303a206d696e7420746f20746865207a65726f206164647265737300600082015250565b6000613df0601f8361307e565b9150613dfb82613dba565b602082019050919050565b60006020820190508181036000830152613e1f81613de3565b9050919050565b7f45524332303a20617070726f76652066726f6d20746865207a65726f2061646460008201527f7265737300000000000000000000000000000000000000000000000000000000602082015250565b6000613e8260248361307e565b9150613e8d82613e26565b604082019050919050565b60006020820190508181036000830152613eb181613e75565b9050919050565b7f45524332303a20617070726f766520746f20746865207a65726f20616464726560008201527f7373000000000000000000000000000000000000000000000000000000000000602082015250565b6000613f1460228361307e565b9150613f1f82613eb8565b604082019050919050565b60006020820190508181036000830152613f4381613f07565b9050919050565b7f45524332303a207472616e736665722066726f6d20746865207a65726f20616460008201527f6472657373000000000000000000000000000000000000000000000000000000602082015250565b6000613fa660258361307e565b9150613fb182613f4a565b604082019050919050565b60006020820190508181036000830152613fd581613f99565b9050919050565b7f45524332303a207472616e7366657220746f20746865207a65726f206164647260008201527f6573730000000000000000000000000000000000000000000000000000000000602082015250565b600061403860238361307e565b915061404382613fdc565b604082019050919050565b600060208201905081810360008301526140678161402b565b9050919050565b7f45524332303a207472616e7366657220616d6f756e742065786365656473206260008201527f616c616e63650000000000000000000000000000000000000000000000000000602082015250565b60006140ca60268361307e565b91506140d58261406e565b604082019050919050565b600060208201905081810360008301526140f9816140bd565b9050919050565b600081905092915050565b7f416363657373436f6e74726f6c3a206163636f756e7420000000000000000000600082015250565b6000614141601783614100565b915061414c8261410b565b601782019050919050565b600061416282613073565b61416c8185614100565b935061417c81856020860161308f565b80840191505092915050565b7f206973206d697373696e6720726f6c6520000000000000000000000000000000600082015250565b60006141be601183614100565b91506141c982614188565b601182019050919050565b60006141df82614134565b91506141eb8285614157565b91506141f6826141b1565b91506142028284614157565b91508190509392505050565b7f5665656c616e63696e673a204361702065786365656465640000000000000000600082015250565b600061424460188361307e565b915061424f8261420e565b602082019050919050565b6000602082019050818103600083015261427381614237565b9050919050565b7f4e487b7100000000000000000000000000000000000000000000000000000000600052604160045260246000fd5b7f4e487b7100000000000000000000000000000000000000000000000000000000600052603260045260246000fd5b60006142e38261318c565b915060008214156142f7576142f6613514565b5b600182039050919050565b7f537472696e67733a20686578206c656e67746820696e73756666696369656e74600082015250565b600061433860208361307e565b915061434382614302565b602082019050919050565b600060208201905081810360008301526143678161432b565b905091905056fea26469706673582212200f2bf854acacd7a93f380b44b04db31e057d2c8f6630edfa1a8ce46343acf69964736f6c634300080b0033",
  "immutableReferences": {},
  "source": "// SPDX-License-Identifier: MIT\npragma solidity 0.8.11;\n\nimport \"@openzeppelin/contracts/token/ERC20/ERC20.sol\";\nimport \"@openzeppelin/contracts/utils/math/SafeMath.sol\";\nimport \"@openzeppelin/contracts/access/AccessControl.sol\";\n\ncontract VeelancingToken is ERC20, AccessControl {\n    using SafeMath for uint256;\n\n    bytes32 public constant ADMIN_ROLE = keccak256(\"ADMIN_ROLE\");\n    bytes32 public constant INVESTOR_ROLE = keccak256(\"INVESTOR_ROLE\");\n    bytes32 public constant TEAM_ROLE = keccak256(\"TEAM_ROLE\");\n    bytes32 public constant BONUS_ICO_ROLE = keccak256(\"BONUS_ICO_ROLE\");\n    uint256 private percIco;\n    uint256 private percPreIco;\n    uint256 public constant basePrice = 100 * 10**18;\n    uint256 private icoCap;\n    uint256 private soldIcoTotal;\n    uint256 private endIcoDate;\n    uint256 private cap;\n\n    uint256 private vestingPerc;\n    uint256 private vestingDays;\n    address[] private investors;\n    uint256[] private investorAmounts;\n    uint256 private percInvestors;\n    uint256 private vestingDaysInvestors;\n    address[] private team;\n    uint256[] private teamAmounts;\n    uint256 private percTeam;\n    uint256 private vestingDaysTeam;\n    uint256 private percBonusIco;\n    uint256 private vestingDaysBonusIco;\n\n    enum CrowdState {\n        NotStarted,\n        PreICO,\n        ICO,\n        Finished\n    }\n\n    enum WalletStatus {\n        Blocked,\n        Unblocked\n    }\n\n    struct VestedBalance {\n        mapping(uint256 => uint256) perc;\n        uint256 balance;\n        uint256 initialBalance;\n    }\n\n    mapping(address => VestedBalance) private _vestedBalances;\n    mapping(address => WalletStatus) private _blockedWallets;\n\n    CrowdState private state;\n\n    event WithdrawFromVested(address indexed to, uint256 value);\n    event DepositToVested(address indexed to, uint256 value);\n    event WalletStatusChanged(address indexed to, WalletStatus status);\n    event Deposit(address indexed to, uint256 value);\n\n    constructor(\n        string memory name,\n        string memory symbol,\n        address Liquidity,\n        uint256 volume_liquidity,\n        uint256 percIco_,\n        uint256 percPreIco_,\n        uint256 icoCap_,\n        uint256 cap_,\n        address owner\n    ) public ERC20(name, symbol) {\n        percIco = percIco_;\n        percPreIco = percPreIco_;\n        icoCap = icoCap_;\n        cap = cap_;\n\n        soldIcoTotal = 0;\n\n        state = CrowdState.NotStarted;\n\n        vestingDays = 90 days;\n        vestingPerc = 20;\n\n        team = [\n            0xF553CE9e38b21077f518D8dB39dB892f05751FA1,\n            0xdA974670f0Fa770db9277A0306d568E4D6f6c5a3,\n            0x23922042557AF5B562eab49FD0AC09b16E6Ac5E2,\n            0xA0e6f859c24549Efc0f873e7e5c043d90bA68EAb,\n            0x733ACd147e486cBe9f33257DC6272Ad5292a8E6f,\n            0x700Ff631E391E22F8B7C97051626f98ff4AE2123,\n            0x6C7CCd2c0f29FE4a01f834E98a97e3698C7Ee168,\n            0xb02dbF9e04535cf3f086fE812BF765D9A8ECE5dB,\n            0xa7d4301F1F5F1C5Ac2Dcc2e761b04Fcbe0bA1Fed,\n            0xC9d8fB40f6d0E3e14C36B93e66EC16C9d4F70ed3,\n            0x72e8BBe74a17dfa47533e556189152f174A00ED9,\n            0x81a806E845D80bc775D721878d976e6F20dfA115,\n            0xBdB1D0e82620bf90a7B231b19c69caD391073341,\n            0xAc531927bD88c9A59e757Cb5BB556535c9c3043F,\n            0x2BC800abE1bd22beC07561Bc7405209088977169\n        ];\n        teamAmounts = [\n            20000270,\n            6000960,\n            30000300,\n            7000000,\n            7000000,\n            7000000,\n            3000000,\n            50000,\n            7000000,\n            7000000,\n            6000000,\n            7000100,\n            5100,\n            1100,\n            7000100\n        ];\n        percTeam = 30;\n        vestingDaysTeam = 120 days;\n\n        investors = [\n            0xc9c4aAf0042dAa49e404bdB5a84EfcFc17c54880,\n            0x72321DEc1Bc93D8C906E40d1056522283A4389F9,\n            0xB2BD39587cf589AAAb6a36e25B0aED76FCf58c7B,\n            0x3EfFeC8EbcF00052F62e4001B7804011Da7c6f14\n        ];\n        investorAmounts = [40010, 12500000, 38940, 39640];\n        percInvestors = 25;\n        vestingDaysInvestors = 180 days;\n\n        percBonusIco = 20;\n        vestingDaysBonusIco = 240 days;\n\n        _setRoleAdmin(ADMIN_ROLE, DEFAULT_ADMIN_ROLE);\n        _setupRole(ADMIN_ROLE, owner);\n        depositToVested(Liquidity, volume_liquidity);\n\n        for (uint256 i = 0; i < investors.length; i++) {\n            _setupRole(INVESTOR_ROLE, investors[i]);\n            depositToVested(investors[i], investorAmounts[i]);\n        }\n\n        for (uint256 i = 0; i < team.length; i++) {\n            _setupRole(TEAM_ROLE, team[i]);\n            depositToVested(team[i], teamAmounts[i]);\n        }\n    }\n\n    function getCap() public view virtual returns (uint256) {\n        return cap;\n    }\n\n    function getIcoCap() public view returns (uint256) {\n        return icoCap;\n    }\n\n    function getIcoSold() public view returns (uint256) {\n        return soldIcoTotal;\n    }\n\n    function getCurrentStatus() public view returns (string memory) {\n        if (state == CrowdState.NotStarted) {\n            return \"NotStarted\";\n        } else if (state == CrowdState.PreICO) {\n            return \"Pre ICO\";\n        } else if (state == CrowdState.ICO) {\n            return \"ICO\";\n        } else {\n            return \"Finished\";\n        }\n    }\n\n    function getVestedAllowedPerc(address to) public virtual returns (uint256) {\n        uint256 date = endIcoDate;\n        uint256 perc = 0;\n\n        if (state != CrowdState.Finished) {\n            return 0;\n        }\n\n        do {\n            if (hasRole(BONUS_ICO_ROLE, to)) {\n                perc = perc.add(percBonusIco);\n                date = date.add(vestingDaysBonusIco);\n            } else if (hasRole(TEAM_ROLE, to)) {\n                perc = perc.add(percTeam);\n                date = date.add(vestingDaysTeam);\n            } else if (hasRole(INVESTOR_ROLE, to)) {\n                perc = perc.add(percInvestors);\n                date = date.add(vestingDaysInvestors);\n            } else {\n                perc = perc.add(vestingPerc);\n                date = date.add(vestingDays);\n            }\n        } while (date < block.timestamp && perc <= 100);\n\n        return perc;\n    }\n\n    function getVestedTotalBalance(address to)\n        public\n        view\n        virtual\n        returns (uint256)\n    {\n        uint256 consumed;\n\n        for (uint256 index = 10; index <= 100; index += 10) {\n            consumed = consumed.add(_vestedBalances[to].perc[index]);\n        }\n\n        uint256 total = _vestedBalances[to].initialBalance;\n\n        return total.sub(consumed);\n    }\n\n    function getVestedAllowedBalance(address to)\n        public\n        virtual\n        returns (uint256)\n    {\n        uint256 perc = getVestedAllowedPerc(to);\n\n        uint256 total = _vestedBalances[to].initialBalance.div(100).mul(perc);\n        uint256 consumed = _vestedBalances[to].perc[perc];\n\n        return total.sub(consumed);\n    }\n\n    function withdrawFromVested(uint256 amount) public virtual {\n        uint256 perc = getVestedAllowedPerc(_msgSender());\n        uint256 balance = _vestedBalances[_msgSender()]\n            .initialBalance\n            .div(100)\n            .mul(perc)\n            .sub(_vestedBalances[_msgSender()].perc[perc]);\n\n        require(\n            amount <= balance,\n            \"Veelancing: withdraw amount exceeds balance\"\n        );\n\n        _vestedBalances[_msgSender()].balance = _vestedBalances[_msgSender()]\n            .balance\n            .sub(amount);\n        _vestedBalances[_msgSender()].perc[perc] = _vestedBalances[_msgSender()]\n            .perc[perc]\n            .add(amount);\n        _mint(_msgSender(), amount);\n        emit WithdrawFromVested(_msgSender(), amount);\n    }\n\n    function depositToVested(address recipient, uint256 amount) public virtual {\n        _vestedBalances[recipient].initialBalance = _vestedBalances[recipient]\n            .initialBalance\n            .add(amount);\n        _vestedBalances[recipient].balance = _vestedBalances[recipient]\n            .balance\n            .add(amount);\n        emit DepositToVested(recipient, amount);\n    }\n\n    function getWalletStatus(address recipient)\n        public\n        view\n        returns (WalletStatus)\n    {\n        return _blockedWallets[recipient];\n    }\n\n    function setWalletStatus(address recipient, WalletStatus status) public {\n        require(\n            hasRole(ADMIN_ROLE, _msgSender()),\n            \"Veelancing: Only the admin can change the wallet status\"\n        );\n\n        _blockedWallets[recipient] = status;\n        emit WalletStatusChanged(recipient, status);\n    }\n\n    function deposit(address recipient, uint256 amount) public virtual {\n        uint256 total = amount;\n\n        if (state == CrowdState.PreICO) {\n            total = total.mul(percPreIco).div(100).add(total);\n\n            require(\n                soldIcoTotal.add(total) <= icoCap,\n                \"Veelancing: ICO Cap excedeed\"\n            );\n\n            if (getWalletStatus(recipient) == WalletStatus.Unblocked) {\n                setWalletStatus(recipient, WalletStatus.Blocked);\n            }\n\n            soldIcoTotal = soldIcoTotal.add(total);\n\n            depositToVested(recipient, total);\n        } else {\n            if (state == CrowdState.ICO) {\n                total = total.mul(percIco).div(100).add(total);\n\n                require(\n                    soldIcoTotal.add(total) <= icoCap,\n                    \"Veelancing: ICO Cap excedeed\"\n                );\n\n                if (getWalletStatus(recipient) == WalletStatus.Unblocked) {\n                    setWalletStatus(recipient, WalletStatus.Blocked);\n                }\n\n                soldIcoTotal = soldIcoTotal.add(total);\n            }\n\n            _mint(recipient, total);\n            emit Deposit(recipient, total);\n        }\n    }\n\n    function transfer(address recipient, uint256 amount)\n        public\n        virtual\n        override(ERC20)\n        returns (bool)\n    {\n        if (!hasRole(ADMIN_ROLE, _msgSender())) {\n            require(state == CrowdState.Finished, \"Veelancing: ICO season\");\n        }\n\n        require(\n            getWalletStatus(_msgSender()) == WalletStatus.Unblocked,\n            \"Veelancing: Wallet is blocked\"\n        );\n\n        _transfer(_msgSender(), recipient, amount);\n        return true;\n    }\n\n    function startPreIco() public virtual {\n        require(\n            hasRole(ADMIN_ROLE, _msgSender()),\n            \"Veelancing: Only the admin can start the Pre ICO\"\n        );\n        state = CrowdState.PreICO;\n    }\n\n    function startIco() public virtual {\n        require(\n            hasRole(ADMIN_ROLE, _msgSender()),\n            \"Veelancing: Only the admin can start the ICO\"\n        );\n        state = CrowdState.ICO;\n    }\n\n    function endIco() public virtual {\n        require(state == CrowdState.ICO, \"Veelancing: ICO already ended.\");\n        require(\n            hasRole(ADMIN_ROLE, _msgSender()),\n            \"Veelancing: Only the admin can end the ICO\"\n        );\n\n        uint256 leftTokens = icoCap.sub(soldIcoTotal);\n        state = CrowdState.Finished;\n        endIcoDate = block.timestamp;\n\n        if (leftTokens > 0) {\n            deposit(_msgSender(), leftTokens);\n        }\n    }\n\n    function createBonus(address recipient, uint256 amount) public virtual {\n        require(\n            hasRole(ADMIN_ROLE, _msgSender()),\n            \"Veelancing: Only the admin can create bonuses\"\n        );\n\n        _setupRole(BONUS_ICO_ROLE, recipient);\n        depositToVested(recipient, amount);\n        soldIcoTotal = soldIcoTotal.add(amount);\n    }\n\n    receive() external payable virtual {\n        uint256 weiAmount = msg.value;\n        uint256 tokens = weiAmount.mul(basePrice).div(1 ether);\n        deposit(_msgSender(), tokens);\n    }\n\n    function _beforeTokenTransfer(\n        address from,\n        address to,\n        uint256 amount\n    ) internal virtual override(ERC20) {\n        super._beforeTokenTransfer(from, to, amount);\n\n        if (from == address(0)) {\n            require(\n                totalSupply().add(amount) <= getCap(),\n                \"Veelancing: Cap exceeded\"\n            );\n        }\n    }\n}\n",
  "sourcePath": "/Users/daniel/Projects/VeelancingCoin/contracts/Veelancing.sol",
  "compiler": {
    "name": "solc",
    "version": "0.8.11+commit.d7f03943.Emscripten.clang"
  },
  "schemaVersion": "3.4.4",
  "updatedAt": "2022-01-17T18:55:39.345Z",
  "devdoc": {
    "kind": "dev",
    "methods": {
      "allowance(address,address)": {
        "details": "See {IERC20-allowance}."
      },
      "approve(address,uint256)": {
        "details": "See {IERC20-approve}. Requirements: - `spender` cannot be the zero address."
      },
      "balanceOf(address)": {
        "details": "See {IERC20-balanceOf}."
      },
      "decimals()": {
        "details": "Returns the number of decimals used to get its user representation. For example, if `decimals` equals `2`, a balance of `505` tokens should be displayed to a user as `5,05` (`505 / 10 ** 2`). Tokens usually opt for a value of 18, imitating the relationship between Ether and Wei. This is the value {ERC20} uses, unless this function is overridden; NOTE: This information is only used for _display_ purposes: it in no way affects any of the arithmetic of the contract, including {IERC20-balanceOf} and {IERC20-transfer}."
      },
      "decreaseAllowance(address,uint256)": {
        "details": "Atomically decreases the allowance granted to `spender` by the caller. This is an alternative to {approve} that can be used as a mitigation for problems described in {IERC20-approve}. Emits an {Approval} event indicating the updated allowance. Requirements: - `spender` cannot be the zero address. - `spender` must have allowance for the caller of at least `subtractedValue`."
      },
      "getRoleAdmin(bytes32)": {
        "details": "Returns the admin role that controls `role`. See {grantRole} and {revokeRole}. To change a role's admin, use {_setRoleAdmin}."
      },
      "grantRole(bytes32,address)": {
        "details": "Grants `role` to `account`. If `account` had not been already granted `role`, emits a {RoleGranted} event. Requirements: - the caller must have ``role``'s admin role."
      },
      "hasRole(bytes32,address)": {
        "details": "Returns `true` if `account` has been granted `role`."
      },
      "increaseAllowance(address,uint256)": {
        "details": "Atomically increases the allowance granted to `spender` by the caller. This is an alternative to {approve} that can be used as a mitigation for problems described in {IERC20-approve}. Emits an {Approval} event indicating the updated allowance. Requirements: - `spender` cannot be the zero address."
      },
      "name()": {
        "details": "Returns the name of the token."
      },
      "renounceRole(bytes32,address)": {
        "details": "Revokes `role` from the calling account. Roles are often managed via {grantRole} and {revokeRole}: this function's purpose is to provide a mechanism for accounts to lose their privileges if they are compromised (such as when a trusted device is misplaced). If the calling account had been granted `role`, emits a {RoleRevoked} event. Requirements: - the caller must be `account`."
      },
      "revokeRole(bytes32,address)": {
        "details": "Revokes `role` from `account`. If `account` had been granted `role`, emits a {RoleRevoked} event. Requirements: - the caller must have ``role``'s admin role."
      },
      "supportsInterface(bytes4)": {
        "details": "See {IERC165-supportsInterface}."
      },
      "symbol()": {
        "details": "Returns the symbol of the token, usually a shorter version of the name."
      },
      "totalSupply()": {
        "details": "See {IERC20-totalSupply}."
      },
      "transfer(address,uint256)": {
        "details": "See {IERC20-transfer}. Requirements: - `recipient` cannot be the zero address. - the caller must have a balance of at least `amount`."
      },
      "transferFrom(address,address,uint256)": {
        "details": "See {IERC20-transferFrom}. Emits an {Approval} event indicating the updated allowance. This is not required by the EIP. See the note at the beginning of {ERC20}. Requirements: - `sender` and `recipient` cannot be the zero address. - `sender` must have a balance of at least `amount`. - the caller must have allowance for ``sender``'s tokens of at least `amount`."
      }
    },
    "version": 1
  },
  "userdoc": {
    "kind": "user",
    "methods": {},
    "version": 1
  }
}