{
  "contractName": "VeelancingToken",
  "abi": [
    {
      "inputs": [
        {
          "internalType": "string",
          "name": "name",
          "type": "string"
        },
        {
          "internalType": "string",
          "name": "symbol",
          "type": "string"
        },
        {
          "internalType": "address",
          "name": "Liquidity",
          "type": "address"
        },
        {
          "internalType": "uint256",
          "name": "volume_liquidity",
          "type": "uint256"
        },
        {
          "internalType": "uint256",
          "name": "percIco_",
          "type": "uint256"
        },
        {
          "internalType": "uint256",
          "name": "percPreIco_",
          "type": "uint256"
        },
        {
          "internalType": "uint256",
          "name": "icoCap_",
          "type": "uint256"
        },
        {
          "internalType": "address",
          "name": "owner",
          "type": "address"
        }
      ],
      "stateMutability": "nonpayable",
      "type": "constructor"
    },
    {
      "anonymous": false,
      "inputs": [
        {
          "indexed": true,
          "internalType": "address",
          "name": "owner",
          "type": "address"
        },
        {
          "indexed": true,
          "internalType": "address",
          "name": "spender",
          "type": "address"
        },
        {
          "indexed": false,
          "internalType": "uint256",
          "name": "value",
          "type": "uint256"
        }
      ],
      "name": "Approval",
      "type": "event"
    },
    {
      "anonymous": false,
      "inputs": [
        {
          "indexed": true,
          "internalType": "address",
          "name": "to",
          "type": "address"
        },
        {
          "indexed": false,
          "internalType": "uint256",
          "name": "value",
          "type": "uint256"
        }
      ],
      "name": "Deposit",
      "type": "event"
    },
    {
      "anonymous": false,
      "inputs": [
        {
          "indexed": true,
          "internalType": "address",
          "name": "to",
          "type": "address"
        },
        {
          "indexed": false,
          "internalType": "uint256",
          "name": "value",
          "type": "uint256"
        }
      ],
      "name": "DepositToVested",
      "type": "event"
    },
    {
      "anonymous": false,
      "inputs": [
        {
          "indexed": true,
          "internalType": "bytes32",
          "name": "role",
          "type": "bytes32"
        },
        {
          "indexed": true,
          "internalType": "bytes32",
          "name": "previousAdminRole",
          "type": "bytes32"
        },
        {
          "indexed": true,
          "internalType": "bytes32",
          "name": "newAdminRole",
          "type": "bytes32"
        }
      ],
      "name": "RoleAdminChanged",
      "type": "event"
    },
    {
      "anonymous": false,
      "inputs": [
        {
          "indexed": true,
          "internalType": "bytes32",
          "name": "role",
          "type": "bytes32"
        },
        {
          "indexed": true,
          "internalType": "address",
          "name": "account",
          "type": "address"
        },
        {
          "indexed": true,
          "internalType": "address",
          "name": "sender",
          "type": "address"
        }
      ],
      "name": "RoleGranted",
      "type": "event"
    },
    {
      "anonymous": false,
      "inputs": [
        {
          "indexed": true,
          "internalType": "bytes32",
          "name": "role",
          "type": "bytes32"
        },
        {
          "indexed": true,
          "internalType": "address",
          "name": "account",
          "type": "address"
        },
        {
          "indexed": true,
          "internalType": "address",
          "name": "sender",
          "type": "address"
        }
      ],
      "name": "RoleRevoked",
      "type": "event"
    },
    {
      "anonymous": false,
      "inputs": [
        {
          "indexed": true,
          "internalType": "address",
          "name": "from",
          "type": "address"
        },
        {
          "indexed": true,
          "internalType": "address",
          "name": "to",
          "type": "address"
        },
        {
          "indexed": false,
          "internalType": "uint256",
          "name": "value",
          "type": "uint256"
        }
      ],
      "name": "Transfer",
      "type": "event"
    },
    {
      "anonymous": false,
      "inputs": [
        {
          "indexed": true,
          "internalType": "address",
          "name": "to",
          "type": "address"
        },
        {
          "indexed": false,
          "internalType": "uint256",
          "name": "value",
          "type": "uint256"
        }
      ],
      "name": "WithdrawFromVested",
      "type": "event"
    },
    {
      "inputs": [],
      "name": "ADMIN_ROLE",
      "outputs": [
        {
          "internalType": "bytes32",
          "name": "",
          "type": "bytes32"
        }
      ],
      "stateMutability": "view",
      "type": "function"
    },
    {
      "inputs": [],
      "name": "DEFAULT_ADMIN_ROLE",
      "outputs": [
        {
          "internalType": "bytes32",
          "name": "",
          "type": "bytes32"
        }
      ],
      "stateMutability": "view",
      "type": "function"
    },
    {
      "inputs": [],
      "name": "INVESTOR_ROLE",
      "outputs": [
        {
          "internalType": "bytes32",
          "name": "",
          "type": "bytes32"
        }
      ],
      "stateMutability": "view",
      "type": "function"
    },
    {
      "inputs": [],
      "name": "TEAM_ROLE",
      "outputs": [
        {
          "internalType": "bytes32",
          "name": "",
          "type": "bytes32"
        }
      ],
      "stateMutability": "view",
      "type": "function"
    },
    {
      "inputs": [
        {
          "internalType": "address",
          "name": "owner",
          "type": "address"
        },
        {
          "internalType": "address",
          "name": "spender",
          "type": "address"
        }
      ],
      "name": "allowance",
      "outputs": [
        {
          "internalType": "uint256",
          "name": "",
          "type": "uint256"
        }
      ],
      "stateMutability": "view",
      "type": "function"
    },
    {
      "inputs": [
        {
          "internalType": "address",
          "name": "spender",
          "type": "address"
        },
        {
          "internalType": "uint256",
          "name": "amount",
          "type": "uint256"
        }
      ],
      "name": "approve",
      "outputs": [
        {
          "internalType": "bool",
          "name": "",
          "type": "bool"
        }
      ],
      "stateMutability": "nonpayable",
      "type": "function"
    },
    {
      "inputs": [
        {
          "internalType": "address",
          "name": "account",
          "type": "address"
        }
      ],
      "name": "balanceOf",
      "outputs": [
        {
          "internalType": "uint256",
          "name": "",
          "type": "uint256"
        }
      ],
      "stateMutability": "view",
      "type": "function"
    },
    {
      "inputs": [],
      "name": "basePrice",
      "outputs": [
        {
          "internalType": "uint256",
          "name": "",
          "type": "uint256"
        }
      ],
      "stateMutability": "view",
      "type": "function"
    },
    {
      "inputs": [],
      "name": "decimals",
      "outputs": [
        {
          "internalType": "uint8",
          "name": "",
          "type": "uint8"
        }
      ],
      "stateMutability": "view",
      "type": "function"
    },
    {
      "inputs": [
        {
          "internalType": "address",
          "name": "spender",
          "type": "address"
        },
        {
          "internalType": "uint256",
          "name": "subtractedValue",
          "type": "uint256"
        }
      ],
      "name": "decreaseAllowance",
      "outputs": [
        {
          "internalType": "bool",
          "name": "",
          "type": "bool"
        }
      ],
      "stateMutability": "nonpayable",
      "type": "function"
    },
    {
      "inputs": [
        {
          "internalType": "bytes32",
          "name": "role",
          "type": "bytes32"
        }
      ],
      "name": "getRoleAdmin",
      "outputs": [
        {
          "internalType": "bytes32",
          "name": "",
          "type": "bytes32"
        }
      ],
      "stateMutability": "view",
      "type": "function"
    },
    {
      "inputs": [
        {
          "internalType": "bytes32",
          "name": "role",
          "type": "bytes32"
        },
        {
          "internalType": "address",
          "name": "account",
          "type": "address"
        }
      ],
      "name": "grantRole",
      "outputs": [],
      "stateMutability": "nonpayable",
      "type": "function"
    },
    {
      "inputs": [
        {
          "internalType": "bytes32",
          "name": "role",
          "type": "bytes32"
        },
        {
          "internalType": "address",
          "name": "account",
          "type": "address"
        }
      ],
      "name": "hasRole",
      "outputs": [
        {
          "internalType": "bool",
          "name": "",
          "type": "bool"
        }
      ],
      "stateMutability": "view",
      "type": "function"
    },
    {
      "inputs": [
        {
          "internalType": "address",
          "name": "spender",
          "type": "address"
        },
        {
          "internalType": "uint256",
          "name": "addedValue",
          "type": "uint256"
        }
      ],
      "name": "increaseAllowance",
      "outputs": [
        {
          "internalType": "bool",
          "name": "",
          "type": "bool"
        }
      ],
      "stateMutability": "nonpayable",
      "type": "function"
    },
    {
      "inputs": [],
      "name": "name",
      "outputs": [
        {
          "internalType": "string",
          "name": "",
          "type": "string"
        }
      ],
      "stateMutability": "view",
      "type": "function"
    },
    {
      "inputs": [
        {
          "internalType": "bytes32",
          "name": "role",
          "type": "bytes32"
        },
        {
          "internalType": "address",
          "name": "account",
          "type": "address"
        }
      ],
      "name": "renounceRole",
      "outputs": [],
      "stateMutability": "nonpayable",
      "type": "function"
    },
    {
      "inputs": [
        {
          "internalType": "bytes32",
          "name": "role",
          "type": "bytes32"
        },
        {
          "internalType": "address",
          "name": "account",
          "type": "address"
        }
      ],
      "name": "revokeRole",
      "outputs": [],
      "stateMutability": "nonpayable",
      "type": "function"
    },
    {
      "inputs": [
        {
          "internalType": "bytes4",
          "name": "interfaceId",
          "type": "bytes4"
        }
      ],
      "name": "supportsInterface",
      "outputs": [
        {
          "internalType": "bool",
          "name": "",
          "type": "bool"
        }
      ],
      "stateMutability": "view",
      "type": "function"
    },
    {
      "inputs": [],
      "name": "symbol",
      "outputs": [
        {
          "internalType": "string",
          "name": "",
          "type": "string"
        }
      ],
      "stateMutability": "view",
      "type": "function"
    },
    {
      "inputs": [],
      "name": "totalSupply",
      "outputs": [
        {
          "internalType": "uint256",
          "name": "",
          "type": "uint256"
        }
      ],
      "stateMutability": "view",
      "type": "function"
    },
    {
      "inputs": [
        {
          "internalType": "address",
          "name": "sender",
          "type": "address"
        },
        {
          "internalType": "address",
          "name": "recipient",
          "type": "address"
        },
        {
          "internalType": "uint256",
          "name": "amount",
          "type": "uint256"
        }
      ],
      "name": "transferFrom",
      "outputs": [
        {
          "internalType": "bool",
          "name": "",
          "type": "bool"
        }
      ],
      "stateMutability": "nonpayable",
      "type": "function"
    },
    {
      "stateMutability": "payable",
      "type": "receive"
    },
    {
      "inputs": [],
      "name": "getIcoCap",
      "outputs": [
        {
          "internalType": "uint256",
          "name": "",
          "type": "uint256"
        }
      ],
      "stateMutability": "nonpayable",
      "type": "function"
    },
    {
      "inputs": [],
      "name": "getIcoSold",
      "outputs": [
        {
          "internalType": "uint256",
          "name": "",
          "type": "uint256"
        }
      ],
      "stateMutability": "nonpayable",
      "type": "function"
    },
    {
      "inputs": [],
      "name": "getCurrentStatus",
      "outputs": [
        {
          "internalType": "string",
          "name": "",
          "type": "string"
        }
      ],
      "stateMutability": "nonpayable",
      "type": "function"
    },
    {
      "inputs": [
        {
          "internalType": "address",
          "name": "to",
          "type": "address"
        }
      ],
      "name": "getVestedAllowedPerc",
      "outputs": [
        {
          "internalType": "uint256",
          "name": "",
          "type": "uint256"
        }
      ],
      "stateMutability": "nonpayable",
      "type": "function"
    },
    {
      "inputs": [
        {
          "internalType": "address",
          "name": "to",
          "type": "address"
        }
      ],
      "name": "getVestedTotalBalance",
      "outputs": [
        {
          "internalType": "uint256",
          "name": "",
          "type": "uint256"
        }
      ],
      "stateMutability": "nonpayable",
      "type": "function"
    },
    {
      "inputs": [
        {
          "internalType": "address",
          "name": "to",
          "type": "address"
        }
      ],
      "name": "getVestedAllowedBalance",
      "outputs": [
        {
          "internalType": "uint256",
          "name": "",
          "type": "uint256"
        }
      ],
      "stateMutability": "nonpayable",
      "type": "function"
    },
    {
      "inputs": [
        {
          "internalType": "uint256",
          "name": "amount",
          "type": "uint256"
        }
      ],
      "name": "withdrawFromVested",
      "outputs": [],
      "stateMutability": "nonpayable",
      "type": "function"
    },
    {
      "inputs": [
        {
          "internalType": "address",
          "name": "recipient",
          "type": "address"
        },
        {
          "internalType": "uint256",
          "name": "amount",
          "type": "uint256"
        }
      ],
      "name": "depositToVested",
      "outputs": [],
      "stateMutability": "nonpayable",
      "type": "function"
    },
    {
      "inputs": [
        {
          "internalType": "address",
          "name": "recipient",
          "type": "address"
        },
        {
          "internalType": "uint256",
          "name": "amount",
          "type": "uint256"
        }
      ],
      "name": "deposit",
      "outputs": [],
      "stateMutability": "nonpayable",
      "type": "function"
    },
    {
      "inputs": [
        {
          "internalType": "address",
          "name": "recipient",
          "type": "address"
        },
        {
          "internalType": "uint256",
          "name": "amount",
          "type": "uint256"
        }
      ],
      "name": "transfer",
      "outputs": [
        {
          "internalType": "bool",
          "name": "",
          "type": "bool"
        }
      ],
      "stateMutability": "nonpayable",
      "type": "function"
    },
    {
      "inputs": [],
      "name": "startPreIco",
      "outputs": [],
      "stateMutability": "nonpayable",
      "type": "function"
    },
    {
      "inputs": [],
      "name": "startIco",
      "outputs": [],
      "stateMutability": "nonpayable",
      "type": "function"
    },
    {
      "inputs": [],
      "name": "endIco",
      "outputs": [],
      "stateMutability": "nonpayable",
      "type": "function"
    }
  ],
  "bytecode": "0x60806040523480156200001157600080fd5b5060405162004ab638038062004ab6833981810160405281019062000037919062000c7f565b878781600390805190602001906200005192919062000852565b5080600490805190602001906200006a92919062000852565b50505083600681905550826007819055508160088190555060006009819055506000601660006101000a81548160ff02191690836003811115620000b357620000b262000d86565b5b02179055506276a700600c819055506014600b8190555060405180602001604052807381cc9ecad6a8d9367b18ad892d5f7dd1212010a773ffffffffffffffffffffffffffffffffffffffff1673ffffffffffffffffffffffffffffffffffffffff1681525060119060016200012b929190620008e3565b506040518060200160405280620f424062ffffff1681525060129060016200015592919062000972565b50601e601381905550629e340060148190555060405180602001604052807381cc9ecad6a8d9367b18ad892d5f7dd1212010a773ffffffffffffffffffffffffffffffffffffffff1673ffffffffffffffffffffffffffffffffffffffff16815250600d906001620001c9929190620008e3565b50604051806020016040528061271061ffff16815250600e906001620001f1929190620009cb565b506019600f8190555062ed4e00601081905550620002397fa49807205ce4d355092ef5a8a18f56e8913cf4a201fbe287825b095693c217756000801b620004a960201b60201c565b6200026b7fa49807205ce4d355092ef5a8a18f56e8913cf4a201fbe287825b095693c21775826200050760201b60201c565b6200027d86866200051d60201b60201c565b60005b600d805490508110156200038b57620003017fb165298935924f540e4181c03493a5d686c54a0aaeb3f6216de85b7ffbba7738600d8381548110620002ca57620002c962000db5565b5b9060005260206000200160009054906101000a900473ffffffffffffffffffffffffffffffffffffffff166200050760201b60201c565b62000375600d82815481106200031c576200031b62000db5565b5b9060005260206000200160009054906101000a900473ffffffffffffffffffffffffffffffffffffffff16600e83815481106200035e576200035d62000db5565b5b90600052602060002001546200051d60201b60201c565b8080620003829062000e13565b91505062000280565b5060005b6011805490508110156200049a57620004107f5146a08baf902532d0ee2f909971144f12ca32651cd70cbee1117cddfb3b3b3360118381548110620003d957620003d862000db5565b5b9060005260206000200160009054906101000a900473ffffffffffffffffffffffffffffffffffffffff166200050760201b60201c565b62000484601182815481106200042b576200042a62000db5565b5b9060005260206000200160009054906101000a900473ffffffffffffffffffffffffffffffffffffffff16601283815481106200046d576200046c62000db5565b5b90600052602060002001546200051d60201b60201c565b8080620004919062000e13565b9150506200038f565b50505050505050505062000f51565b80620004bb83620006b560201b60201c565b837fbd79b86ffe0ab8e8776151514217cd7cacd52c909f66475c3af44e129f0b00ff60405160405180910390a48060056000848152602001908152602001600020600101819055505050565b620005198282620006d560201b60201c565b5050565b6200057981601560008573ffffffffffffffffffffffffffffffffffffffff1673ffffffffffffffffffffffffffffffffffffffff16815260200190815260200160002060020154620007c760201b62001f431790919060201c565b601560008473ffffffffffffffffffffffffffffffffffffffff1673ffffffffffffffffffffffffffffffffffffffff168152602001908152602001600020600201819055506200061b81601560008573ffffffffffffffffffffffffffffffffffffffff1673ffffffffffffffffffffffffffffffffffffffff16815260200190815260200160002060010154620007c760201b62001f431790919060201c565b601560008473ffffffffffffffffffffffffffffffffffffffff1673ffffffffffffffffffffffffffffffffffffffff168152602001908152602001600020600101819055508173ffffffffffffffffffffffffffffffffffffffff167f231472cdefc3c25438a167454431d6b08cddc40dcc454abbb9d8d8ca98ebbcd282604051620006a9919062000e72565b60405180910390a25050565b600060056000838152602001908152602001600020600101549050919050565b620006e78282620007df60201b60201c565b620007c35760016005600084815260200190815260200160002060000160008373ffffffffffffffffffffffffffffffffffffffff1673ffffffffffffffffffffffffffffffffffffffff16815260200190815260200160002060006101000a81548160ff021916908315150217905550620007686200084a60201b60201c565b73ffffffffffffffffffffffffffffffffffffffff168173ffffffffffffffffffffffffffffffffffffffff16837f2f8788117e7eff1d82e926ec794901d17c78024a50270940304540a733656f0d60405160405180910390a45b5050565b60008183620007d7919062000e8f565b905092915050565b60006005600084815260200190815260200160002060000160008373ffffffffffffffffffffffffffffffffffffffff1673ffffffffffffffffffffffffffffffffffffffff16815260200190815260200160002060009054906101000a900460ff16905092915050565b600033905090565b828054620008609062000f1b565b90600052602060002090601f016020900481019282620008845760008555620008d0565b82601f106200089f57805160ff1916838001178555620008d0565b82800160010185558215620008d0579182015b82811115620008cf578251825591602001919060010190620008b2565b5b509050620008df919062000a23565b5090565b8280548282559060005260206000209081019282156200095f579160200282015b828111156200095e5782518260006101000a81548173ffffffffffffffffffffffffffffffffffffffff021916908373ffffffffffffffffffffffffffffffffffffffff1602179055509160200191906001019062000904565b5b5090506200096e919062000a23565b5090565b828054828255906000526020600020908101928215620009b8579160200282015b82811115620009b7578251829062ffffff1690559160200191906001019062000993565b5b509050620009c7919062000a23565b5090565b82805482825590600052602060002090810192821562000a10579160200282015b8281111562000a0f578251829061ffff16905591602001919060010190620009ec565b5b50905062000a1f919062000a23565b5090565b5b8082111562000a3e57600081600090555060010162000a24565b5090565b6000604051905090565b600080fd5b600080fd5b600080fd5b600080fd5b6000601f19601f8301169050919050565b7f4e487b7100000000000000000000000000000000000000000000000000000000600052604160045260246000fd5b62000aab8262000a60565b810181811067ffffffffffffffff8211171562000acd5762000acc62000a71565b5b80604052505050565b600062000ae262000a42565b905062000af0828262000aa0565b919050565b600067ffffffffffffffff82111562000b135762000b1262000a71565b5b62000b1e8262000a60565b9050602081019050919050565b60005b8381101562000b4b57808201518184015260208101905062000b2e565b8381111562000b5b576000848401525b50505050565b600062000b7862000b728462000af5565b62000ad6565b90508281526020810184848401111562000b975762000b9662000a5b565b5b62000ba484828562000b2b565b509392505050565b600082601f83011262000bc45762000bc362000a56565b5b815162000bd684826020860162000b61565b91505092915050565b600073ffffffffffffffffffffffffffffffffffffffff82169050919050565b600062000c0c8262000bdf565b9050919050565b62000c1e8162000bff565b811462000c2a57600080fd5b50565b60008151905062000c3e8162000c13565b92915050565b6000819050919050565b62000c598162000c44565b811462000c6557600080fd5b50565b60008151905062000c798162000c4e565b92915050565b600080600080600080600080610100898b03121562000ca35762000ca262000a4c565b5b600089015167ffffffffffffffff81111562000cc45762000cc362000a51565b5b62000cd28b828c0162000bac565b985050602089015167ffffffffffffffff81111562000cf65762000cf562000a51565b5b62000d048b828c0162000bac565b975050604062000d178b828c0162000c2d565b965050606062000d2a8b828c0162000c68565b955050608062000d3d8b828c0162000c68565b94505060a062000d508b828c0162000c68565b93505060c062000d638b828c0162000c68565b92505060e062000d768b828c0162000c2d565b9150509295985092959890939650565b7f4e487b7100000000000000000000000000000000000000000000000000000000600052602160045260246000fd5b7f4e487b7100000000000000000000000000000000000000000000000000000000600052603260045260246000fd5b7f4e487b7100000000000000000000000000000000000000000000000000000000600052601160045260246000fd5b600062000e208262000c44565b91507fffffffffffffffffffffffffffffffffffffffffffffffffffffffffffffffff82141562000e565762000e5562000de4565b5b600182019050919050565b62000e6c8162000c44565b82525050565b600060208201905062000e89600083018462000e61565b92915050565b600062000e9c8262000c44565b915062000ea98362000c44565b9250827fffffffffffffffffffffffffffffffffffffffffffffffffffffffffffffffff0382111562000ee15762000ee062000de4565b5b828201905092915050565b7f4e487b7100000000000000000000000000000000000000000000000000000000600052602260045260246000fd5b6000600282049050600182168062000f3457607f821691505b6020821081141562000f4b5762000f4a62000eec565b5b50919050565b613b558062000f616000396000f3fe6080604052600436106101fd5760003560e01c806375b238fc1161010d578063a9059cbb116100a0578063c807cb251161006f578063c807cb25146107e2578063d547741f1461080b578063dd62ed3e14610834578063e657807b14610871578063ef6e312d1461088857610256565b8063a9059cbb1461073a578063b04fd84514610777578063c06d1272146107a0578063c7876ea4146107b757610256565b806395d89b41116100dc57806395d89b411461067c578063a217fddf146106a7578063a3dd2619146106d2578063a457c2d7146106fd57610256565b806375b238fc146105d257806376082a5e146105fd57806389311e6f1461062857806391d148541461063f57610256565b8063313ce5671161019057806347fcfb7e1161015f57806347fcfb7e146104c557806349d5e604146105025780634cb84b9a1461052d57806353ab1a7c1461055857806370a082311461059557610256565b8063313ce5671461040b57806336568abe14610436578063395093511461045f57806347e7ef241461049c57610256565b806323b872dd116101cc57806323b872dd1461032b578063248a9ca3146103685780632c083c97146103a55780632f2ff15d146103e257610256565b806301ffc9a71461025b57806306fdde0314610298578063095ea7b3146102c357806318160ddd1461030057610256565b36610256576000349050600061023f670de0b6b3a764000061023168056bc75e2d63100000856108b390919063ffffffff16565b6108c990919063ffffffff16565b905061025261024c6108df565b826108e7565b5050005b600080fd5b34801561026757600080fd5b50610282600480360381019061027d9190612a85565b610b32565b60405161028f9190612acd565b60405180910390f35b3480156102a457600080fd5b506102ad610bac565b6040516102ba9190612b81565b60405180910390f35b3480156102cf57600080fd5b506102ea60048036038101906102e59190612c37565b610c3e565b6040516102f79190612acd565b60405180910390f35b34801561030c57600080fd5b50610315610c5c565b6040516103229190612c86565b60405180910390f35b34801561033757600080fd5b50610352600480360381019061034d9190612ca1565b610c66565b60405161035f9190612acd565b60405180910390f35b34801561037457600080fd5b5061038f600480360381019061038a9190612d2a565b610d67565b60405161039c9190612d66565b60405180910390f35b3480156103b157600080fd5b506103cc60048036038101906103c79190612d81565b610d87565b6040516103d99190612c86565b60405180910390f35b3480156103ee57600080fd5b5061040960048036038101906104049190612dae565b610eea565b005b34801561041757600080fd5b50610420610f13565b60405161042d9190612e0a565b60405180910390f35b34801561044257600080fd5b5061045d60048036038101906104589190612dae565b610f1c565b005b34801561046b57600080fd5b5061048660048036038101906104819190612c37565b610f9f565b6040516104939190612acd565b60405180910390f35b3480156104a857600080fd5b506104c360048036038101906104be9190612c37565b6108e7565b005b3480156104d157600080fd5b506104ec60048036038101906104e79190612d81565b61104b565b6040516104f99190612c86565b60405180910390f35b34801561050e57600080fd5b5061051761113d565b6040516105249190612d66565b60405180910390f35b34801561053957600080fd5b50610542611161565b60405161054f9190612c86565b60405180910390f35b34801561056457600080fd5b5061057f600480360381019061057a9190612d81565b61116b565b60405161058c9190612c86565b60405180910390f35b3480156105a157600080fd5b506105bc60048036038101906105b79190612d81565b61125a565b6040516105c99190612c86565b60405180910390f35b3480156105de57600080fd5b506105e76112a2565b6040516105f49190612d66565b60405180910390f35b34801561060957600080fd5b506106126112c6565b60405161061f9190612d66565b60405180910390f35b34801561063457600080fd5b5061063d6112ea565b005b34801561064b57600080fd5b5061066660048036038101906106619190612dae565b611387565b6040516106739190612acd565b60405180910390f35b34801561068857600080fd5b506106916113f2565b60405161069e9190612b81565b60405180910390f35b3480156106b357600080fd5b506106bc611484565b6040516106c99190612d66565b60405180910390f35b3480156106de57600080fd5b506106e761148b565b6040516106f49190612b81565b60405180910390f35b34801561070957600080fd5b50610724600480360381019061071f9190612c37565b611634565b6040516107319190612acd565b60405180910390f35b34801561074657600080fd5b50610761600480360381019061075c9190612c37565b611728565b60405161076e9190612acd565b60405180910390f35b34801561078357600080fd5b5061079e60048036038101906107999190612c37565b6117f1565b005b3480156107ac57600080fd5b506107b5611979565b005b3480156107c357600080fd5b506107cc611a16565b6040516107d99190612c86565b60405180910390f35b3480156107ee57600080fd5b5061080960048036038101906108049190612e25565b611a23565b005b34801561081757600080fd5b50610832600480360381019061082d9190612dae565b611d38565b005b34801561084057600080fd5b5061085b60048036038101906108569190612e52565b611d61565b6040516108689190612c86565b60405180910390f35b34801561087d57600080fd5b50610886611de8565b005b34801561089457600080fd5b5061089d611f39565b6040516108aa9190612c86565b60405180910390f35b600081836108c19190612ec1565b905092915050565b600081836108d79190612f4a565b905092915050565b600033905090565b600081905060016003811115610900576108ff612f7b565b5b601660009054906101000a900460ff16600381111561092257610921612f7b565b5b14156109e757610962816109546064610946600754866108b390919063ffffffff16565b6108c990919063ffffffff16565b611f4390919063ffffffff16565b905060085461097c82600954611f4390919063ffffffff16565b11156109bd576040517f08c379a00000000000000000000000000000000000000000000000000000000081526004016109b490612ff6565b60405180910390fd5b6109d281600954611f4390919063ffffffff16565b6009819055506109e283826117f1565b610b2d565b600260038111156109fb576109fa612f7b565b5b601660009054906101000a900460ff166003811115610a1d57610a1c612f7b565b5b1415610ad457610a5d81610a4f6064610a41600654866108b390919063ffffffff16565b6108c990919063ffffffff16565b611f4390919063ffffffff16565b9050600854610a7782600954611f4390919063ffffffff16565b1115610ab8576040517f08c379a0000000000000000000000000000000000000000000000000000000008152600401610aaf90612ff6565b60405180910390fd5b610acd81600954611f4390919063ffffffff16565b6009819055505b610ade8382611f59565b8273ffffffffffffffffffffffffffffffffffffffff167fe1fffcc4923d04b559f4d29a8bfc6cda04eb5b0d3c460751c2402c5c5cc9109c82604051610b249190612c86565b60405180910390a25b505050565b60007f7965db0b000000000000000000000000000000000000000000000000000000007bffffffffffffffffffffffffffffffffffffffffffffffffffffffff1916827bffffffffffffffffffffffffffffffffffffffffffffffffffffffff19161480610ba55750610ba4826120ad565b5b9050919050565b606060038054610bbb90613045565b80601f0160208091040260200160405190810160405280929190818152602001828054610be790613045565b8015610c345780601f10610c0957610100808354040283529160200191610c34565b820191906000526020600020905b815481529060010190602001808311610c1757829003601f168201915b5050505050905090565b6000610c52610c4b6108df565b8484612117565b6001905092915050565b6000600254905090565b6000610c738484846122e2565b6000600160008673ffffffffffffffffffffffffffffffffffffffff1673ffffffffffffffffffffffffffffffffffffffff1681526020019081526020016000206000610cbe6108df565b73ffffffffffffffffffffffffffffffffffffffff1673ffffffffffffffffffffffffffffffffffffffff16815260200190815260200160002054905082811015610d3e576040517f08c379a0000000000000000000000000000000000000000000000000000000008152600401610d35906130e9565b60405180910390fd5b610d5b85610d4a6108df565b8584610d569190613109565b612117565b60019150509392505050565b600060056000838152602001908152602001600020600101549050919050565b600080600a5490506000600380811115610da457610da3612f7b565b5b601660009054906101000a900460ff166003811115610dc657610dc5612f7b565b5b14610dd657600092505050610ee5565b5b610e017f5146a08baf902532d0ee2f909971144f12ca32651cd70cbee1117cddfb3b3b3385611387565b15610e3957610e1b60135482611f4390919063ffffffff16565b9050610e3260145483611f4390919063ffffffff16565b9150610ecb565b610e637fb165298935924f540e4181c03493a5d686c54a0aaeb3f6216de85b7ffbba773885611387565b15610e9b57610e7d600f5482611f4390919063ffffffff16565b9050610e9460105483611f4390919063ffffffff16565b9150610eca565b610eb0600b5482611f4390919063ffffffff16565b9050610ec7600c5483611f4390919063ffffffff16565b91505b5b4282108015610edb575060648111155b610dd75780925050505b919050565b610ef382610d67565b610f0481610eff6108df565b612561565b610f0e83836125fe565b505050565b60006012905090565b610f246108df565b73ffffffffffffffffffffffffffffffffffffffff168173ffffffffffffffffffffffffffffffffffffffff1614610f91576040517f08c379a0000000000000000000000000000000000000000000000000000000008152600401610f88906131af565b60405180910390fd5b610f9b82826126df565b5050565b6000611041610fac6108df565b848460016000610fba6108df565b73ffffffffffffffffffffffffffffffffffffffff1673ffffffffffffffffffffffffffffffffffffffff16815260200190815260200160002060008873ffffffffffffffffffffffffffffffffffffffff1673ffffffffffffffffffffffffffffffffffffffff1681526020019081526020016000205461103c91906131cf565b612117565b6001905092915050565b6000806000600a90505b606481116110d9576110c3601560008673ffffffffffffffffffffffffffffffffffffffff1673ffffffffffffffffffffffffffffffffffffffff16815260200190815260200160002060000160008381526020019081526020016000205483611f4390919063ffffffff16565b9150600a816110d291906131cf565b9050611055565b506000601560008573ffffffffffffffffffffffffffffffffffffffff1673ffffffffffffffffffffffffffffffffffffffff16815260200190815260200160002060020154905061113482826127c190919063ffffffff16565b92505050919050565b7f5146a08baf902532d0ee2f909971144f12ca32651cd70cbee1117cddfb3b3b3381565b6000600854905090565b60008061117783610d87565b905060006111e3826111d56064601560008973ffffffffffffffffffffffffffffffffffffffff1673ffffffffffffffffffffffffffffffffffffffff168152602001908152602001600020600201546108c990919063ffffffff16565b6108b390919063ffffffff16565b90506000601560008673ffffffffffffffffffffffffffffffffffffffff1673ffffffffffffffffffffffffffffffffffffffff168152602001908152602001600020600001600084815260200190815260200160002054905061125081836127c190919063ffffffff16565b9350505050919050565b60008060008373ffffffffffffffffffffffffffffffffffffffff1673ffffffffffffffffffffffffffffffffffffffff168152602001908152602001600020549050919050565b7fa49807205ce4d355092ef5a8a18f56e8913cf4a201fbe287825b095693c2177581565b7fb165298935924f540e4181c03493a5d686c54a0aaeb3f6216de85b7ffbba773881565b61131b7fa49807205ce4d355092ef5a8a18f56e8913cf4a201fbe287825b095693c217756113166108df565b611387565b61135a576040517f08c379a000000000000000000000000000000000000000000000000000000000815260040161135190613297565b60405180910390fd5b6002601660006101000a81548160ff021916908360038111156113805761137f612f7b565b5b0217905550565b60006005600084815260200190815260200160002060000160008373ffffffffffffffffffffffffffffffffffffffff1673ffffffffffffffffffffffffffffffffffffffff16815260200190815260200160002060009054906101000a900460ff16905092915050565b60606004805461140190613045565b80601f016020809104026020016040519081016040528092919081815260200182805461142d90613045565b801561147a5780601f1061144f5761010080835404028352916020019161147a565b820191906000526020600020905b81548152906001019060200180831161145d57829003601f168201915b5050505050905090565b6000801b81565b6060600060038111156114a1576114a0612f7b565b5b601660009054906101000a900460ff1660038111156114c3576114c2612f7b565b5b1415611506576040518060400160405280600a81526020017f4e6f7453746172746564000000000000000000000000000000000000000000008152509050611631565b6001600381111561151a57611519612f7b565b5b601660009054906101000a900460ff16600381111561153c5761153b612f7b565b5b141561157f576040518060400160405280600781526020017f5072652049434f000000000000000000000000000000000000000000000000008152509050611631565b6002600381111561159357611592612f7b565b5b601660009054906101000a900460ff1660038111156115b5576115b4612f7b565b5b14156115f8576040518060400160405280600381526020017f49434f00000000000000000000000000000000000000000000000000000000008152509050611631565b6040518060400160405280600881526020017f46696e697368656400000000000000000000000000000000000000000000000081525090505b90565b600080600160006116436108df565b73ffffffffffffffffffffffffffffffffffffffff1673ffffffffffffffffffffffffffffffffffffffff16815260200190815260200160002060008573ffffffffffffffffffffffffffffffffffffffff1673ffffffffffffffffffffffffffffffffffffffff16815260200190815260200160002054905082811015611700576040517f08c379a00000000000000000000000000000000000000000000000000000000081526004016116f790613329565b60405180910390fd5b61171d61170b6108df565b8585846117189190613109565b612117565b600191505092915050565b600061175b7fa49807205ce4d355092ef5a8a18f56e8913cf4a201fbe287825b095693c217756117566108df565b611387565b6117d55760038081111561177257611771612f7b565b5b601660009054906101000a900460ff16600381111561179457611793612f7b565b5b146117d4576040517f08c379a00000000000000000000000000000000000000000000000000000000081526004016117cb90613395565b60405180910390fd5b5b6117e76117e06108df565b84846122e2565b6001905092915050565b61184681601560008573ffffffffffffffffffffffffffffffffffffffff1673ffffffffffffffffffffffffffffffffffffffff16815260200190815260200160002060020154611f4390919063ffffffff16565b601560008473ffffffffffffffffffffffffffffffffffffffff1673ffffffffffffffffffffffffffffffffffffffff168152602001908152602001600020600201819055506118e181601560008573ffffffffffffffffffffffffffffffffffffffff1673ffffffffffffffffffffffffffffffffffffffff16815260200190815260200160002060010154611f4390919063ffffffff16565b601560008473ffffffffffffffffffffffffffffffffffffffff1673ffffffffffffffffffffffffffffffffffffffff168152602001908152602001600020600101819055508173ffffffffffffffffffffffffffffffffffffffff167f231472cdefc3c25438a167454431d6b08cddc40dcc454abbb9d8d8ca98ebbcd28260405161196d9190612c86565b60405180910390a25050565b6119aa7fa49807205ce4d355092ef5a8a18f56e8913cf4a201fbe287825b095693c217756119a56108df565b611387565b6119e9576040517f08c379a00000000000000000000000000000000000000000000000000000000081526004016119e090613427565b60405180910390fd5b6001601660006101000a81548160ff02191690836003811115611a0f57611a0e612f7b565b5b0217905550565b68056bc75e2d6310000081565b6000611a35611a306108df565b610d87565b90506000611b1460156000611a486108df565b73ffffffffffffffffffffffffffffffffffffffff1673ffffffffffffffffffffffffffffffffffffffff168152602001908152602001600020600001600084815260200190815260200160002054611b0684611af8606460156000611aac6108df565b73ffffffffffffffffffffffffffffffffffffffff1673ffffffffffffffffffffffffffffffffffffffff168152602001908152602001600020600201546108c990919063ffffffff16565b6108b390919063ffffffff16565b6127c190919063ffffffff16565b905080831115611b59576040517f08c379a0000000000000000000000000000000000000000000000000000000008152600401611b50906134b9565b60405180910390fd5b611bb58360156000611b696108df565b73ffffffffffffffffffffffffffffffffffffffff1673ffffffffffffffffffffffffffffffffffffffff168152602001908152602001600020600101546127c190919063ffffffff16565b60156000611bc16108df565b73ffffffffffffffffffffffffffffffffffffffff1673ffffffffffffffffffffffffffffffffffffffff16815260200190815260200160002060010181905550611c6f8360156000611c126108df565b73ffffffffffffffffffffffffffffffffffffffff1673ffffffffffffffffffffffffffffffffffffffff168152602001908152602001600020600001600085815260200190815260200160002054611f4390919063ffffffff16565b60156000611c7b6108df565b73ffffffffffffffffffffffffffffffffffffffff1673ffffffffffffffffffffffffffffffffffffffff168152602001908152602001600020600001600084815260200190815260200160002081905550611cde611cd86108df565b84611f59565b611ce66108df565b73ffffffffffffffffffffffffffffffffffffffff167f393c95e9d26e675951a2e5342d80b93219994d655eb7f2834bde4f51a4a7927284604051611d2b9190612c86565b60405180910390a2505050565b611d4182610d67565b611d5281611d4d6108df565b612561565b611d5c83836126df565b505050565b6000600160008473ffffffffffffffffffffffffffffffffffffffff1673ffffffffffffffffffffffffffffffffffffffff16815260200190815260200160002060008373ffffffffffffffffffffffffffffffffffffffff1673ffffffffffffffffffffffffffffffffffffffff16815260200190815260200160002054905092915050565b60026003811115611dfc57611dfb612f7b565b5b601660009054906101000a900460ff166003811115611e1e57611e1d612f7b565b5b14611e5e576040517f08c379a0000000000000000000000000000000000000000000000000000000008152600401611e5590613525565b60405180910390fd5b611e8f7fa49807205ce4d355092ef5a8a18f56e8913cf4a201fbe287825b095693c21775611e8a6108df565b611387565b611ece576040517f08c379a0000000000000000000000000000000000000000000000000000000008152600401611ec5906135b7565b60405180910390fd5b6000611ee76009546008546127c190919063ffffffff16565b90506003601660006101000a81548160ff02191690836003811115611f0f57611f0e612f7b565b5b021790555042600a819055506000811115611f3657611f35611f2f6108df565b826108e7565b5b50565b6000600954905090565b60008183611f5191906131cf565b905092915050565b600073ffffffffffffffffffffffffffffffffffffffff168273ffffffffffffffffffffffffffffffffffffffff161415611fc9576040517f08c379a0000000000000000000000000000000000000000000000000000000008152600401611fc090613623565b60405180910390fd5b611fd5600083836127d7565b8060026000828254611fe791906131cf565b92505081905550806000808473ffffffffffffffffffffffffffffffffffffffff1673ffffffffffffffffffffffffffffffffffffffff168152602001908152602001600020600082825461203c91906131cf565b925050819055508173ffffffffffffffffffffffffffffffffffffffff16600073ffffffffffffffffffffffffffffffffffffffff167fddf252ad1be2c89b69c2b068fc378daa952ba7f163c4a11628f55a4df523b3ef836040516120a19190612c86565b60405180910390a35050565b60007f01ffc9a7000000000000000000000000000000000000000000000000000000007bffffffffffffffffffffffffffffffffffffffffffffffffffffffff1916827bffffffffffffffffffffffffffffffffffffffffffffffffffffffff1916149050919050565b600073ffffffffffffffffffffffffffffffffffffffff168373ffffffffffffffffffffffffffffffffffffffff161415612187576040517f08c379a000000000000000000000000000000000000000000000000000000000815260040161217e906136b5565b60405180910390fd5b600073ffffffffffffffffffffffffffffffffffffffff168273ffffffffffffffffffffffffffffffffffffffff1614156121f7576040517f08c379a00000000000000000000000000000000000000000000000000000000081526004016121ee90613747565b60405180910390fd5b80600160008573ffffffffffffffffffffffffffffffffffffffff1673ffffffffffffffffffffffffffffffffffffffff16815260200190815260200160002060008473ffffffffffffffffffffffffffffffffffffffff1673ffffffffffffffffffffffffffffffffffffffff168152602001908152602001600020819055508173ffffffffffffffffffffffffffffffffffffffff168373ffffffffffffffffffffffffffffffffffffffff167f8c5be1e5ebec7d5bd14f71427d1e84f3dd0314c0f7b2291e5b200ac8c7c3b925836040516122d59190612c86565b60405180910390a3505050565b600073ffffffffffffffffffffffffffffffffffffffff168373ffffffffffffffffffffffffffffffffffffffff161415612352576040517f08c379a0000000000000000000000000000000000000000000000000000000008152600401612349906137d9565b60405180910390fd5b600073ffffffffffffffffffffffffffffffffffffffff168273ffffffffffffffffffffffffffffffffffffffff1614156123c2576040517f08c379a00000000000000000000000000000000000000000000000000000000081526004016123b99061386b565b60405180910390fd5b6123cd8383836127d7565b60008060008573ffffffffffffffffffffffffffffffffffffffff1673ffffffffffffffffffffffffffffffffffffffff16815260200190815260200160002054905081811015612453576040517f08c379a000000000000000000000000000000000000000000000000000000000815260040161244a906138fd565b60405180910390fd5b818161245f9190613109565b6000808673ffffffffffffffffffffffffffffffffffffffff1673ffffffffffffffffffffffffffffffffffffffff16815260200190815260200160002081905550816000808573ffffffffffffffffffffffffffffffffffffffff1673ffffffffffffffffffffffffffffffffffffffff16815260200190815260200160002060008282546124ef91906131cf565b925050819055508273ffffffffffffffffffffffffffffffffffffffff168473ffffffffffffffffffffffffffffffffffffffff167fddf252ad1be2c89b69c2b068fc378daa952ba7f163c4a11628f55a4df523b3ef846040516125539190612c86565b60405180910390a350505050565b61256b8282611387565b6125fa576125908173ffffffffffffffffffffffffffffffffffffffff1660146127e7565b61259e8360001c60206127e7565b6040516020016125af9291906139f1565b6040516020818303038152906040526040517f08c379a00000000000000000000000000000000000000000000000000000000081526004016125f19190612b81565b60405180910390fd5b5050565b6126088282611387565b6126db5760016005600084815260200190815260200160002060000160008373ffffffffffffffffffffffffffffffffffffffff1673ffffffffffffffffffffffffffffffffffffffff16815260200190815260200160002060006101000a81548160ff0219169083151502179055506126806108df565b73ffffffffffffffffffffffffffffffffffffffff168173ffffffffffffffffffffffffffffffffffffffff16837f2f8788117e7eff1d82e926ec794901d17c78024a50270940304540a733656f0d60405160405180910390a45b5050565b6126e98282611387565b156127bd5760006005600084815260200190815260200160002060000160008373ffffffffffffffffffffffffffffffffffffffff1673ffffffffffffffffffffffffffffffffffffffff16815260200190815260200160002060006101000a81548160ff0219169083151502179055506127626108df565b73ffffffffffffffffffffffffffffffffffffffff168173ffffffffffffffffffffffffffffffffffffffff16837ff6391f5c32d9c69d2a47ea670b442974b53935d1edc7fd64eb21e047a839171b60405160405180910390a45b5050565b600081836127cf9190613109565b905092915050565b6127e2838383612a23565b505050565b6060600060028360026127fa9190612ec1565b61280491906131cf565b67ffffffffffffffff81111561281d5761281c613a2b565b5b6040519080825280601f01601f19166020018201604052801561284f5781602001600182028036833780820191505090505b5090507f30000000000000000000000000000000000000000000000000000000000000008160008151811061288757612886613a5a565b5b60200101907effffffffffffffffffffffffffffffffffffffffffffffffffffffffffffff1916908160001a9053507f7800000000000000000000000000000000000000000000000000000000000000816001815181106128eb576128ea613a5a565b5b60200101907effffffffffffffffffffffffffffffffffffffffffffffffffffffffffffff1916908160001a9053506000600184600261292b9190612ec1565b61293591906131cf565b90505b60018111156129d5577f3031323334353637383961626364656600000000000000000000000000000000600f86166010811061297757612976613a5a565b5b1a60f81b82828151811061298e5761298d613a5a565b5b60200101907effffffffffffffffffffffffffffffffffffffffffffffffffffffffffffff1916908160001a905350600485901c9450806129ce90613a89565b9050612938565b5060008414612a19576040517f08c379a0000000000000000000000000000000000000000000000000000000008152600401612a1090613aff565b60405180910390fd5b8091505092915050565b505050565b600080fd5b60007fffffffff0000000000000000000000000000000000000000000000000000000082169050919050565b612a6281612a2d565b8114612a6d57600080fd5b50565b600081359050612a7f81612a59565b92915050565b600060208284031215612a9b57612a9a612a28565b5b6000612aa984828501612a70565b91505092915050565b60008115159050919050565b612ac781612ab2565b82525050565b6000602082019050612ae26000830184612abe565b92915050565b600081519050919050565b600082825260208201905092915050565b60005b83811015612b22578082015181840152602081019050612b07565b83811115612b31576000848401525b50505050565b6000601f19601f8301169050919050565b6000612b5382612ae8565b612b5d8185612af3565b9350612b6d818560208601612b04565b612b7681612b37565b840191505092915050565b60006020820190508181036000830152612b9b8184612b48565b905092915050565b600073ffffffffffffffffffffffffffffffffffffffff82169050919050565b6000612bce82612ba3565b9050919050565b612bde81612bc3565b8114612be957600080fd5b50565b600081359050612bfb81612bd5565b92915050565b6000819050919050565b612c1481612c01565b8114612c1f57600080fd5b50565b600081359050612c3181612c0b565b92915050565b60008060408385031215612c4e57612c4d612a28565b5b6000612c5c85828601612bec565b9250506020612c6d85828601612c22565b9150509250929050565b612c8081612c01565b82525050565b6000602082019050612c9b6000830184612c77565b92915050565b600080600060608486031215612cba57612cb9612a28565b5b6000612cc886828701612bec565b9350506020612cd986828701612bec565b9250506040612cea86828701612c22565b9150509250925092565b6000819050919050565b612d0781612cf4565b8114612d1257600080fd5b50565b600081359050612d2481612cfe565b92915050565b600060208284031215612d4057612d3f612a28565b5b6000612d4e84828501612d15565b91505092915050565b612d6081612cf4565b82525050565b6000602082019050612d7b6000830184612d57565b92915050565b600060208284031215612d9757612d96612a28565b5b6000612da584828501612bec565b91505092915050565b60008060408385031215612dc557612dc4612a28565b5b6000612dd385828601612d15565b9250506020612de485828601612bec565b9150509250929050565b600060ff82169050919050565b612e0481612dee565b82525050565b6000602082019050612e1f6000830184612dfb565b92915050565b600060208284031215612e3b57612e3a612a28565b5b6000612e4984828501612c22565b91505092915050565b60008060408385031215612e6957612e68612a28565b5b6000612e7785828601612bec565b9250506020612e8885828601612bec565b9150509250929050565b7f4e487b7100000000000000000000000000000000000000000000000000000000600052601160045260246000fd5b6000612ecc82612c01565b9150612ed783612c01565b9250817fffffffffffffffffffffffffffffffffffffffffffffffffffffffffffffffff0483118215151615612f1057612f0f612e92565b5b828202905092915050565b7f4e487b7100000000000000000000000000000000000000000000000000000000600052601260045260246000fd5b6000612f5582612c01565b9150612f6083612c01565b925082612f7057612f6f612f1b565b5b828204905092915050565b7f4e487b7100000000000000000000000000000000000000000000000000000000600052602160045260246000fd5b7f5665656c616e63696e673a2049434f2043617020657863656465656400000000600082015250565b6000612fe0601c83612af3565b9150612feb82612faa565b602082019050919050565b6000602082019050818103600083015261300f81612fd3565b9050919050565b7f4e487b7100000000000000000000000000000000000000000000000000000000600052602260045260246000fd5b6000600282049050600182168061305d57607f821691505b6020821081141561307157613070613016565b5b50919050565b7f45524332303a207472616e7366657220616d6f756e742065786365656473206160008201527f6c6c6f77616e6365000000000000000000000000000000000000000000000000602082015250565b60006130d3602883612af3565b91506130de82613077565b604082019050919050565b60006020820190508181036000830152613102816130c6565b9050919050565b600061311482612c01565b915061311f83612c01565b92508282101561313257613131612e92565b5b828203905092915050565b7f416363657373436f6e74726f6c3a2063616e206f6e6c792072656e6f756e636560008201527f20726f6c657320666f722073656c660000000000000000000000000000000000602082015250565b6000613199602f83612af3565b91506131a48261313d565b604082019050919050565b600060208201905081810360008301526131c88161318c565b9050919050565b60006131da82612c01565b91506131e583612c01565b9250827fffffffffffffffffffffffffffffffffffffffffffffffffffffffffffffffff0382111561321a57613219612e92565b5b828201905092915050565b7f5665656c616e63696e673a204f6e6c79207468652061646d696e2063616e207360008201527f74617274207468652049434f0000000000000000000000000000000000000000602082015250565b6000613281602c83612af3565b915061328c82613225565b604082019050919050565b600060208201905081810360008301526132b081613274565b9050919050565b7f45524332303a2064656372656173656420616c6c6f77616e63652062656c6f7760008201527f207a65726f000000000000000000000000000000000000000000000000000000602082015250565b6000613313602583612af3565b915061331e826132b7565b604082019050919050565b6000602082019050818103600083015261334281613306565b9050919050565b7f5665656c616e63696e673a2049434f20736561736f6e00000000000000000000600082015250565b600061337f601683612af3565b915061338a82613349565b602082019050919050565b600060208201905081810360008301526133ae81613372565b9050919050565b7f5665656c616e63696e673a204f6e6c79207468652061646d696e2063616e207360008201527f7461727420746865205072652049434f00000000000000000000000000000000602082015250565b6000613411603083612af3565b915061341c826133b5565b604082019050919050565b6000602082019050818103600083015261344081613404565b9050919050565b7f5665656c616e63696e673a20776974686472617720616d6f756e74206578636560008201527f6564732062616c616e6365000000000000000000000000000000000000000000602082015250565b60006134a3602b83612af3565b91506134ae82613447565b604082019050919050565b600060208201905081810360008301526134d281613496565b9050919050565b7f5665656c616e63696e673a2049434f20616c726561647920656e6465642e0000600082015250565b600061350f601e83612af3565b915061351a826134d9565b602082019050919050565b6000602082019050818103600083015261353e81613502565b9050919050565b7f5665656c616e63696e673a204f6e6c79207468652061646d696e2063616e206560008201527f6e64207468652049434f00000000000000000000000000000000000000000000602082015250565b60006135a1602a83612af3565b91506135ac82613545565b604082019050919050565b600060208201905081810360008301526135d081613594565b9050919050565b7f45524332303a206d696e7420746f20746865207a65726f206164647265737300600082015250565b600061360d601f83612af3565b9150613618826135d7565b602082019050919050565b6000602082019050818103600083015261363c81613600565b9050919050565b7f45524332303a20617070726f76652066726f6d20746865207a65726f2061646460008201527f7265737300000000000000000000000000000000000000000000000000000000602082015250565b600061369f602483612af3565b91506136aa82613643565b604082019050919050565b600060208201905081810360008301526136ce81613692565b9050919050565b7f45524332303a20617070726f766520746f20746865207a65726f20616464726560008201527f7373000000000000000000000000000000000000000000000000000000000000602082015250565b6000613731602283612af3565b915061373c826136d5565b604082019050919050565b6000602082019050818103600083015261376081613724565b9050919050565b7f45524332303a207472616e736665722066726f6d20746865207a65726f20616460008201527f6472657373000000000000000000000000000000000000000000000000000000602082015250565b60006137c3602583612af3565b91506137ce82613767565b604082019050919050565b600060208201905081810360008301526137f2816137b6565b9050919050565b7f45524332303a207472616e7366657220746f20746865207a65726f206164647260008201527f6573730000000000000000000000000000000000000000000000000000000000602082015250565b6000613855602383612af3565b9150613860826137f9565b604082019050919050565b6000602082019050818103600083015261388481613848565b9050919050565b7f45524332303a207472616e7366657220616d6f756e742065786365656473206260008201527f616c616e63650000000000000000000000000000000000000000000000000000602082015250565b60006138e7602683612af3565b91506138f28261388b565b604082019050919050565b60006020820190508181036000830152613916816138da565b9050919050565b600081905092915050565b7f416363657373436f6e74726f6c3a206163636f756e7420000000000000000000600082015250565b600061395e60178361391d565b915061396982613928565b601782019050919050565b600061397f82612ae8565b613989818561391d565b9350613999818560208601612b04565b80840191505092915050565b7f206973206d697373696e6720726f6c6520000000000000000000000000000000600082015250565b60006139db60118361391d565b91506139e6826139a5565b601182019050919050565b60006139fc82613951565b9150613a088285613974565b9150613a13826139ce565b9150613a1f8284613974565b91508190509392505050565b7f4e487b7100000000000000000000000000000000000000000000000000000000600052604160045260246000fd5b7f4e487b7100000000000000000000000000000000000000000000000000000000600052603260045260246000fd5b6000613a9482612c01565b91506000821415613aa857613aa7612e92565b5b600182039050919050565b7f537472696e67733a20686578206c656e67746820696e73756666696369656e74600082015250565b6000613ae9602083612af3565b9150613af482613ab3565b602082019050919050565b60006020820190508181036000830152613b1881613adc565b905091905056fea2646970667358221220cf34553f1a4c57aa24297ccebcb71642795dbde15f2d85130374f833ff1f5d5664736f6c634300080b0033",
  "immutableReferences": {},
  "source": "// SPDX-License-Identifier: MIT\npragma solidity 0.8.11;\n\nimport \"@openzeppelin/contracts/token/ERC20/ERC20.sol\";\nimport \"@openzeppelin/contracts/utils/math/SafeMath.sol\";\nimport \"@openzeppelin/contracts/access/AccessControl.sol\";\n\ncontract VeelancingToken is ERC20, AccessControl {\n    using SafeMath for uint256;\n\n    bytes32 public constant ADMIN_ROLE = keccak256(\"ADMIN_ROLE\");\n    bytes32 public constant INVESTOR_ROLE = keccak256(\"INVESTOR_ROLE\");\n    bytes32 public constant TEAM_ROLE = keccak256(\"TEAM_ROLE\");\n    uint256 private percIco;\n    uint256 private percPreIco;\n    uint256 public constant basePrice = 100 * 10**18;\n    uint256 private icoCap;\n    uint256 private soldIcoTotal;\n    uint256 private endIcoDate;\n    uint256 private vestingPerc;\n    uint256 private vestingDays;\n    address[] private investors;\n    uint256[] private investorAmounts;\n    uint256 private percInvestors;\n    uint256 private vestingDaysInvestors;\n    address[] private team;\n    uint256[] private teamAmounts;\n    uint256 private percTeam;\n    uint256 private vestingDaysTeam;\n\n    enum CrowdState {\n        NotStarted,\n        PreICO,\n        ICO,\n        Finished\n    }\n\n    struct VestedBalance {\n        mapping(uint256 => uint256) perc;\n        uint256 balance;\n        uint256 initialBalance;\n    }\n\n    mapping(address => VestedBalance) private _vestedBalances;\n\n    CrowdState private state;\n\n    event WithdrawFromVested(address indexed to, uint256 value);\n    event DepositToVested(address indexed to, uint256 value);\n    event Deposit(address indexed to, uint256 value);\n\n    constructor(\n        string memory name,\n        string memory symbol,\n        address Liquidity,\n        uint256 volume_liquidity,\n        uint256 percIco_,\n        uint256 percPreIco_,\n        uint256 icoCap_,\n        address owner\n    ) public ERC20(name, symbol) {\n        percIco = percIco_;\n        percPreIco = percPreIco_;\n        icoCap = icoCap_;\n\n        soldIcoTotal = 0;\n\n        state = CrowdState.NotStarted;\n\n        vestingDays = 90 days;\n        vestingPerc = 20;\n\n        team = [0x81cC9eCaD6a8D9367B18Ad892d5f7dD1212010A7];\n        teamAmounts = [1000000];\n        percTeam = 30;\n        vestingDaysTeam = 120 days;\n\n        investors = [0x81cC9eCaD6a8D9367B18Ad892d5f7dD1212010A7];\n        investorAmounts = [10000];\n        percInvestors = 25;\n        vestingDaysInvestors = 180 days;\n\n        _setRoleAdmin(ADMIN_ROLE, DEFAULT_ADMIN_ROLE);\n        _setupRole(ADMIN_ROLE, owner);\n        depositToVested(Liquidity, volume_liquidity);\n\n        for (uint256 i = 0; i < investors.length; i++) {\n            _setupRole(INVESTOR_ROLE, investors[i]);\n            depositToVested(investors[i], investorAmounts[i]);\n        }\n\n        for (uint256 i = 0; i < team.length; i++) {\n            _setupRole(TEAM_ROLE, team[i]);\n            depositToVested(team[i], teamAmounts[i]);\n        }\n    }\n\n    function getIcoCap() public returns (uint256) {\n        return icoCap;\n    }\n\n    function getIcoSold() public returns (uint256) {\n        return soldIcoTotal;\n    }\n\n    function getCurrentStatus() public returns (string memory) {\n        if (state == CrowdState.NotStarted) {\n            return \"NotStarted\";\n        } else if (state == CrowdState.PreICO) {\n            return \"Pre ICO\";\n        } else if (state == CrowdState.ICO) {\n            return \"ICO\";\n        } else {\n            return \"Finished\";\n        }\n    }\n\n    function getVestedAllowedPerc(address to) public virtual returns (uint256) {\n        uint256 date = endIcoDate;\n        uint256 perc = 0;\n\n        if (state != CrowdState.Finished) {\n            return 0;\n        }\n\n        do {\n            if (hasRole(TEAM_ROLE, to)) {\n                perc = perc.add(percTeam);\n                date = date.add(vestingDaysTeam);\n            } else if (hasRole(INVESTOR_ROLE, to)) {\n                perc = perc.add(percInvestors);\n                date = date.add(vestingDaysInvestors);\n            } else {\n                perc = perc.add(vestingPerc);\n                date = date.add(vestingDays);\n            }\n        } while (date < block.timestamp && perc <= 100);\n\n        return perc;\n    }\n\n    function getVestedTotalBalance(address to)\n        public\n        virtual\n        returns (uint256)\n    {\n        uint256 consumed;\n\n        for (uint256 index = 10; index <= 100; index += 10) {\n            consumed = consumed.add(_vestedBalances[to].perc[index]);\n        }\n\n        uint256 total = _vestedBalances[to].initialBalance;\n\n        return total.sub(consumed);\n    }\n\n    function getVestedAllowedBalance(address to)\n        public\n        virtual\n        returns (uint256)\n    {\n        uint256 perc = getVestedAllowedPerc(to);\n\n        uint256 total = _vestedBalances[to].initialBalance.div(100).mul(perc);\n        uint256 consumed = _vestedBalances[to].perc[perc];\n\n        return total.sub(consumed);\n    }\n\n    function withdrawFromVested(uint256 amount) public virtual {\n        uint256 perc = getVestedAllowedPerc(_msgSender());\n        uint256 balance = _vestedBalances[_msgSender()]\n            .initialBalance\n            .div(100)\n            .mul(perc)\n            .sub(_vestedBalances[_msgSender()].perc[perc]);\n\n        require(\n            amount <= balance,\n            \"Veelancing: withdraw amount exceeds balance\"\n        );\n\n        _vestedBalances[_msgSender()].balance = _vestedBalances[_msgSender()]\n            .balance\n            .sub(amount);\n        _vestedBalances[_msgSender()].perc[perc] = _vestedBalances[_msgSender()]\n            .perc[perc]\n            .add(amount);\n        _mint(_msgSender(), amount);\n        emit WithdrawFromVested(_msgSender(), amount);\n    }\n\n    function depositToVested(address recipient, uint256 amount) public virtual {\n        _vestedBalances[recipient].initialBalance = _vestedBalances[recipient]\n            .initialBalance\n            .add(amount);\n        _vestedBalances[recipient].balance = _vestedBalances[recipient]\n            .balance\n            .add(amount);\n        emit DepositToVested(recipient, amount);\n    }\n\n    function deposit(address recipient, uint256 amount) public virtual {\n        uint256 total = amount;\n\n        if (state == CrowdState.PreICO) {\n            total = total.mul(percPreIco).div(100).add(total);\n\n            require(\n                soldIcoTotal.add(total) <= icoCap,\n                \"Veelancing: ICO Cap excedeed\"\n            );\n\n            soldIcoTotal = soldIcoTotal.add(total);\n\n            depositToVested(recipient, total);\n        } else {\n            if (state == CrowdState.ICO) {\n                total = total.mul(percIco).div(100).add(total);\n\n                require(\n                    soldIcoTotal.add(total) <= icoCap,\n                    \"Veelancing: ICO Cap excedeed\"\n                );\n\n                soldIcoTotal = soldIcoTotal.add(total);\n            }\n\n            _mint(recipient, total);\n            emit Deposit(recipient, total);\n        }\n    }\n\n    function transfer(address recipient, uint256 amount)\n        public\n        virtual\n        override(ERC20)\n        returns (bool)\n    {\n        if (!hasRole(ADMIN_ROLE, _msgSender())) {\n            require(state == CrowdState.Finished, \"Veelancing: ICO season\");\n        }\n\n        _transfer(_msgSender(), recipient, amount);\n        return true;\n    }\n\n    function startPreIco() public virtual {\n        require(\n            hasRole(ADMIN_ROLE, _msgSender()),\n            \"Veelancing: Only the admin can start the Pre ICO\"\n        );\n        state = CrowdState.PreICO;\n    }\n\n    function startIco() public virtual {\n        require(\n            hasRole(ADMIN_ROLE, _msgSender()),\n            \"Veelancing: Only the admin can start the ICO\"\n        );\n        state = CrowdState.ICO;\n    }\n\n    function endIco() public virtual {\n        require(state == CrowdState.ICO, \"Veelancing: ICO already ended.\");\n        require(\n            hasRole(ADMIN_ROLE, _msgSender()),\n            \"Veelancing: Only the admin can end the ICO\"\n        );\n\n        uint256 leftTokens = icoCap.sub(soldIcoTotal);\n        state = CrowdState.Finished;\n        endIcoDate = block.timestamp;\n\n        if (leftTokens > 0) {\n            deposit(_msgSender(), leftTokens);\n        }\n    }\n\n    receive() external payable virtual {\n        uint256 weiAmount = msg.value;\n        uint256 tokens = weiAmount.mul(basePrice).div(1 ether);\n        deposit(_msgSender(), tokens);\n    }\n\n    function _beforeTokenTransfer(\n        address from,\n        address to,\n        uint256 amount\n    ) internal virtual override(ERC20) {\n        super._beforeTokenTransfer(from, to, amount);\n    }\n}\n",
  "sourcePath": "/Users/daniel/Projects/VeelancingCoin/contracts/Veelancing.sol",
  "compiler": {
    "name": "solc",
    "version": "0.8.11+commit.d7f03943.Emscripten.clang"
  },
  "schemaVersion": "3.4.4",
  "updatedAt": "2022-01-13T17:27:12.430Z",
  "devdoc": {
    "kind": "dev",
    "methods": {
      "allowance(address,address)": {
        "details": "See {IERC20-allowance}."
      },
      "approve(address,uint256)": {
        "details": "See {IERC20-approve}. Requirements: - `spender` cannot be the zero address."
      },
      "balanceOf(address)": {
        "details": "See {IERC20-balanceOf}."
      },
      "decimals()": {
        "details": "Returns the number of decimals used to get its user representation. For example, if `decimals` equals `2`, a balance of `505` tokens should be displayed to a user as `5,05` (`505 / 10 ** 2`). Tokens usually opt for a value of 18, imitating the relationship between Ether and Wei. This is the value {ERC20} uses, unless this function is overridden; NOTE: This information is only used for _display_ purposes: it in no way affects any of the arithmetic of the contract, including {IERC20-balanceOf} and {IERC20-transfer}."
      },
      "decreaseAllowance(address,uint256)": {
        "details": "Atomically decreases the allowance granted to `spender` by the caller. This is an alternative to {approve} that can be used as a mitigation for problems described in {IERC20-approve}. Emits an {Approval} event indicating the updated allowance. Requirements: - `spender` cannot be the zero address. - `spender` must have allowance for the caller of at least `subtractedValue`."
      },
      "getRoleAdmin(bytes32)": {
        "details": "Returns the admin role that controls `role`. See {grantRole} and {revokeRole}. To change a role's admin, use {_setRoleAdmin}."
      },
      "grantRole(bytes32,address)": {
        "details": "Grants `role` to `account`. If `account` had not been already granted `role`, emits a {RoleGranted} event. Requirements: - the caller must have ``role``'s admin role."
      },
      "hasRole(bytes32,address)": {
        "details": "Returns `true` if `account` has been granted `role`."
      },
      "increaseAllowance(address,uint256)": {
        "details": "Atomically increases the allowance granted to `spender` by the caller. This is an alternative to {approve} that can be used as a mitigation for problems described in {IERC20-approve}. Emits an {Approval} event indicating the updated allowance. Requirements: - `spender` cannot be the zero address."
      },
      "name()": {
        "details": "Returns the name of the token."
      },
      "renounceRole(bytes32,address)": {
        "details": "Revokes `role` from the calling account. Roles are often managed via {grantRole} and {revokeRole}: this function's purpose is to provide a mechanism for accounts to lose their privileges if they are compromised (such as when a trusted device is misplaced). If the calling account had been granted `role`, emits a {RoleRevoked} event. Requirements: - the caller must be `account`."
      },
      "revokeRole(bytes32,address)": {
        "details": "Revokes `role` from `account`. If `account` had been granted `role`, emits a {RoleRevoked} event. Requirements: - the caller must have ``role``'s admin role."
      },
      "supportsInterface(bytes4)": {
        "details": "See {IERC165-supportsInterface}."
      },
      "symbol()": {
        "details": "Returns the symbol of the token, usually a shorter version of the name."
      },
      "totalSupply()": {
        "details": "See {IERC20-totalSupply}."
      },
      "transfer(address,uint256)": {
        "details": "See {IERC20-transfer}. Requirements: - `recipient` cannot be the zero address. - the caller must have a balance of at least `amount`."
      },
      "transferFrom(address,address,uint256)": {
        "details": "See {IERC20-transferFrom}. Emits an {Approval} event indicating the updated allowance. This is not required by the EIP. See the note at the beginning of {ERC20}. Requirements: - `sender` and `recipient` cannot be the zero address. - `sender` must have a balance of at least `amount`. - the caller must have allowance for ``sender``'s tokens of at least `amount`."
      }
    },
    "version": 1
  },
  "userdoc": {
    "kind": "user",
    "methods": {},
    "version": 1
  }
}