{
  "contractName": "VeelancingToken",
  "abi": [
    {
      "inputs": [
        {
          "internalType": "string",
          "name": "name",
          "type": "string"
        },
        {
          "internalType": "string",
          "name": "symbol",
          "type": "string"
        },
        {
          "internalType": "address",
          "name": "Liquidity",
          "type": "address"
        },
        {
          "internalType": "uint256",
          "name": "volume_liquidity",
          "type": "uint256"
        },
        {
          "internalType": "uint256",
          "name": "percIco_",
          "type": "uint256"
        },
        {
          "internalType": "uint256",
          "name": "percPreIco_",
          "type": "uint256"
        },
        {
          "internalType": "uint256",
          "name": "icoCap_",
          "type": "uint256"
        },
        {
          "internalType": "uint256",
          "name": "cap_",
          "type": "uint256"
        },
        {
          "internalType": "address",
          "name": "owner",
          "type": "address"
        }
      ],
      "stateMutability": "nonpayable",
      "type": "constructor"
    },
    {
      "anonymous": false,
      "inputs": [
        {
          "indexed": true,
          "internalType": "address",
          "name": "owner",
          "type": "address"
        },
        {
          "indexed": true,
          "internalType": "address",
          "name": "spender",
          "type": "address"
        },
        {
          "indexed": false,
          "internalType": "uint256",
          "name": "value",
          "type": "uint256"
        }
      ],
      "name": "Approval",
      "type": "event"
    },
    {
      "anonymous": false,
      "inputs": [
        {
          "indexed": false,
          "internalType": "uint256",
          "name": "amount",
          "type": "uint256"
        }
      ],
      "name": "CapIncreased",
      "type": "event"
    },
    {
      "anonymous": false,
      "inputs": [
        {
          "indexed": true,
          "internalType": "address",
          "name": "to",
          "type": "address"
        },
        {
          "indexed": false,
          "internalType": "uint256",
          "name": "value",
          "type": "uint256"
        }
      ],
      "name": "Deposit",
      "type": "event"
    },
    {
      "anonymous": false,
      "inputs": [
        {
          "indexed": true,
          "internalType": "address",
          "name": "to",
          "type": "address"
        },
        {
          "indexed": false,
          "internalType": "uint256",
          "name": "value",
          "type": "uint256"
        }
      ],
      "name": "DepositToVested",
      "type": "event"
    },
    {
      "anonymous": false,
      "inputs": [
        {
          "indexed": true,
          "internalType": "bytes32",
          "name": "role",
          "type": "bytes32"
        },
        {
          "indexed": true,
          "internalType": "bytes32",
          "name": "previousAdminRole",
          "type": "bytes32"
        },
        {
          "indexed": true,
          "internalType": "bytes32",
          "name": "newAdminRole",
          "type": "bytes32"
        }
      ],
      "name": "RoleAdminChanged",
      "type": "event"
    },
    {
      "anonymous": false,
      "inputs": [
        {
          "indexed": true,
          "internalType": "bytes32",
          "name": "role",
          "type": "bytes32"
        },
        {
          "indexed": true,
          "internalType": "address",
          "name": "account",
          "type": "address"
        },
        {
          "indexed": true,
          "internalType": "address",
          "name": "sender",
          "type": "address"
        }
      ],
      "name": "RoleGranted",
      "type": "event"
    },
    {
      "anonymous": false,
      "inputs": [
        {
          "indexed": true,
          "internalType": "bytes32",
          "name": "role",
          "type": "bytes32"
        },
        {
          "indexed": true,
          "internalType": "address",
          "name": "account",
          "type": "address"
        },
        {
          "indexed": true,
          "internalType": "address",
          "name": "sender",
          "type": "address"
        }
      ],
      "name": "RoleRevoked",
      "type": "event"
    },
    {
      "anonymous": false,
      "inputs": [
        {
          "indexed": true,
          "internalType": "address",
          "name": "from",
          "type": "address"
        },
        {
          "indexed": true,
          "internalType": "address",
          "name": "to",
          "type": "address"
        },
        {
          "indexed": false,
          "internalType": "uint256",
          "name": "value",
          "type": "uint256"
        }
      ],
      "name": "Transfer",
      "type": "event"
    },
    {
      "anonymous": false,
      "inputs": [
        {
          "indexed": true,
          "internalType": "address",
          "name": "to",
          "type": "address"
        },
        {
          "indexed": false,
          "internalType": "enum VeelancingToken.WalletStatus",
          "name": "status",
          "type": "uint8"
        }
      ],
      "name": "WalletStatusChanged",
      "type": "event"
    },
    {
      "anonymous": false,
      "inputs": [
        {
          "indexed": true,
          "internalType": "address",
          "name": "to",
          "type": "address"
        },
        {
          "indexed": false,
          "internalType": "uint256",
          "name": "value",
          "type": "uint256"
        }
      ],
      "name": "WithdrawFromVested",
      "type": "event"
    },
    {
      "inputs": [],
      "name": "ADMIN_ROLE",
      "outputs": [
        {
          "internalType": "bytes32",
          "name": "",
          "type": "bytes32"
        }
      ],
      "stateMutability": "view",
      "type": "function"
    },
    {
      "inputs": [],
      "name": "BONUS_ICO_ROLE",
      "outputs": [
        {
          "internalType": "bytes32",
          "name": "",
          "type": "bytes32"
        }
      ],
      "stateMutability": "view",
      "type": "function"
    },
    {
      "inputs": [],
      "name": "DEFAULT_ADMIN_ROLE",
      "outputs": [
        {
          "internalType": "bytes32",
          "name": "",
          "type": "bytes32"
        }
      ],
      "stateMutability": "view",
      "type": "function"
    },
    {
      "inputs": [],
      "name": "INVESTOR_ROLE",
      "outputs": [
        {
          "internalType": "bytes32",
          "name": "",
          "type": "bytes32"
        }
      ],
      "stateMutability": "view",
      "type": "function"
    },
    {
      "inputs": [],
      "name": "TEAM_ROLE",
      "outputs": [
        {
          "internalType": "bytes32",
          "name": "",
          "type": "bytes32"
        }
      ],
      "stateMutability": "view",
      "type": "function"
    },
    {
      "inputs": [
        {
          "internalType": "address",
          "name": "owner",
          "type": "address"
        },
        {
          "internalType": "address",
          "name": "spender",
          "type": "address"
        }
      ],
      "name": "allowance",
      "outputs": [
        {
          "internalType": "uint256",
          "name": "",
          "type": "uint256"
        }
      ],
      "stateMutability": "view",
      "type": "function"
    },
    {
      "inputs": [
        {
          "internalType": "address",
          "name": "spender",
          "type": "address"
        },
        {
          "internalType": "uint256",
          "name": "amount",
          "type": "uint256"
        }
      ],
      "name": "approve",
      "outputs": [
        {
          "internalType": "bool",
          "name": "",
          "type": "bool"
        }
      ],
      "stateMutability": "nonpayable",
      "type": "function"
    },
    {
      "inputs": [
        {
          "internalType": "address",
          "name": "account",
          "type": "address"
        }
      ],
      "name": "balanceOf",
      "outputs": [
        {
          "internalType": "uint256",
          "name": "",
          "type": "uint256"
        }
      ],
      "stateMutability": "view",
      "type": "function"
    },
    {
      "inputs": [],
      "name": "basePrice",
      "outputs": [
        {
          "internalType": "uint256",
          "name": "",
          "type": "uint256"
        }
      ],
      "stateMutability": "view",
      "type": "function"
    },
    {
      "inputs": [],
      "name": "decimals",
      "outputs": [
        {
          "internalType": "uint8",
          "name": "",
          "type": "uint8"
        }
      ],
      "stateMutability": "view",
      "type": "function"
    },
    {
      "inputs": [
        {
          "internalType": "address",
          "name": "spender",
          "type": "address"
        },
        {
          "internalType": "uint256",
          "name": "subtractedValue",
          "type": "uint256"
        }
      ],
      "name": "decreaseAllowance",
      "outputs": [
        {
          "internalType": "bool",
          "name": "",
          "type": "bool"
        }
      ],
      "stateMutability": "nonpayable",
      "type": "function"
    },
    {
      "inputs": [
        {
          "internalType": "bytes32",
          "name": "role",
          "type": "bytes32"
        }
      ],
      "name": "getRoleAdmin",
      "outputs": [
        {
          "internalType": "bytes32",
          "name": "",
          "type": "bytes32"
        }
      ],
      "stateMutability": "view",
      "type": "function"
    },
    {
      "inputs": [
        {
          "internalType": "bytes32",
          "name": "role",
          "type": "bytes32"
        },
        {
          "internalType": "address",
          "name": "account",
          "type": "address"
        }
      ],
      "name": "grantRole",
      "outputs": [],
      "stateMutability": "nonpayable",
      "type": "function"
    },
    {
      "inputs": [
        {
          "internalType": "bytes32",
          "name": "role",
          "type": "bytes32"
        },
        {
          "internalType": "address",
          "name": "account",
          "type": "address"
        }
      ],
      "name": "hasRole",
      "outputs": [
        {
          "internalType": "bool",
          "name": "",
          "type": "bool"
        }
      ],
      "stateMutability": "view",
      "type": "function"
    },
    {
      "inputs": [
        {
          "internalType": "address",
          "name": "spender",
          "type": "address"
        },
        {
          "internalType": "uint256",
          "name": "addedValue",
          "type": "uint256"
        }
      ],
      "name": "increaseAllowance",
      "outputs": [
        {
          "internalType": "bool",
          "name": "",
          "type": "bool"
        }
      ],
      "stateMutability": "nonpayable",
      "type": "function"
    },
    {
      "inputs": [],
      "name": "name",
      "outputs": [
        {
          "internalType": "string",
          "name": "",
          "type": "string"
        }
      ],
      "stateMutability": "view",
      "type": "function"
    },
    {
      "inputs": [
        {
          "internalType": "bytes32",
          "name": "role",
          "type": "bytes32"
        },
        {
          "internalType": "address",
          "name": "account",
          "type": "address"
        }
      ],
      "name": "renounceRole",
      "outputs": [],
      "stateMutability": "nonpayable",
      "type": "function"
    },
    {
      "inputs": [
        {
          "internalType": "bytes32",
          "name": "role",
          "type": "bytes32"
        },
        {
          "internalType": "address",
          "name": "account",
          "type": "address"
        }
      ],
      "name": "revokeRole",
      "outputs": [],
      "stateMutability": "nonpayable",
      "type": "function"
    },
    {
      "inputs": [
        {
          "internalType": "bytes4",
          "name": "interfaceId",
          "type": "bytes4"
        }
      ],
      "name": "supportsInterface",
      "outputs": [
        {
          "internalType": "bool",
          "name": "",
          "type": "bool"
        }
      ],
      "stateMutability": "view",
      "type": "function"
    },
    {
      "inputs": [],
      "name": "symbol",
      "outputs": [
        {
          "internalType": "string",
          "name": "",
          "type": "string"
        }
      ],
      "stateMutability": "view",
      "type": "function"
    },
    {
      "inputs": [],
      "name": "totalSupply",
      "outputs": [
        {
          "internalType": "uint256",
          "name": "",
          "type": "uint256"
        }
      ],
      "stateMutability": "view",
      "type": "function"
    },
    {
      "inputs": [
        {
          "internalType": "address",
          "name": "sender",
          "type": "address"
        },
        {
          "internalType": "address",
          "name": "recipient",
          "type": "address"
        },
        {
          "internalType": "uint256",
          "name": "amount",
          "type": "uint256"
        }
      ],
      "name": "transferFrom",
      "outputs": [
        {
          "internalType": "bool",
          "name": "",
          "type": "bool"
        }
      ],
      "stateMutability": "nonpayable",
      "type": "function"
    },
    {
      "stateMutability": "payable",
      "type": "receive"
    },
    {
      "inputs": [],
      "name": "getCap",
      "outputs": [
        {
          "internalType": "uint256",
          "name": "",
          "type": "uint256"
        }
      ],
      "stateMutability": "view",
      "type": "function"
    },
    {
      "inputs": [
        {
          "internalType": "uint256",
          "name": "amount",
          "type": "uint256"
        }
      ],
      "name": "increaseCap",
      "outputs": [],
      "stateMutability": "nonpayable",
      "type": "function"
    },
    {
      "inputs": [],
      "name": "getIcoCap",
      "outputs": [
        {
          "internalType": "uint256",
          "name": "",
          "type": "uint256"
        }
      ],
      "stateMutability": "view",
      "type": "function"
    },
    {
      "inputs": [],
      "name": "getIcoSold",
      "outputs": [
        {
          "internalType": "uint256",
          "name": "",
          "type": "uint256"
        }
      ],
      "stateMutability": "view",
      "type": "function"
    },
    {
      "inputs": [],
      "name": "getCurrentStatus",
      "outputs": [
        {
          "internalType": "string",
          "name": "",
          "type": "string"
        }
      ],
      "stateMutability": "view",
      "type": "function"
    },
    {
      "inputs": [
        {
          "internalType": "address",
          "name": "to",
          "type": "address"
        }
      ],
      "name": "getVestedAllowedPerc",
      "outputs": [
        {
          "internalType": "uint256",
          "name": "",
          "type": "uint256"
        }
      ],
      "stateMutability": "nonpayable",
      "type": "function"
    },
    {
      "inputs": [
        {
          "internalType": "address",
          "name": "to",
          "type": "address"
        }
      ],
      "name": "getVestedTotalBalance",
      "outputs": [
        {
          "internalType": "uint256",
          "name": "",
          "type": "uint256"
        }
      ],
      "stateMutability": "view",
      "type": "function"
    },
    {
      "inputs": [
        {
          "internalType": "address",
          "name": "to",
          "type": "address"
        }
      ],
      "name": "getVestedAllowedBalance",
      "outputs": [
        {
          "internalType": "uint256",
          "name": "",
          "type": "uint256"
        }
      ],
      "stateMutability": "nonpayable",
      "type": "function"
    },
    {
      "inputs": [
        {
          "internalType": "uint256",
          "name": "amount",
          "type": "uint256"
        }
      ],
      "name": "withdrawFromVested",
      "outputs": [],
      "stateMutability": "nonpayable",
      "type": "function"
    },
    {
      "inputs": [
        {
          "internalType": "address",
          "name": "recipient",
          "type": "address"
        },
        {
          "internalType": "uint256",
          "name": "amount",
          "type": "uint256"
        }
      ],
      "name": "depositToVested",
      "outputs": [],
      "stateMutability": "nonpayable",
      "type": "function"
    },
    {
      "inputs": [
        {
          "internalType": "address",
          "name": "recipient",
          "type": "address"
        }
      ],
      "name": "getWalletStatus",
      "outputs": [
        {
          "internalType": "enum VeelancingToken.WalletStatus",
          "name": "",
          "type": "uint8"
        }
      ],
      "stateMutability": "view",
      "type": "function"
    },
    {
      "inputs": [
        {
          "internalType": "address",
          "name": "recipient",
          "type": "address"
        },
        {
          "internalType": "enum VeelancingToken.WalletStatus",
          "name": "status",
          "type": "uint8"
        }
      ],
      "name": "setWalletStatus",
      "outputs": [],
      "stateMutability": "nonpayable",
      "type": "function"
    },
    {
      "inputs": [
        {
          "internalType": "address",
          "name": "recipient",
          "type": "address"
        },
        {
          "internalType": "uint256",
          "name": "amount",
          "type": "uint256"
        }
      ],
      "name": "deposit",
      "outputs": [],
      "stateMutability": "nonpayable",
      "type": "function"
    },
    {
      "inputs": [
        {
          "internalType": "address",
          "name": "recipient",
          "type": "address"
        },
        {
          "internalType": "uint256",
          "name": "amount",
          "type": "uint256"
        }
      ],
      "name": "transfer",
      "outputs": [
        {
          "internalType": "bool",
          "name": "",
          "type": "bool"
        }
      ],
      "stateMutability": "nonpayable",
      "type": "function"
    },
    {
      "inputs": [],
      "name": "startPreIco",
      "outputs": [],
      "stateMutability": "nonpayable",
      "type": "function"
    },
    {
      "inputs": [],
      "name": "startIco",
      "outputs": [],
      "stateMutability": "nonpayable",
      "type": "function"
    },
    {
      "inputs": [],
      "name": "endIco",
      "outputs": [],
      "stateMutability": "nonpayable",
      "type": "function"
    },
    {
      "inputs": [
        {
          "internalType": "address",
          "name": "recipient",
          "type": "address"
        },
        {
          "internalType": "uint256",
          "name": "amount",
          "type": "uint256"
        }
      ],
      "name": "createBonus",
      "outputs": [],
      "stateMutability": "nonpayable",
      "type": "function"
    }
  ],
  "bytecode": "0x6080604052604051806080016040528073c9c4aaf0042daa49e404bdb5a84efcfc17c5488073ffffffffffffffffffffffffffffffffffffffff1673ffffffffffffffffffffffffffffffffffffffff1681526020017372321dec1bc93d8c906e40d1056522283a4389f973ffffffffffffffffffffffffffffffffffffffff1673ffffffffffffffffffffffffffffffffffffffff16815260200173b2bd39587cf589aaab6a36e25b0aed76fcf58c7b73ffffffffffffffffffffffffffffffffffffffff1673ffffffffffffffffffffffffffffffffffffffff168152602001733effec8ebcf00052f62e4001b7804011da7c6f1473ffffffffffffffffffffffffffffffffffffffff1673ffffffffffffffffffffffffffffffffffffffff16815250600c9060046200013792919062000dcd565b506040518060800160405280619c4a62ffffff16815260200162bebc2062ffffff16815260200161981c62ffffff168152602001619ad862ffffff16815250600d9060046200018892919062000e5c565b50604051806101e0016040528073f553ce9e38b21077f518d8db39db892f05751fa173ffffffffffffffffffffffffffffffffffffffff1673ffffffffffffffffffffffffffffffffffffffff16815260200173da974670f0fa770db9277a0306d568e4d6f6c5a373ffffffffffffffffffffffffffffffffffffffff1673ffffffffffffffffffffffffffffffffffffffff1681526020017323922042557af5b562eab49fd0ac09b16e6ac5e273ffffffffffffffffffffffffffffffffffffffff1673ffffffffffffffffffffffffffffffffffffffff16815260200173a0e6f859c24549efc0f873e7e5c043d90ba68eab73ffffffffffffffffffffffffffffffffffffffff1673ffffffffffffffffffffffffffffffffffffffff16815260200173733acd147e486cbe9f33257dc6272ad5292a8e6f73ffffffffffffffffffffffffffffffffffffffff1673ffffffffffffffffffffffffffffffffffffffff16815260200173700ff631e391e22f8b7c97051626f98ff4ae212373ffffffffffffffffffffffffffffffffffffffff1673ffffffffffffffffffffffffffffffffffffffff168152602001736c7ccd2c0f29fe4a01f834e98a97e3698c7ee16873ffffffffffffffffffffffffffffffffffffffff1673ffffffffffffffffffffffffffffffffffffffff16815260200173b02dbf9e04535cf3f086fe812bf765d9a8ece5db73ffffffffffffffffffffffffffffffffffffffff1673ffffffffffffffffffffffffffffffffffffffff16815260200173a7d4301f1f5f1c5ac2dcc2e761b04fcbe0ba1fed73ffffffffffffffffffffffffffffffffffffffff1673ffffffffffffffffffffffffffffffffffffffff16815260200173c9d8fb40f6d0e3e14c36b93e66ec16c9d4f70ed373ffffffffffffffffffffffffffffffffffffffff1673ffffffffffffffffffffffffffffffffffffffff1681526020017372e8bbe74a17dfa47533e556189152f174a00ed973ffffffffffffffffffffffffffffffffffffffff1673ffffffffffffffffffffffffffffffffffffffff1681526020017381a806e845d80bc775d721878d976e6f20dfa11573ffffffffffffffffffffffffffffffffffffffff1673ffffffffffffffffffffffffffffffffffffffff16815260200173bdb1d0e82620bf90a7b231b19c69cad39107334173ffffffffffffffffffffffffffffffffffffffff1673ffffffffffffffffffffffffffffffffffffffff16815260200173ac531927bd88c9a59e757cb5bb556535c9c3043f73ffffffffffffffffffffffffffffffffffffffff1673ffffffffffffffffffffffffffffffffffffffff168152602001732bc800abe1bd22bec07561bc740520908897716973ffffffffffffffffffffffffffffffffffffffff1673ffffffffffffffffffffffffffffffffffffffff16815250600e90600f620005bf92919062000eb5565b50604051806101e001604052806301312e0e63ffffffff168152602001625b914063ffffffff1681526020016301c9c4ac63ffffffff168152602001626acfc063ffffffff168152602001626acfc063ffffffff168152602001626acfc063ffffffff168152602001622dc6c063ffffffff16815260200161c35063ffffffff168152602001626acfc063ffffffff168152602001626acfc063ffffffff168152602001625b8d8063ffffffff168152602001626ad02463ffffffff1681526020016113ec63ffffffff16815260200161044c63ffffffff168152602001626ad02463ffffffff16815250600f90600f620006bc92919062000f44565b50348015620006ca57600080fd5b5060405162005a8c38038062005a8c8339818101604052810190620006f091906200128b565b888881600390805190602001906200070a92919062000f9e565b5080600490805190602001906200072392919062000f9e565b50505084600681905550836007819055508260088190555081600b8190555060006009819055506000601260006101000a81548160ff02191690836003811115620007735762000772620013a8565b5b0217905550620007ad7fa49807205ce4d355092ef5a8a18f56e8913cf4a201fbe287825b095693c217756000801b62000a1e60201b60201c565b620007df7fa49807205ce4d355092ef5a8a18f56e8913cf4a201fbe287825b095693c217758262000a8260201b60201c565b620007f1878762000a9860201b60201c565b60005b600c80549050811015620008ff57620008757fb165298935924f540e4181c03493a5d686c54a0aaeb3f6216de85b7ffbba7738600c83815481106200083e576200083d620013d7565b5b9060005260206000200160009054906101000a900473ffffffffffffffffffffffffffffffffffffffff1662000a8260201b60201c565b620008e9600c828154811062000890576200088f620013d7565b5b9060005260206000200160009054906101000a900473ffffffffffffffffffffffffffffffffffffffff16600d8381548110620008d257620008d1620013d7565b5b906000526020600020015462000a9860201b60201c565b8080620008f69062001435565b915050620007f4565b5060005b600e8054905081101562000a0e57620009847f5146a08baf902532d0ee2f909971144f12ca32651cd70cbee1117cddfb3b3b33600e83815481106200094d576200094c620013d7565b5b9060005260206000200160009054906101000a900473ffffffffffffffffffffffffffffffffffffffff1662000a8260201b60201c565b620009f8600e82815481106200099f576200099e620013d7565b5b9060005260206000200160009054906101000a900473ffffffffffffffffffffffffffffffffffffffff16600f8381548110620009e157620009e0620013d7565b5b906000526020600020015462000a9860201b60201c565b808062000a059062001435565b91505062000903565b5050505050505050505062001573565b600062000a318362000c3060201b60201c565b90508160056000858152602001908152602001600020600101819055508181847fbd79b86ffe0ab8e8776151514217cd7cacd52c909f66475c3af44e129f0b00ff60405160405180910390a4505050565b62000a94828262000c5060201b60201c565b5050565b62000af481601060008573ffffffffffffffffffffffffffffffffffffffff1673ffffffffffffffffffffffffffffffffffffffff1681526020019081526020016000206002015462000d4260201b6200250f1790919060201c565b601060008473ffffffffffffffffffffffffffffffffffffffff1673ffffffffffffffffffffffffffffffffffffffff1681526020019081526020016000206002018190555062000b9681601060008573ffffffffffffffffffffffffffffffffffffffff1673ffffffffffffffffffffffffffffffffffffffff1681526020019081526020016000206001015462000d4260201b6200250f1790919060201c565b601060008473ffffffffffffffffffffffffffffffffffffffff1673ffffffffffffffffffffffffffffffffffffffff168152602001908152602001600020600101819055508173ffffffffffffffffffffffffffffffffffffffff167f231472cdefc3c25438a167454431d6b08cddc40dcc454abbb9d8d8ca98ebbcd28260405162000c24919062001494565b60405180910390a25050565b600060056000838152602001908152602001600020600101549050919050565b62000c62828262000d5a60201b60201c565b62000d3e5760016005600084815260200190815260200160002060000160008373ffffffffffffffffffffffffffffffffffffffff1673ffffffffffffffffffffffffffffffffffffffff16815260200190815260200160002060006101000a81548160ff02191690831515021790555062000ce362000dc560201b60201c565b73ffffffffffffffffffffffffffffffffffffffff168173ffffffffffffffffffffffffffffffffffffffff16837f2f8788117e7eff1d82e926ec794901d17c78024a50270940304540a733656f0d60405160405180910390a45b5050565b6000818362000d529190620014b1565b905092915050565b60006005600084815260200190815260200160002060000160008373ffffffffffffffffffffffffffffffffffffffff1673ffffffffffffffffffffffffffffffffffffffff16815260200190815260200160002060009054906101000a900460ff16905092915050565b600033905090565b82805482825590600052602060002090810192821562000e49579160200282015b8281111562000e485782518260006101000a81548173ffffffffffffffffffffffffffffffffffffffff021916908373ffffffffffffffffffffffffffffffffffffffff1602179055509160200191906001019062000dee565b5b50905062000e5891906200102f565b5090565b82805482825590600052602060002090810192821562000ea2579160200282015b8281111562000ea1578251829062ffffff1690559160200191906001019062000e7d565b5b50905062000eb191906200102f565b5090565b82805482825590600052602060002090810192821562000f31579160200282015b8281111562000f305782518260006101000a81548173ffffffffffffffffffffffffffffffffffffffff021916908373ffffffffffffffffffffffffffffffffffffffff1602179055509160200191906001019062000ed6565b5b50905062000f4091906200102f565b5090565b82805482825590600052602060002090810192821562000f8b579160200282015b8281111562000f8a578251829063ffffffff1690559160200191906001019062000f65565b5b50905062000f9a91906200102f565b5090565b82805462000fac906200153d565b90600052602060002090601f01602090048101928262000fd057600085556200101c565b82601f1062000feb57805160ff19168380011785556200101c565b828001600101855582156200101c579182015b828111156200101b57825182559160200191906001019062000ffe565b5b5090506200102b91906200102f565b5090565b5b808211156200104a57600081600090555060010162001030565b5090565b6000604051905090565b600080fd5b600080fd5b600080fd5b600080fd5b6000601f19601f8301169050919050565b7f4e487b7100000000000000000000000000000000000000000000000000000000600052604160045260246000fd5b620010b7826200106c565b810181811067ffffffffffffffff82111715620010d957620010d86200107d565b5b80604052505050565b6000620010ee6200104e565b9050620010fc8282620010ac565b919050565b600067ffffffffffffffff8211156200111f576200111e6200107d565b5b6200112a826200106c565b9050602081019050919050565b60005b83811015620011575780820151818401526020810190506200113a565b8381111562001167576000848401525b50505050565b6000620011846200117e8462001101565b620010e2565b905082815260208101848484011115620011a357620011a262001067565b5b620011b084828562001137565b509392505050565b600082601f830112620011d057620011cf62001062565b5b8151620011e28482602086016200116d565b91505092915050565b600073ffffffffffffffffffffffffffffffffffffffff82169050919050565b60006200121882620011eb565b9050919050565b6200122a816200120b565b81146200123657600080fd5b50565b6000815190506200124a816200121f565b92915050565b6000819050919050565b620012658162001250565b81146200127157600080fd5b50565b60008151905062001285816200125a565b92915050565b60008060008060008060008060006101208a8c031215620012b157620012b062001058565b5b60008a015167ffffffffffffffff811115620012d257620012d16200105d565b5b620012e08c828d01620011b8565b99505060208a015167ffffffffffffffff8111156200130457620013036200105d565b5b620013128c828d01620011b8565b9850506040620013258c828d0162001239565b9750506060620013388c828d0162001274565b96505060806200134b8c828d0162001274565b95505060a06200135e8c828d0162001274565b94505060c0620013718c828d0162001274565b93505060e0620013848c828d0162001274565b925050610100620013988c828d0162001239565b9150509295985092959850929598565b7f4e487b7100000000000000000000000000000000000000000000000000000000600052602160045260246000fd5b7f4e487b7100000000000000000000000000000000000000000000000000000000600052603260045260246000fd5b7f4e487b7100000000000000000000000000000000000000000000000000000000600052601160045260246000fd5b6000620014428262001250565b91507fffffffffffffffffffffffffffffffffffffffffffffffffffffffffffffffff82141562001478576200147762001406565b5b600182019050919050565b6200148e8162001250565b82525050565b6000602082019050620014ab600083018462001483565b92915050565b6000620014be8262001250565b9150620014cb8362001250565b9250827fffffffffffffffffffffffffffffffffffffffffffffffffffffffffffffffff0382111562001503576200150262001406565b5b828201905092915050565b7f4e487b7100000000000000000000000000000000000000000000000000000000600052602260045260246000fd5b600060028204905060018216806200155657607f821691505b602082108114156200156d576200156c6200150e565b5b50919050565b61450980620015836000396000f3fe60806040526004361061023f5760003560e01c806375b238fc1161012e578063c06d1272116100ab578063d547741f1161006f578063d547741f14610932578063dd62ed3e1461095b578063e5130c9014610998578063e657807b146109c1578063ef6e312d146109d857610298565b8063c06d127214610873578063c7876ea41461088a578063c807cb25146108b5578063cab24ee6146108de578063cb9974d61461090757610298565b8063a217fddf116100f2578063a217fddf1461077a578063a3dd2619146107a5578063a457c2d7146107d0578063a9059cbb1461080d578063b04fd8451461084a57610298565b806375b238fc146106a557806376082a5e146106d057806389311e6f146106fb57806391d148541461071257806395d89b411461074f57610298565b806339509351116101bc578063523e955111610180578063523e95511461059a57806353ab1a7c146105c3578063554d578d146106005780635de593cd1461062b57806370a082311461066857610298565b806339509351146104a157806347e7ef24146104de57806347fcfb7e1461050757806349d5e604146105445780634cb84b9a1461056f57610298565b8063248a9ca311610203578063248a9ca3146103aa5780632c083c97146103e75780632f2ff15d14610424578063313ce5671461044d57806336568abe1461047857610298565b806301ffc9a71461029d57806306fdde03146102da578063095ea7b31461030557806318160ddd1461034257806323b872dd1461036d57610298565b366102985760003490506000610281670de0b6b3a764000061027368056bc75e2d6310000085610a0390919063ffffffff16565b610a1990919063ffffffff16565b905061029461028e610a2f565b82610a37565b5050005b600080fd5b3480156102a957600080fd5b506102c460048036038101906102bf91906130e3565b610d02565b6040516102d1919061312b565b60405180910390f35b3480156102e657600080fd5b506102ef610d7c565b6040516102fc91906131df565b60405180910390f35b34801561031157600080fd5b5061032c60048036038101906103279190613295565b610e0e565b604051610339919061312b565b60405180910390f35b34801561034e57600080fd5b50610357610e2c565b60405161036491906132e4565b60405180910390f35b34801561037957600080fd5b50610394600480360381019061038f91906132ff565b610e36565b6040516103a1919061312b565b60405180910390f35b3480156103b657600080fd5b506103d160048036038101906103cc9190613388565b610f2e565b6040516103de91906133c4565b60405180910390f35b3480156103f357600080fd5b5061040e600480360381019061040991906133df565b610f4e565b60405161041b91906132e4565b60405180910390f35b34801561043057600080fd5b5061044b6004803603810190610446919061340c565b611115565b005b34801561045957600080fd5b5061046261113e565b60405161046f9190613468565b60405180910390f35b34801561048457600080fd5b5061049f600480360381019061049a919061340c565b611147565b005b3480156104ad57600080fd5b506104c860048036038101906104c39190613295565b6111ca565b6040516104d5919061312b565b60405180910390f35b3480156104ea57600080fd5b5061050560048036038101906105009190613295565b610a37565b005b34801561051357600080fd5b5061052e600480360381019061052991906133df565b611276565b60405161053b91906132e4565b60405180910390f35b34801561055057600080fd5b50610559611368565b60405161056691906133c4565b60405180910390f35b34801561057b57600080fd5b5061058461138c565b60405161059191906132e4565b60405180910390f35b3480156105a657600080fd5b506105c160048036038101906105bc9190613483565b611396565b005b3480156105cf57600080fd5b506105ea60048036038101906105e591906133df565b61145b565b6040516105f791906132e4565b60405180910390f35b34801561060c57600080fd5b5061061561154a565b60405161062291906132e4565b60405180910390f35b34801561063757600080fd5b50610652600480360381019061064d91906133df565b611554565b60405161065f9190613527565b60405180910390f35b34801561067457600080fd5b5061068f600480360381019061068a91906133df565b6115aa565b60405161069c91906132e4565b60405180910390f35b3480156106b157600080fd5b506106ba6115f2565b6040516106c791906133c4565b60405180910390f35b3480156106dc57600080fd5b506106e5611616565b6040516106f291906133c4565b60405180910390f35b34801561070757600080fd5b5061071061163a565b005b34801561071e57600080fd5b506107396004803603810190610734919061340c565b6116d7565b604051610746919061312b565b60405180910390f35b34801561075b57600080fd5b50610764611742565b60405161077191906131df565b60405180910390f35b34801561078657600080fd5b5061078f6117d4565b60405161079c91906133c4565b60405180910390f35b3480156107b157600080fd5b506107ba6117db565b6040516107c791906131df565b60405180910390f35b3480156107dc57600080fd5b506107f760048036038101906107f29190613295565b611984565b604051610804919061312b565b60405180910390f35b34801561081957600080fd5b50610834600480360381019061082f9190613295565b611a6f565b604051610841919061312b565b60405180910390f35b34801561085657600080fd5b50610871600480360381019061086c9190613295565b611bad565b005b34801561087f57600080fd5b50610888611d35565b005b34801561089657600080fd5b5061089f611dd2565b6040516108ac91906132e4565b60405180910390f35b3480156108c157600080fd5b506108dc60048036038101906108d79190613483565b611ddf565b005b3480156108ea57600080fd5b5061090560048036038101906109009190613567565b6120f4565b005b34801561091357600080fd5b5061091c61221d565b60405161092991906133c4565b60405180910390f35b34801561093e57600080fd5b506109596004803603810190610954919061340c565b612241565b005b34801561096757600080fd5b50610982600480360381019061097d91906135a7565b61226a565b60405161098f91906132e4565b60405180910390f35b3480156109a457600080fd5b506109bf60048036038101906109ba9190613295565b6122f1565b005b3480156109cd57600080fd5b506109d66123b4565b005b3480156109e457600080fd5b506109ed612505565b6040516109fa91906132e4565b60405180910390f35b60008183610a119190613616565b905092915050565b60008183610a27919061369f565b905092915050565b600033905090565b600081905060016003811115610a5057610a4f6134b0565b5b601260009054906101000a900460ff166003811115610a7257610a716134b0565b5b1415610b7757610ab281610aa46064610a9660075486610a0390919063ffffffff16565b610a1990919063ffffffff16565b61250f90919063ffffffff16565b9050600854610acc8260095461250f90919063ffffffff16565b1115610b0d576040517f08c379a0000000000000000000000000000000000000000000000000000000008152600401610b049061371c565b60405180910390fd5b600180811115610b2057610b1f6134b0565b5b610b2984611554565b6001811115610b3b57610b3a6134b0565b5b1415610b4d57610b4c8360006120f4565b5b610b628160095461250f90919063ffffffff16565b600981905550610b728382611bad565b610cfd565b60026003811115610b8b57610b8a6134b0565b5b601260009054906101000a900460ff166003811115610bad57610bac6134b0565b5b1415610ca457610bed81610bdf6064610bd160065486610a0390919063ffffffff16565b610a1990919063ffffffff16565b61250f90919063ffffffff16565b9050600854610c078260095461250f90919063ffffffff16565b1115610c48576040517f08c379a0000000000000000000000000000000000000000000000000000000008152600401610c3f9061371c565b60405180910390fd5b600180811115610c5b57610c5a6134b0565b5b610c6484611554565b6001811115610c7657610c756134b0565b5b1415610c8857610c878360006120f4565b5b610c9d8160095461250f90919063ffffffff16565b6009819055505b610cae8382612525565b8273ffffffffffffffffffffffffffffffffffffffff167fe1fffcc4923d04b559f4d29a8bfc6cda04eb5b0d3c460751c2402c5c5cc9109c82604051610cf491906132e4565b60405180910390a25b505050565b60007f7965db0b000000000000000000000000000000000000000000000000000000007bffffffffffffffffffffffffffffffffffffffffffffffffffffffff1916827bffffffffffffffffffffffffffffffffffffffffffffffffffffffff19161480610d755750610d7482612596565b5b9050919050565b606060038054610d8b9061376b565b80601f0160208091040260200160405190810160405280929190818152602001828054610db79061376b565b8015610e045780601f10610dd957610100808354040283529160200191610e04565b820191906000526020600020905b815481529060010190602001808311610de757829003601f168201915b5050505050905090565b6000610e22610e1b610a2f565b8484612600565b6001905092915050565b6000600254905090565b6000610e438484846127cb565b6000600160008673ffffffffffffffffffffffffffffffffffffffff1673ffffffffffffffffffffffffffffffffffffffff1681526020019081526020016000206000610e8e610a2f565b73ffffffffffffffffffffffffffffffffffffffff1673ffffffffffffffffffffffffffffffffffffffff16815260200190815260200160002054905082811015610f0e576040517f08c379a0000000000000000000000000000000000000000000000000000000008152600401610f059061380f565b60405180910390fd5b610f2285610f1a610a2f565b858403612600565b60019150509392505050565b600060056000838152602001908152602001600020600101549050919050565b600080600a5490506000600380811115610f6b57610f6a6134b0565b5b601260009054906101000a900460ff166003811115610f8d57610f8c6134b0565b5b14610f9d57600092505050611110565b5b610fc87f9a655bf4f3f1c7d2f9e9e0f77235619a2dbb74cae04687c73945e706d64d1c56856116d7565b1561100157610fe160148261250f90919063ffffffff16565b9050610ffa63013c68008361250f90919063ffffffff16565b91506110f6565b61102b7f5146a08baf902532d0ee2f909971144f12ca32651cd70cbee1117cddfb3b3b33856116d7565b1561106357611044601e8261250f90919063ffffffff16565b905061105c629e34008361250f90919063ffffffff16565b91506110f5565b61108d7fb165298935924f540e4181c03493a5d686c54a0aaeb3f6216de85b7ffbba7738856116d7565b156110c5576110a660198261250f90919063ffffffff16565b90506110be62ed4e008361250f90919063ffffffff16565b91506110f4565b6110d960148261250f90919063ffffffff16565b90506110f16276a7008361250f90919063ffffffff16565b91505b5b5b4282108015611106575060648111155b610f9e5780925050505b919050565b61111e82610f2e565b61112f8161112a610a2f565b612a4c565b6111398383612ae9565b505050565b60006012905090565b61114f610a2f565b73ffffffffffffffffffffffffffffffffffffffff168173ffffffffffffffffffffffffffffffffffffffff16146111bc576040517f08c379a00000000000000000000000000000000000000000000000000000000081526004016111b3906138a1565b60405180910390fd5b6111c68282612bca565b5050565b600061126c6111d7610a2f565b8484600160006111e5610a2f565b73ffffffffffffffffffffffffffffffffffffffff1673ffffffffffffffffffffffffffffffffffffffff16815260200190815260200160002060008873ffffffffffffffffffffffffffffffffffffffff1673ffffffffffffffffffffffffffffffffffffffff1681526020019081526020016000205461126791906138c1565b612600565b6001905092915050565b6000806000600a90505b60648111611304576112ee601060008673ffffffffffffffffffffffffffffffffffffffff1673ffffffffffffffffffffffffffffffffffffffff1681526020019081526020016000206000016000838152602001908152602001600020548361250f90919063ffffffff16565b9150600a816112fd91906138c1565b9050611280565b506000601060008573ffffffffffffffffffffffffffffffffffffffff1673ffffffffffffffffffffffffffffffffffffffff16815260200190815260200160002060020154905061135f8282612cac90919063ffffffff16565b92505050919050565b7f5146a08baf902532d0ee2f909971144f12ca32651cd70cbee1117cddfb3b3b3381565b6000600854905090565b6113c77fa49807205ce4d355092ef5a8a18f56e8913cf4a201fbe287825b095693c217756113c2610a2f565b6116d7565b611406576040517f08c379a00000000000000000000000000000000000000000000000000000000081526004016113fd90613989565b60405180910390fd5b61141b81600b5461250f90919063ffffffff16565b600b819055507f80abc82f9231153a7e1aac6902d6bc5a1c5f5cc02bf2643efada847881696ca38160405161145091906132e4565b60405180910390a150565b60008061146783610f4e565b905060006114d3826114c56064601060008973ffffffffffffffffffffffffffffffffffffffff1673ffffffffffffffffffffffffffffffffffffffff16815260200190815260200160002060020154610a1990919063ffffffff16565b610a0390919063ffffffff16565b90506000601060008673ffffffffffffffffffffffffffffffffffffffff1673ffffffffffffffffffffffffffffffffffffffff16815260200190815260200160002060000160008481526020019081526020016000205490506115408183612cac90919063ffffffff16565b9350505050919050565b6000600b54905090565b6000601160008373ffffffffffffffffffffffffffffffffffffffff1673ffffffffffffffffffffffffffffffffffffffff16815260200190815260200160002060009054906101000a900460ff169050919050565b60008060008373ffffffffffffffffffffffffffffffffffffffff1673ffffffffffffffffffffffffffffffffffffffff168152602001908152602001600020549050919050565b7fa49807205ce4d355092ef5a8a18f56e8913cf4a201fbe287825b095693c2177581565b7fb165298935924f540e4181c03493a5d686c54a0aaeb3f6216de85b7ffbba773881565b61166b7fa49807205ce4d355092ef5a8a18f56e8913cf4a201fbe287825b095693c21775611666610a2f565b6116d7565b6116aa576040517f08c379a00000000000000000000000000000000000000000000000000000000081526004016116a190613a1b565b60405180910390fd5b6002601260006101000a81548160ff021916908360038111156116d0576116cf6134b0565b5b0217905550565b60006005600084815260200190815260200160002060000160008373ffffffffffffffffffffffffffffffffffffffff1673ffffffffffffffffffffffffffffffffffffffff16815260200190815260200160002060009054906101000a900460ff16905092915050565b6060600480546117519061376b565b80601f016020809104026020016040519081016040528092919081815260200182805461177d9061376b565b80156117ca5780601f1061179f576101008083540402835291602001916117ca565b820191906000526020600020905b8154815290600101906020018083116117ad57829003601f168201915b5050505050905090565b6000801b81565b6060600060038111156117f1576117f06134b0565b5b601260009054906101000a900460ff166003811115611813576118126134b0565b5b1415611856576040518060400160405280600a81526020017f4e6f7453746172746564000000000000000000000000000000000000000000008152509050611981565b6001600381111561186a576118696134b0565b5b601260009054906101000a900460ff16600381111561188c5761188b6134b0565b5b14156118cf576040518060400160405280600781526020017f5072652049434f000000000000000000000000000000000000000000000000008152509050611981565b600260038111156118e3576118e26134b0565b5b601260009054906101000a900460ff166003811115611905576119046134b0565b5b1415611948576040518060400160405280600381526020017f49434f00000000000000000000000000000000000000000000000000000000008152509050611981565b6040518060400160405280600881526020017f46696e697368656400000000000000000000000000000000000000000000000081525090505b90565b60008060016000611993610a2f565b73ffffffffffffffffffffffffffffffffffffffff1673ffffffffffffffffffffffffffffffffffffffff16815260200190815260200160002060008573ffffffffffffffffffffffffffffffffffffffff1673ffffffffffffffffffffffffffffffffffffffff16815260200190815260200160002054905082811015611a50576040517f08c379a0000000000000000000000000000000000000000000000000000000008152600401611a4790613aad565b60405180910390fd5b611a64611a5b610a2f565b85858403612600565b600191505092915050565b6000611aa27fa49807205ce4d355092ef5a8a18f56e8913cf4a201fbe287825b095693c21775611a9d610a2f565b6116d7565b611b1c57600380811115611ab957611ab86134b0565b5b601260009054906101000a900460ff166003811115611adb57611ada6134b0565b5b14611b1b576040517f08c379a0000000000000000000000000000000000000000000000000000000008152600401611b1290613b19565b60405180910390fd5b5b600180811115611b2f57611b2e6134b0565b5b611b3f611b3a610a2f565b611554565b6001811115611b5157611b506134b0565b5b14611b91576040517f08c379a0000000000000000000000000000000000000000000000000000000008152600401611b8890613b85565b60405180910390fd5b611ba3611b9c610a2f565b84846127cb565b6001905092915050565b611c0281601060008573ffffffffffffffffffffffffffffffffffffffff1673ffffffffffffffffffffffffffffffffffffffff1681526020019081526020016000206002015461250f90919063ffffffff16565b601060008473ffffffffffffffffffffffffffffffffffffffff1673ffffffffffffffffffffffffffffffffffffffff16815260200190815260200160002060020181905550611c9d81601060008573ffffffffffffffffffffffffffffffffffffffff1673ffffffffffffffffffffffffffffffffffffffff1681526020019081526020016000206001015461250f90919063ffffffff16565b601060008473ffffffffffffffffffffffffffffffffffffffff1673ffffffffffffffffffffffffffffffffffffffff168152602001908152602001600020600101819055508173ffffffffffffffffffffffffffffffffffffffff167f231472cdefc3c25438a167454431d6b08cddc40dcc454abbb9d8d8ca98ebbcd282604051611d2991906132e4565b60405180910390a25050565b611d667fa49807205ce4d355092ef5a8a18f56e8913cf4a201fbe287825b095693c21775611d61610a2f565b6116d7565b611da5576040517f08c379a0000000000000000000000000000000000000000000000000000000008152600401611d9c90613c17565b60405180910390fd5b6001601260006101000a81548160ff02191690836003811115611dcb57611dca6134b0565b5b0217905550565b68056bc75e2d6310000081565b6000611df1611dec610a2f565b610f4e565b90506000611ed060106000611e04610a2f565b73ffffffffffffffffffffffffffffffffffffffff1673ffffffffffffffffffffffffffffffffffffffff168152602001908152602001600020600001600084815260200190815260200160002054611ec284611eb4606460106000611e68610a2f565b73ffffffffffffffffffffffffffffffffffffffff1673ffffffffffffffffffffffffffffffffffffffff16815260200190815260200160002060020154610a1990919063ffffffff16565b610a0390919063ffffffff16565b612cac90919063ffffffff16565b905080831115611f15576040517f08c379a0000000000000000000000000000000000000000000000000000000008152600401611f0c90613ca9565b60405180910390fd5b611f718360106000611f25610a2f565b73ffffffffffffffffffffffffffffffffffffffff1673ffffffffffffffffffffffffffffffffffffffff16815260200190815260200160002060010154612cac90919063ffffffff16565b60106000611f7d610a2f565b73ffffffffffffffffffffffffffffffffffffffff1673ffffffffffffffffffffffffffffffffffffffff1681526020019081526020016000206001018190555061202b8360106000611fce610a2f565b73ffffffffffffffffffffffffffffffffffffffff1673ffffffffffffffffffffffffffffffffffffffff16815260200190815260200160002060000160008581526020019081526020016000205461250f90919063ffffffff16565b60106000612037610a2f565b73ffffffffffffffffffffffffffffffffffffffff1673ffffffffffffffffffffffffffffffffffffffff16815260200190815260200160002060000160008481526020019081526020016000208190555061209a612094610a2f565b84612525565b6120a2610a2f565b73ffffffffffffffffffffffffffffffffffffffff167f393c95e9d26e675951a2e5342d80b93219994d655eb7f2834bde4f51a4a79272846040516120e791906132e4565b60405180910390a2505050565b6121257fa49807205ce4d355092ef5a8a18f56e8913cf4a201fbe287825b095693c21775612120610a2f565b6116d7565b612164576040517f08c379a000000000000000000000000000000000000000000000000000000000815260040161215b90613d3b565b60405180910390fd5b80601160008473ffffffffffffffffffffffffffffffffffffffff1673ffffffffffffffffffffffffffffffffffffffff16815260200190815260200160002060006101000a81548160ff021916908360018111156121c6576121c56134b0565b5b02179055508173ffffffffffffffffffffffffffffffffffffffff167fe889d83d305e4aa8bb35213963828d1bd52e88e6af324362092d9b1622a4f27c826040516122119190613527565b60405180910390a25050565b7f9a655bf4f3f1c7d2f9e9e0f77235619a2dbb74cae04687c73945e706d64d1c5681565b61224a82610f2e565b61225b81612256610a2f565b612a4c565b6122658383612bca565b505050565b6000600160008473ffffffffffffffffffffffffffffffffffffffff1673ffffffffffffffffffffffffffffffffffffffff16815260200190815260200160002060008373ffffffffffffffffffffffffffffffffffffffff1673ffffffffffffffffffffffffffffffffffffffff16815260200190815260200160002054905092915050565b6123227fa49807205ce4d355092ef5a8a18f56e8913cf4a201fbe287825b095693c2177561231d610a2f565b6116d7565b612361576040517f08c379a000000000000000000000000000000000000000000000000000000000815260040161235890613dcd565b60405180910390fd5b61238b7f9a655bf4f3f1c7d2f9e9e0f77235619a2dbb74cae04687c73945e706d64d1c5683612cc2565b6123958282611bad565b6123aa8160095461250f90919063ffffffff16565b6009819055505050565b600260038111156123c8576123c76134b0565b5b601260009054906101000a900460ff1660038111156123ea576123e96134b0565b5b1461242a576040517f08c379a000000000000000000000000000000000000000000000000000000000815260040161242190613e39565b60405180910390fd5b61245b7fa49807205ce4d355092ef5a8a18f56e8913cf4a201fbe287825b095693c21775612456610a2f565b6116d7565b61249a576040517f08c379a000000000000000000000000000000000000000000000000000000000815260040161249190613ecb565b60405180910390fd5b60006124b3600954600854612cac90919063ffffffff16565b90506003601260006101000a81548160ff021916908360038111156124db576124da6134b0565b5b021790555042600a819055506000811115612502576125016124fb610a2f565b82610a37565b5b50565b6000600954905090565b6000818361251d91906138c1565b905092915050565b61252d61154a565b61254782612539610e2c565b61250f90919063ffffffff16565b1115612588576040517f08c379a000000000000000000000000000000000000000000000000000000000815260040161257f90613f37565b60405180910390fd5b6125928282612cd0565b5050565b60007f01ffc9a7000000000000000000000000000000000000000000000000000000007bffffffffffffffffffffffffffffffffffffffffffffffffffffffff1916827bffffffffffffffffffffffffffffffffffffffffffffffffffffffff1916149050919050565b600073ffffffffffffffffffffffffffffffffffffffff168373ffffffffffffffffffffffffffffffffffffffff161415612670576040517f08c379a000000000000000000000000000000000000000000000000000000000815260040161266790613fc9565b60405180910390fd5b600073ffffffffffffffffffffffffffffffffffffffff168273ffffffffffffffffffffffffffffffffffffffff1614156126e0576040517f08c379a00000000000000000000000000000000000000000000000000000000081526004016126d79061405b565b60405180910390fd5b80600160008573ffffffffffffffffffffffffffffffffffffffff1673ffffffffffffffffffffffffffffffffffffffff16815260200190815260200160002060008473ffffffffffffffffffffffffffffffffffffffff1673ffffffffffffffffffffffffffffffffffffffff168152602001908152602001600020819055508173ffffffffffffffffffffffffffffffffffffffff168373ffffffffffffffffffffffffffffffffffffffff167f8c5be1e5ebec7d5bd14f71427d1e84f3dd0314c0f7b2291e5b200ac8c7c3b925836040516127be91906132e4565b60405180910390a3505050565b600073ffffffffffffffffffffffffffffffffffffffff168373ffffffffffffffffffffffffffffffffffffffff16141561283b576040517f08c379a0000000000000000000000000000000000000000000000000000000008152600401612832906140ed565b60405180910390fd5b600073ffffffffffffffffffffffffffffffffffffffff168273ffffffffffffffffffffffffffffffffffffffff1614156128ab576040517f08c379a00000000000000000000000000000000000000000000000000000000081526004016128a29061417f565b60405180910390fd5b6128b6838383612e30565b60008060008573ffffffffffffffffffffffffffffffffffffffff1673ffffffffffffffffffffffffffffffffffffffff1681526020019081526020016000205490508181101561293c576040517f08c379a000000000000000000000000000000000000000000000000000000000815260040161293390614211565b60405180910390fd5b8181036000808673ffffffffffffffffffffffffffffffffffffffff1673ffffffffffffffffffffffffffffffffffffffff16815260200190815260200160002081905550816000808573ffffffffffffffffffffffffffffffffffffffff1673ffffffffffffffffffffffffffffffffffffffff16815260200190815260200160002060008282546129cf91906138c1565b925050819055508273ffffffffffffffffffffffffffffffffffffffff168473ffffffffffffffffffffffffffffffffffffffff167fddf252ad1be2c89b69c2b068fc378daa952ba7f163c4a11628f55a4df523b3ef84604051612a3391906132e4565b60405180910390a3612a46848484612e40565b50505050565b612a5682826116d7565b612ae557612a7b8173ffffffffffffffffffffffffffffffffffffffff166014612e45565b612a898360001c6020612e45565b604051602001612a9a929190614305565b6040516020818303038152906040526040517f08c379a0000000000000000000000000000000000000000000000000000000008152600401612adc91906131df565b60405180910390fd5b5050565b612af382826116d7565b612bc65760016005600084815260200190815260200160002060000160008373ffffffffffffffffffffffffffffffffffffffff1673ffffffffffffffffffffffffffffffffffffffff16815260200190815260200160002060006101000a81548160ff021916908315150217905550612b6b610a2f565b73ffffffffffffffffffffffffffffffffffffffff168173ffffffffffffffffffffffffffffffffffffffff16837f2f8788117e7eff1d82e926ec794901d17c78024a50270940304540a733656f0d60405160405180910390a45b5050565b612bd482826116d7565b15612ca85760006005600084815260200190815260200160002060000160008373ffffffffffffffffffffffffffffffffffffffff1673ffffffffffffffffffffffffffffffffffffffff16815260200190815260200160002060006101000a81548160ff021916908315150217905550612c4d610a2f565b73ffffffffffffffffffffffffffffffffffffffff168173ffffffffffffffffffffffffffffffffffffffff16837ff6391f5c32d9c69d2a47ea670b442974b53935d1edc7fd64eb21e047a839171b60405160405180910390a45b5050565b60008183612cba919061433f565b905092915050565b612ccc8282612ae9565b5050565b600073ffffffffffffffffffffffffffffffffffffffff168273ffffffffffffffffffffffffffffffffffffffff161415612d40576040517f08c379a0000000000000000000000000000000000000000000000000000000008152600401612d37906143bf565b60405180910390fd5b612d4c60008383612e30565b8060026000828254612d5e91906138c1565b92505081905550806000808473ffffffffffffffffffffffffffffffffffffffff1673ffffffffffffffffffffffffffffffffffffffff1681526020019081526020016000206000828254612db391906138c1565b925050819055508173ffffffffffffffffffffffffffffffffffffffff16600073ffffffffffffffffffffffffffffffffffffffff167fddf252ad1be2c89b69c2b068fc378daa952ba7f163c4a11628f55a4df523b3ef83604051612e1891906132e4565b60405180910390a3612e2c60008383612e40565b5050565b612e3b838383613081565b505050565b505050565b606060006002836002612e589190613616565b612e6291906138c1565b67ffffffffffffffff811115612e7b57612e7a6143df565b5b6040519080825280601f01601f191660200182016040528015612ead5781602001600182028036833780820191505090505b5090507f300000000000000000000000000000000000000000000000000000000000000081600081518110612ee557612ee461440e565b5b60200101907effffffffffffffffffffffffffffffffffffffffffffffffffffffffffffff1916908160001a9053507f780000000000000000000000000000000000000000000000000000000000000081600181518110612f4957612f4861440e565b5b60200101907effffffffffffffffffffffffffffffffffffffffffffffffffffffffffffff1916908160001a90535060006001846002612f899190613616565b612f9391906138c1565b90505b6001811115613033577f3031323334353637383961626364656600000000000000000000000000000000600f861660108110612fd557612fd461440e565b5b1a60f81b828281518110612fec57612feb61440e565b5b60200101907effffffffffffffffffffffffffffffffffffffffffffffffffffffffffffff1916908160001a905350600485901c94508061302c9061443d565b9050612f96565b5060008414613077576040517f08c379a000000000000000000000000000000000000000000000000000000000815260040161306e906144b3565b60405180910390fd5b8091505092915050565b505050565b600080fd5b60007fffffffff0000000000000000000000000000000000000000000000000000000082169050919050565b6130c08161308b565b81146130cb57600080fd5b50565b6000813590506130dd816130b7565b92915050565b6000602082840312156130f9576130f8613086565b5b6000613107848285016130ce565b91505092915050565b60008115159050919050565b61312581613110565b82525050565b6000602082019050613140600083018461311c565b92915050565b600081519050919050565b600082825260208201905092915050565b60005b83811015613180578082015181840152602081019050613165565b8381111561318f576000848401525b50505050565b6000601f19601f8301169050919050565b60006131b182613146565b6131bb8185613151565b93506131cb818560208601613162565b6131d481613195565b840191505092915050565b600060208201905081810360008301526131f981846131a6565b905092915050565b600073ffffffffffffffffffffffffffffffffffffffff82169050919050565b600061322c82613201565b9050919050565b61323c81613221565b811461324757600080fd5b50565b60008135905061325981613233565b92915050565b6000819050919050565b6132728161325f565b811461327d57600080fd5b50565b60008135905061328f81613269565b92915050565b600080604083850312156132ac576132ab613086565b5b60006132ba8582860161324a565b92505060206132cb85828601613280565b9150509250929050565b6132de8161325f565b82525050565b60006020820190506132f960008301846132d5565b92915050565b60008060006060848603121561331857613317613086565b5b60006133268682870161324a565b93505060206133378682870161324a565b925050604061334886828701613280565b9150509250925092565b6000819050919050565b61336581613352565b811461337057600080fd5b50565b6000813590506133828161335c565b92915050565b60006020828403121561339e5761339d613086565b5b60006133ac84828501613373565b91505092915050565b6133be81613352565b82525050565b60006020820190506133d960008301846133b5565b92915050565b6000602082840312156133f5576133f4613086565b5b60006134038482850161324a565b91505092915050565b6000806040838503121561342357613422613086565b5b600061343185828601613373565b92505060206134428582860161324a565b9150509250929050565b600060ff82169050919050565b6134628161344c565b82525050565b600060208201905061347d6000830184613459565b92915050565b60006020828403121561349957613498613086565b5b60006134a784828501613280565b91505092915050565b7f4e487b7100000000000000000000000000000000000000000000000000000000600052602160045260246000fd5b600281106134f0576134ef6134b0565b5b50565b6000819050613501826134df565b919050565b6000613511826134f3565b9050919050565b61352181613506565b82525050565b600060208201905061353c6000830184613518565b92915050565b6002811061354f57600080fd5b50565b60008135905061356181613542565b92915050565b6000806040838503121561357e5761357d613086565b5b600061358c8582860161324a565b925050602061359d85828601613552565b9150509250929050565b600080604083850312156135be576135bd613086565b5b60006135cc8582860161324a565b92505060206135dd8582860161324a565b9150509250929050565b7f4e487b7100000000000000000000000000000000000000000000000000000000600052601160045260246000fd5b60006136218261325f565b915061362c8361325f565b9250817fffffffffffffffffffffffffffffffffffffffffffffffffffffffffffffffff0483118215151615613665576136646135e7565b5b828202905092915050565b7f4e487b7100000000000000000000000000000000000000000000000000000000600052601260045260246000fd5b60006136aa8261325f565b91506136b58361325f565b9250826136c5576136c4613670565b5b828204905092915050565b7f5665656c616e63696e673a2049434f2043617020657863656465656400000000600082015250565b6000613706601c83613151565b9150613711826136d0565b602082019050919050565b60006020820190508181036000830152613735816136f9565b9050919050565b7f4e487b7100000000000000000000000000000000000000000000000000000000600052602260045260246000fd5b6000600282049050600182168061378357607f821691505b602082108114156137975761379661373c565b5b50919050565b7f45524332303a207472616e7366657220616d6f756e742065786365656473206160008201527f6c6c6f77616e6365000000000000000000000000000000000000000000000000602082015250565b60006137f9602883613151565b91506138048261379d565b604082019050919050565b60006020820190508181036000830152613828816137ec565b9050919050565b7f416363657373436f6e74726f6c3a2063616e206f6e6c792072656e6f756e636560008201527f20726f6c657320666f722073656c660000000000000000000000000000000000602082015250565b600061388b602f83613151565b91506138968261382f565b604082019050919050565b600060208201905081810360008301526138ba8161387e565b9050919050565b60006138cc8261325f565b91506138d78361325f565b9250827fffffffffffffffffffffffffffffffffffffffffffffffffffffffffffffffff0382111561390c5761390b6135e7565b5b828201905092915050565b7f5665656c616e63696e673a204f6e6c792061646d696e2063616e20696e63726560008201527f6173652074686520636170000000000000000000000000000000000000000000602082015250565b6000613973602b83613151565b915061397e82613917565b604082019050919050565b600060208201905081810360008301526139a281613966565b9050919050565b7f5665656c616e63696e673a204f6e6c79207468652061646d696e2063616e207360008201527f74617274207468652049434f0000000000000000000000000000000000000000602082015250565b6000613a05602c83613151565b9150613a10826139a9565b604082019050919050565b60006020820190508181036000830152613a34816139f8565b9050919050565b7f45524332303a2064656372656173656420616c6c6f77616e63652062656c6f7760008201527f207a65726f000000000000000000000000000000000000000000000000000000602082015250565b6000613a97602583613151565b9150613aa282613a3b565b604082019050919050565b60006020820190508181036000830152613ac681613a8a565b9050919050565b7f5665656c616e63696e673a2049434f20736561736f6e00000000000000000000600082015250565b6000613b03601683613151565b9150613b0e82613acd565b602082019050919050565b60006020820190508181036000830152613b3281613af6565b9050919050565b7f5665656c616e63696e673a2057616c6c657420697320626c6f636b6564000000600082015250565b6000613b6f601d83613151565b9150613b7a82613b39565b602082019050919050565b60006020820190508181036000830152613b9e81613b62565b9050919050565b7f5665656c616e63696e673a204f6e6c79207468652061646d696e2063616e207360008201527f7461727420746865205072652049434f00000000000000000000000000000000602082015250565b6000613c01603083613151565b9150613c0c82613ba5565b604082019050919050565b60006020820190508181036000830152613c3081613bf4565b9050919050565b7f5665656c616e63696e673a20776974686472617720616d6f756e74206578636560008201527f6564732062616c616e6365000000000000000000000000000000000000000000602082015250565b6000613c93602b83613151565b9150613c9e82613c37565b604082019050919050565b60006020820190508181036000830152613cc281613c86565b9050919050565b7f5665656c616e63696e673a204f6e6c79207468652061646d696e2063616e206360008201527f68616e6765207468652077616c6c657420737461747573000000000000000000602082015250565b6000613d25603783613151565b9150613d3082613cc9565b604082019050919050565b60006020820190508181036000830152613d5481613d18565b9050919050565b7f5665656c616e63696e673a204f6e6c79207468652061646d696e2063616e206360008201527f726561746520626f6e7573657300000000000000000000000000000000000000602082015250565b6000613db7602d83613151565b9150613dc282613d5b565b604082019050919050565b60006020820190508181036000830152613de681613daa565b9050919050565b7f5665656c616e63696e673a2049434f20616c726561647920656e6465642e0000600082015250565b6000613e23601e83613151565b9150613e2e82613ded565b602082019050919050565b60006020820190508181036000830152613e5281613e16565b9050919050565b7f5665656c616e63696e673a204f6e6c79207468652061646d696e2063616e206560008201527f6e64207468652049434f00000000000000000000000000000000000000000000602082015250565b6000613eb5602a83613151565b9150613ec082613e59565b604082019050919050565b60006020820190508181036000830152613ee481613ea8565b9050919050565b7f5665656c616e63696e673a204361702065786365656465640000000000000000600082015250565b6000613f21601883613151565b9150613f2c82613eeb565b602082019050919050565b60006020820190508181036000830152613f5081613f14565b9050919050565b7f45524332303a20617070726f76652066726f6d20746865207a65726f2061646460008201527f7265737300000000000000000000000000000000000000000000000000000000602082015250565b6000613fb3602483613151565b9150613fbe82613f57565b604082019050919050565b60006020820190508181036000830152613fe281613fa6565b9050919050565b7f45524332303a20617070726f766520746f20746865207a65726f20616464726560008201527f7373000000000000000000000000000000000000000000000000000000000000602082015250565b6000614045602283613151565b915061405082613fe9565b604082019050919050565b6000602082019050818103600083015261407481614038565b9050919050565b7f45524332303a207472616e736665722066726f6d20746865207a65726f20616460008201527f6472657373000000000000000000000000000000000000000000000000000000602082015250565b60006140d7602583613151565b91506140e28261407b565b604082019050919050565b60006020820190508181036000830152614106816140ca565b9050919050565b7f45524332303a207472616e7366657220746f20746865207a65726f206164647260008201527f6573730000000000000000000000000000000000000000000000000000000000602082015250565b6000614169602383613151565b91506141748261410d565b604082019050919050565b600060208201905081810360008301526141988161415c565b9050919050565b7f45524332303a207472616e7366657220616d6f756e742065786365656473206260008201527f616c616e63650000000000000000000000000000000000000000000000000000602082015250565b60006141fb602683613151565b91506142068261419f565b604082019050919050565b6000602082019050818103600083015261422a816141ee565b9050919050565b600081905092915050565b7f416363657373436f6e74726f6c3a206163636f756e7420000000000000000000600082015250565b6000614272601783614231565b915061427d8261423c565b601782019050919050565b600061429382613146565b61429d8185614231565b93506142ad818560208601613162565b80840191505092915050565b7f206973206d697373696e6720726f6c6520000000000000000000000000000000600082015250565b60006142ef601183614231565b91506142fa826142b9565b601182019050919050565b600061431082614265565b915061431c8285614288565b9150614327826142e2565b91506143338284614288565b91508190509392505050565b600061434a8261325f565b91506143558361325f565b925082821015614368576143676135e7565b5b828203905092915050565b7f45524332303a206d696e7420746f20746865207a65726f206164647265737300600082015250565b60006143a9601f83613151565b91506143b482614373565b602082019050919050565b600060208201905081810360008301526143d88161439c565b9050919050565b7f4e487b7100000000000000000000000000000000000000000000000000000000600052604160045260246000fd5b7f4e487b7100000000000000000000000000000000000000000000000000000000600052603260045260246000fd5b60006144488261325f565b9150600082141561445c5761445b6135e7565b5b600182039050919050565b7f537472696e67733a20686578206c656e67746820696e73756666696369656e74600082015250565b600061449d602083613151565b91506144a882614467565b602082019050919050565b600060208201905081810360008301526144cc81614490565b905091905056fea2646970667358221220942683a0b1e34c8aaaef9fdfea2f121193915a18ae35b1969ea10e25347adc2064736f6c634300080b0033",
  "immutableReferences": {},
  "source": "// SPDX-License-Identifier: MIT\r\npragma solidity 0.8.11;\r\n\r\nimport \"@openzeppelin/contracts/token/ERC20/ERC20.sol\";\r\nimport \"@openzeppelin/contracts/utils/math/SafeMath.sol\";\r\nimport \"@openzeppelin/contracts/access/AccessControl.sol\";\r\n\r\ncontract VeelancingToken is ERC20, AccessControl {\r\n    using SafeMath for uint256;\r\n\r\n    bytes32 public constant ADMIN_ROLE = keccak256(\"ADMIN_ROLE\");\r\n    bytes32 public constant INVESTOR_ROLE = keccak256(\"INVESTOR_ROLE\");\r\n    bytes32 public constant TEAM_ROLE = keccak256(\"TEAM_ROLE\");\r\n    bytes32 public constant BONUS_ICO_ROLE = keccak256(\"BONUS_ICO_ROLE\");\r\n    uint256 private percIco;\r\n    uint256 private percPreIco;\r\n    uint256 public constant basePrice = 100 * 10**18;\r\n    uint256 private icoCap;\r\n    uint256 private soldIcoTotal;\r\n    uint256 private endIcoDate;\r\n    uint256 private cap;\r\n\r\n    uint256 private constant vestingPerc = 20;\r\n    uint256 private constant vestingDays = 90 days;\r\n    address[] private investors = [\r\n        0xc9c4aAf0042dAa49e404bdB5a84EfcFc17c54880,\r\n        0x72321DEc1Bc93D8C906E40d1056522283A4389F9,\r\n        0xB2BD39587cf589AAAb6a36e25B0aED76FCf58c7B,\r\n        0x3EfFeC8EbcF00052F62e4001B7804011Da7c6f14\r\n    ];\r\n    uint256[] private investorAmounts = [40010, 12500000, 38940, 39640];\r\n    uint256 private constant percInvestors = 25;\r\n    uint256 private constant vestingDaysInvestors = 180 days;\r\n    address[] private team = [\r\n        0xF553CE9e38b21077f518D8dB39dB892f05751FA1,\r\n        0xdA974670f0Fa770db9277A0306d568E4D6f6c5a3,\r\n        0x23922042557AF5B562eab49FD0AC09b16E6Ac5E2,\r\n        0xA0e6f859c24549Efc0f873e7e5c043d90bA68EAb,\r\n        0x733ACd147e486cBe9f33257DC6272Ad5292a8E6f,\r\n        0x700Ff631E391E22F8B7C97051626f98ff4AE2123,\r\n        0x6C7CCd2c0f29FE4a01f834E98a97e3698C7Ee168,\r\n        0xb02dbF9e04535cf3f086fE812BF765D9A8ECE5dB,\r\n        0xa7d4301F1F5F1C5Ac2Dcc2e761b04Fcbe0bA1Fed,\r\n        0xC9d8fB40f6d0E3e14C36B93e66EC16C9d4F70ed3,\r\n        0x72e8BBe74a17dfa47533e556189152f174A00ED9,\r\n        0x81a806E845D80bc775D721878d976e6F20dfA115,\r\n        0xBdB1D0e82620bf90a7B231b19c69caD391073341,\r\n        0xAc531927bD88c9A59e757Cb5BB556535c9c3043F,\r\n        0x2BC800abE1bd22beC07561Bc7405209088977169\r\n    ];\r\n    uint256[] private teamAmounts = [\r\n        20000270,\r\n        6000960,\r\n        30000300,\r\n        7000000,\r\n        7000000,\r\n        7000000,\r\n        3000000,\r\n        50000,\r\n        7000000,\r\n        7000000,\r\n        6000000,\r\n        7000100,\r\n        5100,\r\n        1100,\r\n        7000100\r\n    ];\r\n    uint256 private constant percTeam = 30;\r\n    uint256 private constant vestingDaysTeam = 120 days;\r\n    uint256 private constant percBonusIco = 20;\r\n    uint256 private constant vestingDaysBonusIco = 240 days;\r\n\r\n    enum CrowdState {\r\n        NotStarted,\r\n        PreICO,\r\n        ICO,\r\n        Finished\r\n    }\r\n\r\n    enum WalletStatus {\r\n        Blocked,\r\n        Unblocked\r\n    }\r\n\r\n    struct VestedBalance {\r\n        mapping(uint256 => uint256) perc;\r\n        uint256 balance;\r\n        uint256 initialBalance;\r\n    }\r\n\r\n    mapping(address => VestedBalance) private _vestedBalances;\r\n    mapping(address => WalletStatus) private _blockedWallets;\r\n\r\n    CrowdState private state;\r\n\r\n    event WithdrawFromVested(address indexed to, uint256 value);\r\n    event DepositToVested(address indexed to, uint256 value);\r\n    event WalletStatusChanged(address indexed to, WalletStatus status);\r\n    event Deposit(address indexed to, uint256 value);\r\n    event CapIncreased(uint256 amount);\r\n\r\n    constructor(\r\n        string memory name,\r\n        string memory symbol,\r\n        address Liquidity,\r\n        uint256 volume_liquidity,\r\n        uint256 percIco_,\r\n        uint256 percPreIco_,\r\n        uint256 icoCap_,\r\n        uint256 cap_,\r\n        address owner\r\n    ) public ERC20(name, symbol) {\r\n        percIco = percIco_;\r\n        percPreIco = percPreIco_;\r\n        icoCap = icoCap_;\r\n        cap = cap_;\r\n\r\n        soldIcoTotal = 0;\r\n\r\n        state = CrowdState.NotStarted;\r\n\r\n        _setRoleAdmin(ADMIN_ROLE, DEFAULT_ADMIN_ROLE);\r\n        _setupRole(ADMIN_ROLE, owner);\r\n        depositToVested(Liquidity, volume_liquidity);\r\n\r\n        for (uint256 i = 0; i < investors.length; i++) {\r\n            _setupRole(INVESTOR_ROLE, investors[i]);\r\n            depositToVested(investors[i], investorAmounts[i]);\r\n        }\r\n\r\n        for (uint256 i = 0; i < team.length; i++) {\r\n            _setupRole(TEAM_ROLE, team[i]);\r\n            depositToVested(team[i], teamAmounts[i]);\r\n        }\r\n    }\r\n\r\n    function getCap() public view virtual returns (uint256) {\r\n        return cap;\r\n    }\r\n\r\n    function increaseCap(uint256 amount) public virtual {\r\n        require(\r\n            hasRole(ADMIN_ROLE, _msgSender()),\r\n            \"Veelancing: Only admin can increase the cap\"\r\n        );\r\n        cap = cap.add(amount);\r\n        emit CapIncreased(amount);\r\n    }\r\n\r\n    function getIcoCap() public view returns (uint256) {\r\n        return icoCap;\r\n    }\r\n\r\n    function getIcoSold() public view returns (uint256) {\r\n        return soldIcoTotal;\r\n    }\r\n\r\n    function getCurrentStatus() public view returns (string memory) {\r\n        if (state == CrowdState.NotStarted) {\r\n            return \"NotStarted\";\r\n        } else if (state == CrowdState.PreICO) {\r\n            return \"Pre ICO\";\r\n        } else if (state == CrowdState.ICO) {\r\n            return \"ICO\";\r\n        } else {\r\n            return \"Finished\";\r\n        }\r\n    }\r\n\r\n    function getVestedAllowedPerc(address to) public virtual returns (uint256) {\r\n        uint256 date = endIcoDate;\r\n        uint256 perc = 0;\r\n\r\n        if (state != CrowdState.Finished) {\r\n            return 0;\r\n        }\r\n\r\n        do {\r\n            if (hasRole(BONUS_ICO_ROLE, to)) {\r\n                perc = perc.add(percBonusIco);\r\n                date = date.add(vestingDaysBonusIco);\r\n            } else if (hasRole(TEAM_ROLE, to)) {\r\n                perc = perc.add(percTeam);\r\n                date = date.add(vestingDaysTeam);\r\n            } else if (hasRole(INVESTOR_ROLE, to)) {\r\n                perc = perc.add(percInvestors);\r\n                date = date.add(vestingDaysInvestors);\r\n            } else {\r\n                perc = perc.add(vestingPerc);\r\n                date = date.add(vestingDays);\r\n            }\r\n        } while (date < block.timestamp && perc <= 100);\r\n\r\n        return perc;\r\n    }\r\n\r\n    function getVestedTotalBalance(address to)\r\n        public\r\n        view\r\n        virtual\r\n        returns (uint256)\r\n    {\r\n        uint256 consumed;\r\n\r\n        for (uint256 index = 10; index <= 100; index += 10) {\r\n            consumed = consumed.add(_vestedBalances[to].perc[index]);\r\n        }\r\n\r\n        uint256 total = _vestedBalances[to].initialBalance;\r\n\r\n        return total.sub(consumed);\r\n    }\r\n\r\n    function getVestedAllowedBalance(address to)\r\n        public\r\n        virtual\r\n        returns (uint256)\r\n    {\r\n        uint256 perc = getVestedAllowedPerc(to);\r\n\r\n        uint256 total = _vestedBalances[to].initialBalance.div(100).mul(perc);\r\n        uint256 consumed = _vestedBalances[to].perc[perc];\r\n\r\n        return total.sub(consumed);\r\n    }\r\n\r\n    function withdrawFromVested(uint256 amount) public virtual {\r\n        uint256 perc = getVestedAllowedPerc(_msgSender());\r\n        uint256 balance = _vestedBalances[_msgSender()]\r\n            .initialBalance\r\n            .div(100)\r\n            .mul(perc)\r\n            .sub(_vestedBalances[_msgSender()].perc[perc]);\r\n\r\n        require(\r\n            amount <= balance,\r\n            \"Veelancing: withdraw amount exceeds balance\"\r\n        );\r\n\r\n        _vestedBalances[_msgSender()].balance = _vestedBalances[_msgSender()]\r\n            .balance\r\n            .sub(amount);\r\n        _vestedBalances[_msgSender()].perc[perc] = _vestedBalances[_msgSender()]\r\n            .perc[perc]\r\n            .add(amount);\r\n        _mint(_msgSender(), amount);\r\n        emit WithdrawFromVested(_msgSender(), amount);\r\n    }\r\n\r\n    function depositToVested(address recipient, uint256 amount) public virtual {\r\n        _vestedBalances[recipient].initialBalance = _vestedBalances[recipient]\r\n            .initialBalance\r\n            .add(amount);\r\n        _vestedBalances[recipient].balance = _vestedBalances[recipient]\r\n            .balance\r\n            .add(amount);\r\n        emit DepositToVested(recipient, amount);\r\n    }\r\n\r\n    function getWalletStatus(address recipient)\r\n        public\r\n        view\r\n        returns (WalletStatus)\r\n    {\r\n        return _blockedWallets[recipient];\r\n    }\r\n\r\n    function setWalletStatus(address recipient, WalletStatus status) public {\r\n        require(\r\n            hasRole(ADMIN_ROLE, _msgSender()),\r\n            \"Veelancing: Only the admin can change the wallet status\"\r\n        );\r\n\r\n        _blockedWallets[recipient] = status;\r\n        emit WalletStatusChanged(recipient, status);\r\n    }\r\n\r\n    function deposit(address recipient, uint256 amount) public virtual {\r\n        uint256 total = amount;\r\n\r\n        if (state == CrowdState.PreICO) {\r\n            total = total.mul(percPreIco).div(100).add(total);\r\n\r\n            require(\r\n                soldIcoTotal.add(total) <= icoCap,\r\n                \"Veelancing: ICO Cap excedeed\"\r\n            );\r\n\r\n            if (getWalletStatus(recipient) == WalletStatus.Unblocked) {\r\n                setWalletStatus(recipient, WalletStatus.Blocked);\r\n            }\r\n\r\n            soldIcoTotal = soldIcoTotal.add(total);\r\n\r\n            depositToVested(recipient, total);\r\n        } else {\r\n            if (state == CrowdState.ICO) {\r\n                total = total.mul(percIco).div(100).add(total);\r\n\r\n                require(\r\n                    soldIcoTotal.add(total) <= icoCap,\r\n                    \"Veelancing: ICO Cap excedeed\"\r\n                );\r\n\r\n                if (getWalletStatus(recipient) == WalletStatus.Unblocked) {\r\n                    setWalletStatus(recipient, WalletStatus.Blocked);\r\n                }\r\n\r\n                soldIcoTotal = soldIcoTotal.add(total);\r\n            }\r\n\r\n            _mint(recipient, total);\r\n            emit Deposit(recipient, total);\r\n        }\r\n    }\r\n\r\n    function transfer(address recipient, uint256 amount)\r\n        public\r\n        virtual\r\n        override(ERC20)\r\n        returns (bool)\r\n    {\r\n        if (!hasRole(ADMIN_ROLE, _msgSender())) {\r\n            require(state == CrowdState.Finished, \"Veelancing: ICO season\");\r\n        }\r\n\r\n        require(\r\n            getWalletStatus(_msgSender()) == WalletStatus.Unblocked,\r\n            \"Veelancing: Wallet is blocked\"\r\n        );\r\n\r\n        _transfer(_msgSender(), recipient, amount);\r\n        return true;\r\n    }\r\n\r\n    function startPreIco() public virtual {\r\n        require(\r\n            hasRole(ADMIN_ROLE, _msgSender()),\r\n            \"Veelancing: Only the admin can start the Pre ICO\"\r\n        );\r\n        state = CrowdState.PreICO;\r\n    }\r\n\r\n    function startIco() public virtual {\r\n        require(\r\n            hasRole(ADMIN_ROLE, _msgSender()),\r\n            \"Veelancing: Only the admin can start the ICO\"\r\n        );\r\n        state = CrowdState.ICO;\r\n    }\r\n\r\n    function endIco() public virtual {\r\n        require(state == CrowdState.ICO, \"Veelancing: ICO already ended.\");\r\n        require(\r\n            hasRole(ADMIN_ROLE, _msgSender()),\r\n            \"Veelancing: Only the admin can end the ICO\"\r\n        );\r\n\r\n        uint256 leftTokens = icoCap.sub(soldIcoTotal);\r\n        state = CrowdState.Finished;\r\n        endIcoDate = block.timestamp;\r\n\r\n        if (leftTokens > 0) {\r\n            deposit(_msgSender(), leftTokens);\r\n        }\r\n    }\r\n\r\n    function createBonus(address recipient, uint256 amount) public virtual {\r\n        require(\r\n            hasRole(ADMIN_ROLE, _msgSender()),\r\n            \"Veelancing: Only the admin can create bonuses\"\r\n        );\r\n\r\n        _setupRole(BONUS_ICO_ROLE, recipient);\r\n        depositToVested(recipient, amount);\r\n        soldIcoTotal = soldIcoTotal.add(amount);\r\n    }\r\n\r\n    receive() external payable virtual {\r\n        uint256 weiAmount = msg.value;\r\n        uint256 tokens = weiAmount.mul(basePrice).div(1 ether);\r\n        deposit(_msgSender(), tokens);\r\n    }\r\n\r\n    function _mint(address account, uint256 amount) internal virtual override {\r\n        require(\r\n            totalSupply().add(amount) <= getCap(),\r\n            \"Veelancing: Cap exceeded\"\r\n        );\r\n        super._mint(account, amount);\r\n    }\r\n\r\n    function _beforeTokenTransfer(\r\n        address from,\r\n        address to,\r\n        uint256 amount\r\n    ) internal virtual override(ERC20) {\r\n        super._beforeTokenTransfer(from, to, amount);\r\n    }\r\n}\r\n",
  "sourcePath": "C:\\VeelancingCoin\\contracts\\Veelancing.sol",
  "compiler": {
    "name": "solc",
    "version": "0.8.11+commit.d7f03943.Emscripten.clang"
  },
  "schemaVersion": "3.4.4",
  "updatedAt": "2022-01-19T14:44:21.405Z",
  "devdoc": {
    "kind": "dev",
    "methods": {
      "allowance(address,address)": {
        "details": "See {IERC20-allowance}."
      },
      "approve(address,uint256)": {
        "details": "See {IERC20-approve}. Requirements: - `spender` cannot be the zero address."
      },
      "balanceOf(address)": {
        "details": "See {IERC20-balanceOf}."
      },
      "decimals()": {
        "details": "Returns the number of decimals used to get its user representation. For example, if `decimals` equals `2`, a balance of `505` tokens should be displayed to a user as `5.05` (`505 / 10 ** 2`). Tokens usually opt for a value of 18, imitating the relationship between Ether and Wei. This is the value {ERC20} uses, unless this function is overridden; NOTE: This information is only used for _display_ purposes: it in no way affects any of the arithmetic of the contract, including {IERC20-balanceOf} and {IERC20-transfer}."
      },
      "decreaseAllowance(address,uint256)": {
        "details": "Atomically decreases the allowance granted to `spender` by the caller. This is an alternative to {approve} that can be used as a mitigation for problems described in {IERC20-approve}. Emits an {Approval} event indicating the updated allowance. Requirements: - `spender` cannot be the zero address. - `spender` must have allowance for the caller of at least `subtractedValue`."
      },
      "getRoleAdmin(bytes32)": {
        "details": "Returns the admin role that controls `role`. See {grantRole} and {revokeRole}. To change a role's admin, use {_setRoleAdmin}."
      },
      "grantRole(bytes32,address)": {
        "details": "Grants `role` to `account`. If `account` had not been already granted `role`, emits a {RoleGranted} event. Requirements: - the caller must have ``role``'s admin role."
      },
      "hasRole(bytes32,address)": {
        "details": "Returns `true` if `account` has been granted `role`."
      },
      "increaseAllowance(address,uint256)": {
        "details": "Atomically increases the allowance granted to `spender` by the caller. This is an alternative to {approve} that can be used as a mitigation for problems described in {IERC20-approve}. Emits an {Approval} event indicating the updated allowance. Requirements: - `spender` cannot be the zero address."
      },
      "name()": {
        "details": "Returns the name of the token."
      },
      "renounceRole(bytes32,address)": {
        "details": "Revokes `role` from the calling account. Roles are often managed via {grantRole} and {revokeRole}: this function's purpose is to provide a mechanism for accounts to lose their privileges if they are compromised (such as when a trusted device is misplaced). If the calling account had been revoked `role`, emits a {RoleRevoked} event. Requirements: - the caller must be `account`."
      },
      "revokeRole(bytes32,address)": {
        "details": "Revokes `role` from `account`. If `account` had been granted `role`, emits a {RoleRevoked} event. Requirements: - the caller must have ``role``'s admin role."
      },
      "supportsInterface(bytes4)": {
        "details": "See {IERC165-supportsInterface}."
      },
      "symbol()": {
        "details": "Returns the symbol of the token, usually a shorter version of the name."
      },
      "totalSupply()": {
        "details": "See {IERC20-totalSupply}."
      },
      "transfer(address,uint256)": {
        "details": "See {IERC20-transfer}. Requirements: - `recipient` cannot be the zero address. - the caller must have a balance of at least `amount`."
      },
      "transferFrom(address,address,uint256)": {
        "details": "See {IERC20-transferFrom}. Emits an {Approval} event indicating the updated allowance. This is not required by the EIP. See the note at the beginning of {ERC20}. Requirements: - `sender` and `recipient` cannot be the zero address. - `sender` must have a balance of at least `amount`. - the caller must have allowance for ``sender``'s tokens of at least `amount`."
      }
    },
    "version": 1
  },
  "userdoc": {
    "kind": "user",
    "methods": {},
    "version": 1
  }
}