{
  "contractName": "VeelancingToken",
  "abi": [
    {
      "inputs": [
        {
          "internalType": "string",
          "name": "name",
          "type": "string"
        },
        {
          "internalType": "string",
          "name": "symbol",
          "type": "string"
        },
        {
          "internalType": "address",
          "name": "Liquidity",
          "type": "address"
        },
        {
          "internalType": "uint256",
          "name": "volume_liquidity",
          "type": "uint256"
        },
        {
          "internalType": "uint256",
          "name": "percIco_",
          "type": "uint256"
        },
        {
          "internalType": "uint256",
          "name": "percPreIco_",
          "type": "uint256"
        },
        {
          "internalType": "uint256",
          "name": "icoCap_",
          "type": "uint256"
        },
        {
          "internalType": "uint256",
          "name": "cap_",
          "type": "uint256"
        },
        {
          "internalType": "address",
          "name": "owner",
          "type": "address"
        }
      ],
      "stateMutability": "nonpayable",
      "type": "constructor"
    },
    {
      "anonymous": false,
      "inputs": [
        {
          "indexed": true,
          "internalType": "address",
          "name": "owner",
          "type": "address"
        },
        {
          "indexed": true,
          "internalType": "address",
          "name": "spender",
          "type": "address"
        },
        {
          "indexed": false,
          "internalType": "uint256",
          "name": "value",
          "type": "uint256"
        }
      ],
      "name": "Approval",
      "type": "event"
    },
    {
      "anonymous": false,
      "inputs": [
        {
          "indexed": true,
          "internalType": "address",
          "name": "to",
          "type": "address"
        },
        {
          "indexed": false,
          "internalType": "uint256",
          "name": "value",
          "type": "uint256"
        }
      ],
      "name": "Deposit",
      "type": "event"
    },
    {
      "anonymous": false,
      "inputs": [
        {
          "indexed": true,
          "internalType": "address",
          "name": "to",
          "type": "address"
        },
        {
          "indexed": false,
          "internalType": "uint256",
          "name": "value",
          "type": "uint256"
        }
      ],
      "name": "DepositToVested",
      "type": "event"
    },
    {
      "anonymous": false,
      "inputs": [
        {
          "indexed": true,
          "internalType": "bytes32",
          "name": "role",
          "type": "bytes32"
        },
        {
          "indexed": true,
          "internalType": "bytes32",
          "name": "previousAdminRole",
          "type": "bytes32"
        },
        {
          "indexed": true,
          "internalType": "bytes32",
          "name": "newAdminRole",
          "type": "bytes32"
        }
      ],
      "name": "RoleAdminChanged",
      "type": "event"
    },
    {
      "anonymous": false,
      "inputs": [
        {
          "indexed": true,
          "internalType": "bytes32",
          "name": "role",
          "type": "bytes32"
        },
        {
          "indexed": true,
          "internalType": "address",
          "name": "account",
          "type": "address"
        },
        {
          "indexed": true,
          "internalType": "address",
          "name": "sender",
          "type": "address"
        }
      ],
      "name": "RoleGranted",
      "type": "event"
    },
    {
      "anonymous": false,
      "inputs": [
        {
          "indexed": true,
          "internalType": "bytes32",
          "name": "role",
          "type": "bytes32"
        },
        {
          "indexed": true,
          "internalType": "address",
          "name": "account",
          "type": "address"
        },
        {
          "indexed": true,
          "internalType": "address",
          "name": "sender",
          "type": "address"
        }
      ],
      "name": "RoleRevoked",
      "type": "event"
    },
    {
      "anonymous": false,
      "inputs": [
        {
          "indexed": true,
          "internalType": "address",
          "name": "from",
          "type": "address"
        },
        {
          "indexed": true,
          "internalType": "address",
          "name": "to",
          "type": "address"
        },
        {
          "indexed": false,
          "internalType": "uint256",
          "name": "value",
          "type": "uint256"
        }
      ],
      "name": "Transfer",
      "type": "event"
    },
    {
      "anonymous": false,
      "inputs": [
        {
          "indexed": true,
          "internalType": "address",
          "name": "to",
          "type": "address"
        },
        {
          "indexed": false,
          "internalType": "uint256",
          "name": "value",
          "type": "uint256"
        }
      ],
      "name": "WithdrawFromVested",
      "type": "event"
    },
    {
      "inputs": [],
      "name": "ADMIN_ROLE",
      "outputs": [
        {
          "internalType": "bytes32",
          "name": "",
          "type": "bytes32"
        }
      ],
      "stateMutability": "view",
      "type": "function"
    },
    {
      "inputs": [],
      "name": "DEFAULT_ADMIN_ROLE",
      "outputs": [
        {
          "internalType": "bytes32",
          "name": "",
          "type": "bytes32"
        }
      ],
      "stateMutability": "view",
      "type": "function"
    },
    {
      "inputs": [],
      "name": "INVESTOR_ROLE",
      "outputs": [
        {
          "internalType": "bytes32",
          "name": "",
          "type": "bytes32"
        }
      ],
      "stateMutability": "view",
      "type": "function"
    },
    {
      "inputs": [],
      "name": "TEAM_ROLE",
      "outputs": [
        {
          "internalType": "bytes32",
          "name": "",
          "type": "bytes32"
        }
      ],
      "stateMutability": "view",
      "type": "function"
    },
    {
      "inputs": [
        {
          "internalType": "address",
          "name": "owner",
          "type": "address"
        },
        {
          "internalType": "address",
          "name": "spender",
          "type": "address"
        }
      ],
      "name": "allowance",
      "outputs": [
        {
          "internalType": "uint256",
          "name": "",
          "type": "uint256"
        }
      ],
      "stateMutability": "view",
      "type": "function"
    },
    {
      "inputs": [
        {
          "internalType": "address",
          "name": "spender",
          "type": "address"
        },
        {
          "internalType": "uint256",
          "name": "amount",
          "type": "uint256"
        }
      ],
      "name": "approve",
      "outputs": [
        {
          "internalType": "bool",
          "name": "",
          "type": "bool"
        }
      ],
      "stateMutability": "nonpayable",
      "type": "function"
    },
    {
      "inputs": [
        {
          "internalType": "address",
          "name": "account",
          "type": "address"
        }
      ],
      "name": "balanceOf",
      "outputs": [
        {
          "internalType": "uint256",
          "name": "",
          "type": "uint256"
        }
      ],
      "stateMutability": "view",
      "type": "function"
    },
    {
      "inputs": [],
      "name": "basePrice",
      "outputs": [
        {
          "internalType": "uint256",
          "name": "",
          "type": "uint256"
        }
      ],
      "stateMutability": "view",
      "type": "function"
    },
    {
      "inputs": [],
      "name": "decimals",
      "outputs": [
        {
          "internalType": "uint8",
          "name": "",
          "type": "uint8"
        }
      ],
      "stateMutability": "view",
      "type": "function"
    },
    {
      "inputs": [
        {
          "internalType": "address",
          "name": "spender",
          "type": "address"
        },
        {
          "internalType": "uint256",
          "name": "subtractedValue",
          "type": "uint256"
        }
      ],
      "name": "decreaseAllowance",
      "outputs": [
        {
          "internalType": "bool",
          "name": "",
          "type": "bool"
        }
      ],
      "stateMutability": "nonpayable",
      "type": "function"
    },
    {
      "inputs": [
        {
          "internalType": "bytes32",
          "name": "role",
          "type": "bytes32"
        }
      ],
      "name": "getRoleAdmin",
      "outputs": [
        {
          "internalType": "bytes32",
          "name": "",
          "type": "bytes32"
        }
      ],
      "stateMutability": "view",
      "type": "function"
    },
    {
      "inputs": [
        {
          "internalType": "bytes32",
          "name": "role",
          "type": "bytes32"
        },
        {
          "internalType": "address",
          "name": "account",
          "type": "address"
        }
      ],
      "name": "grantRole",
      "outputs": [],
      "stateMutability": "nonpayable",
      "type": "function"
    },
    {
      "inputs": [
        {
          "internalType": "bytes32",
          "name": "role",
          "type": "bytes32"
        },
        {
          "internalType": "address",
          "name": "account",
          "type": "address"
        }
      ],
      "name": "hasRole",
      "outputs": [
        {
          "internalType": "bool",
          "name": "",
          "type": "bool"
        }
      ],
      "stateMutability": "view",
      "type": "function"
    },
    {
      "inputs": [
        {
          "internalType": "address",
          "name": "spender",
          "type": "address"
        },
        {
          "internalType": "uint256",
          "name": "addedValue",
          "type": "uint256"
        }
      ],
      "name": "increaseAllowance",
      "outputs": [
        {
          "internalType": "bool",
          "name": "",
          "type": "bool"
        }
      ],
      "stateMutability": "nonpayable",
      "type": "function"
    },
    {
      "inputs": [],
      "name": "name",
      "outputs": [
        {
          "internalType": "string",
          "name": "",
          "type": "string"
        }
      ],
      "stateMutability": "view",
      "type": "function"
    },
    {
      "inputs": [
        {
          "internalType": "bytes32",
          "name": "role",
          "type": "bytes32"
        },
        {
          "internalType": "address",
          "name": "account",
          "type": "address"
        }
      ],
      "name": "renounceRole",
      "outputs": [],
      "stateMutability": "nonpayable",
      "type": "function"
    },
    {
      "inputs": [
        {
          "internalType": "bytes32",
          "name": "role",
          "type": "bytes32"
        },
        {
          "internalType": "address",
          "name": "account",
          "type": "address"
        }
      ],
      "name": "revokeRole",
      "outputs": [],
      "stateMutability": "nonpayable",
      "type": "function"
    },
    {
      "inputs": [
        {
          "internalType": "bytes4",
          "name": "interfaceId",
          "type": "bytes4"
        }
      ],
      "name": "supportsInterface",
      "outputs": [
        {
          "internalType": "bool",
          "name": "",
          "type": "bool"
        }
      ],
      "stateMutability": "view",
      "type": "function"
    },
    {
      "inputs": [],
      "name": "symbol",
      "outputs": [
        {
          "internalType": "string",
          "name": "",
          "type": "string"
        }
      ],
      "stateMutability": "view",
      "type": "function"
    },
    {
      "inputs": [],
      "name": "totalSupply",
      "outputs": [
        {
          "internalType": "uint256",
          "name": "",
          "type": "uint256"
        }
      ],
      "stateMutability": "view",
      "type": "function"
    },
    {
      "inputs": [
        {
          "internalType": "address",
          "name": "sender",
          "type": "address"
        },
        {
          "internalType": "address",
          "name": "recipient",
          "type": "address"
        },
        {
          "internalType": "uint256",
          "name": "amount",
          "type": "uint256"
        }
      ],
      "name": "transferFrom",
      "outputs": [
        {
          "internalType": "bool",
          "name": "",
          "type": "bool"
        }
      ],
      "stateMutability": "nonpayable",
      "type": "function"
    },
    {
      "stateMutability": "payable",
      "type": "receive"
    },
    {
      "inputs": [],
      "name": "getCap",
      "outputs": [
        {
          "internalType": "uint256",
          "name": "",
          "type": "uint256"
        }
      ],
      "stateMutability": "view",
      "type": "function"
    },
    {
      "inputs": [],
      "name": "getIcoCap",
      "outputs": [
        {
          "internalType": "uint256",
          "name": "",
          "type": "uint256"
        }
      ],
      "stateMutability": "view",
      "type": "function"
    },
    {
      "inputs": [],
      "name": "getIcoSold",
      "outputs": [
        {
          "internalType": "uint256",
          "name": "",
          "type": "uint256"
        }
      ],
      "stateMutability": "view",
      "type": "function"
    },
    {
      "inputs": [],
      "name": "getCurrentStatus",
      "outputs": [
        {
          "internalType": "string",
          "name": "",
          "type": "string"
        }
      ],
      "stateMutability": "view",
      "type": "function"
    },
    {
      "inputs": [
        {
          "internalType": "address",
          "name": "to",
          "type": "address"
        }
      ],
      "name": "getVestedAllowedPerc",
      "outputs": [
        {
          "internalType": "uint256",
          "name": "",
          "type": "uint256"
        }
      ],
      "stateMutability": "nonpayable",
      "type": "function"
    },
    {
      "inputs": [
        {
          "internalType": "address",
          "name": "to",
          "type": "address"
        }
      ],
      "name": "getVestedTotalBalance",
      "outputs": [
        {
          "internalType": "uint256",
          "name": "",
          "type": "uint256"
        }
      ],
      "stateMutability": "view",
      "type": "function"
    },
    {
      "inputs": [
        {
          "internalType": "address",
          "name": "to",
          "type": "address"
        }
      ],
      "name": "getVestedAllowedBalance",
      "outputs": [
        {
          "internalType": "uint256",
          "name": "",
          "type": "uint256"
        }
      ],
      "stateMutability": "nonpayable",
      "type": "function"
    },
    {
      "inputs": [
        {
          "internalType": "uint256",
          "name": "amount",
          "type": "uint256"
        }
      ],
      "name": "withdrawFromVested",
      "outputs": [],
      "stateMutability": "nonpayable",
      "type": "function"
    },
    {
      "inputs": [
        {
          "internalType": "address",
          "name": "recipient",
          "type": "address"
        },
        {
          "internalType": "uint256",
          "name": "amount",
          "type": "uint256"
        }
      ],
      "name": "depositToVested",
      "outputs": [],
      "stateMutability": "nonpayable",
      "type": "function"
    },
    {
      "inputs": [
        {
          "internalType": "address",
          "name": "recipient",
          "type": "address"
        },
        {
          "internalType": "uint256",
          "name": "amount",
          "type": "uint256"
        }
      ],
      "name": "deposit",
      "outputs": [],
      "stateMutability": "nonpayable",
      "type": "function"
    },
    {
      "inputs": [
        {
          "internalType": "address",
          "name": "recipient",
          "type": "address"
        },
        {
          "internalType": "uint256",
          "name": "amount",
          "type": "uint256"
        }
      ],
      "name": "transfer",
      "outputs": [
        {
          "internalType": "bool",
          "name": "",
          "type": "bool"
        }
      ],
      "stateMutability": "nonpayable",
      "type": "function"
    },
    {
      "inputs": [],
      "name": "startPreIco",
      "outputs": [],
      "stateMutability": "nonpayable",
      "type": "function"
    },
    {
      "inputs": [],
      "name": "startIco",
      "outputs": [],
      "stateMutability": "nonpayable",
      "type": "function"
    },
    {
      "inputs": [],
      "name": "endIco",
      "outputs": [],
      "stateMutability": "nonpayable",
      "type": "function"
    }
  ],
  "bytecode": "0x60806040523480156200001157600080fd5b506040516200524d3803806200524d8339818101604052810190620000379190620012bb565b888881600390805190602001906200005192919062000dfd565b5080600490805190602001906200006a92919062000dfd565b5050508460068190555083600781905550826008819055508160158190555060006009819055506000601760006101000a81548160ff02191690836003811115620000ba57620000b9620013d8565b5b02179055506276a700600c819055506014600b81905550604051806101e0016040528073f553ce9e38b21077f518d8db39db892f05751fa173ffffffffffffffffffffffffffffffffffffffff1673ffffffffffffffffffffffffffffffffffffffff16815260200173da974670f0fa770db9277a0306d568e4d6f6c5a373ffffffffffffffffffffffffffffffffffffffff1673ffffffffffffffffffffffffffffffffffffffff1681526020017323922042557af5b562eab49fd0ac09b16e6ac5e273ffffffffffffffffffffffffffffffffffffffff1673ffffffffffffffffffffffffffffffffffffffff16815260200173a0e6f859c24549efc0f873e7e5c043d90ba68eab73ffffffffffffffffffffffffffffffffffffffff1673ffffffffffffffffffffffffffffffffffffffff16815260200173733acd147e486cbe9f33257dc6272ad5292a8e6f73ffffffffffffffffffffffffffffffffffffffff1673ffffffffffffffffffffffffffffffffffffffff16815260200173700ff631e391e22f8b7c97051626f98ff4ae212373ffffffffffffffffffffffffffffffffffffffff1673ffffffffffffffffffffffffffffffffffffffff168152602001736c7ccd2c0f29fe4a01f834e98a97e3698c7ee16873ffffffffffffffffffffffffffffffffffffffff1673ffffffffffffffffffffffffffffffffffffffff16815260200173b02dbf9e04535cf3f086fe812bf765d9a8ece5db73ffffffffffffffffffffffffffffffffffffffff1673ffffffffffffffffffffffffffffffffffffffff16815260200173a7d4301f1f5f1c5ac2dcc2e761b04fcbe0ba1fed73ffffffffffffffffffffffffffffffffffffffff1673ffffffffffffffffffffffffffffffffffffffff16815260200173c9d8fb40f6d0e3e14c36b93e66ec16c9d4f70ed373ffffffffffffffffffffffffffffffffffffffff1673ffffffffffffffffffffffffffffffffffffffff1681526020017372e8bbe74a17dfa47533e556189152f174a00ed973ffffffffffffffffffffffffffffffffffffffff1673ffffffffffffffffffffffffffffffffffffffff1681526020017381a806e845d80bc775d721878d976e6f20dfa11573ffffffffffffffffffffffffffffffffffffffff1673ffffffffffffffffffffffffffffffffffffffff16815260200173bdb1d0e82620bf90a7b231b19c69cad39107334173ffffffffffffffffffffffffffffffffffffffff1673ffffffffffffffffffffffffffffffffffffffff16815260200173ac531927bd88c9a59e757cb5bb556535c9c3043f73ffffffffffffffffffffffffffffffffffffffff1673ffffffffffffffffffffffffffffffffffffffff168152602001732bc800abe1bd22bec07561bc740520908897716973ffffffffffffffffffffffffffffffffffffffff1673ffffffffffffffffffffffffffffffffffffffff16815250601190600f6200050792919062000e8e565b50604051806101e001604052806301312e0e63ffffffff168152602001625b914063ffffffff1681526020016301c9c4ac63ffffffff168152602001626acfc063ffffffff168152602001626acfc063ffffffff168152602001626acfc063ffffffff168152602001622dc6c063ffffffff16815260200161c35063ffffffff168152602001626acfc063ffffffff168152602001626acfc063ffffffff168152602001625b8d8063ffffffff168152602001626ad02463ffffffff1681526020016113ec63ffffffff16815260200161044c63ffffffff168152602001626ad02463ffffffff16815250601290600f6200060492919062000f1d565b50601e601381905550629e3400601481905550604051806080016040528073c9c4aaf0042daa49e404bdb5a84efcfc17c5488073ffffffffffffffffffffffffffffffffffffffff1673ffffffffffffffffffffffffffffffffffffffff1681526020017372321dec1bc93d8c906e40d1056522283a4389f973ffffffffffffffffffffffffffffffffffffffff1673ffffffffffffffffffffffffffffffffffffffff16815260200173b2bd39587cf589aaab6a36e25b0aed76fcf58c7b73ffffffffffffffffffffffffffffffffffffffff1673ffffffffffffffffffffffffffffffffffffffff168152602001733effec8ebcf00052f62e4001b7804011da7c6f1473ffffffffffffffffffffffffffffffffffffffff1673ffffffffffffffffffffffffffffffffffffffff16815250600d9060046200074a92919062000f77565b506040518060800160405280619c4a62ffffff16815260200162bebc2062ffffff16815260200161981c62ffffff168152602001619ad862ffffff16815250600e9060046200079b92919062001006565b506019600f8190555062ed4e00601081905550620007e37fa49807205ce4d355092ef5a8a18f56e8913cf4a201fbe287825b095693c217756000801b62000a5460201b60201c565b620008157fa49807205ce4d355092ef5a8a18f56e8913cf4a201fbe287825b095693c217758262000ab260201b60201c565b62000827878762000ac860201b60201c565b60005b600d805490508110156200093557620008ab7fb165298935924f540e4181c03493a5d686c54a0aaeb3f6216de85b7ffbba7738600d838154811062000874576200087362001407565b5b9060005260206000200160009054906101000a900473ffffffffffffffffffffffffffffffffffffffff1662000ab260201b60201c565b6200091f600d8281548110620008c657620008c562001407565b5b9060005260206000200160009054906101000a900473ffffffffffffffffffffffffffffffffffffffff16600e838154811062000908576200090762001407565b5b906000526020600020015462000ac860201b60201c565b80806200092c9062001465565b9150506200082a565b5060005b60118054905081101562000a4457620009ba7f5146a08baf902532d0ee2f909971144f12ca32651cd70cbee1117cddfb3b3b336011838154811062000983576200098262001407565b5b9060005260206000200160009054906101000a900473ffffffffffffffffffffffffffffffffffffffff1662000ab260201b60201c565b62000a2e60118281548110620009d557620009d462001407565b5b9060005260206000200160009054906101000a900473ffffffffffffffffffffffffffffffffffffffff166012838154811062000a175762000a1662001407565b5b906000526020600020015462000ac860201b60201c565b808062000a3b9062001465565b91505062000939565b50505050505050505050620015a3565b8062000a668362000c6060201b60201c565b837fbd79b86ffe0ab8e8776151514217cd7cacd52c909f66475c3af44e129f0b00ff60405160405180910390a48060056000848152602001908152602001600020600101819055505050565b62000ac4828262000c8060201b60201c565b5050565b62000b2481601660008573ffffffffffffffffffffffffffffffffffffffff1673ffffffffffffffffffffffffffffffffffffffff1681526020019081526020016000206002015462000d7260201b62001f831790919060201c565b601660008473ffffffffffffffffffffffffffffffffffffffff1673ffffffffffffffffffffffffffffffffffffffff1681526020019081526020016000206002018190555062000bc681601660008573ffffffffffffffffffffffffffffffffffffffff1673ffffffffffffffffffffffffffffffffffffffff1681526020019081526020016000206001015462000d7260201b62001f831790919060201c565b601660008473ffffffffffffffffffffffffffffffffffffffff1673ffffffffffffffffffffffffffffffffffffffff168152602001908152602001600020600101819055508173ffffffffffffffffffffffffffffffffffffffff167f231472cdefc3c25438a167454431d6b08cddc40dcc454abbb9d8d8ca98ebbcd28260405162000c549190620014c4565b60405180910390a25050565b600060056000838152602001908152602001600020600101549050919050565b62000c92828262000d8a60201b60201c565b62000d6e5760016005600084815260200190815260200160002060000160008373ffffffffffffffffffffffffffffffffffffffff1673ffffffffffffffffffffffffffffffffffffffff16815260200190815260200160002060006101000a81548160ff02191690831515021790555062000d1362000df560201b60201c565b73ffffffffffffffffffffffffffffffffffffffff168173ffffffffffffffffffffffffffffffffffffffff16837f2f8788117e7eff1d82e926ec794901d17c78024a50270940304540a733656f0d60405160405180910390a45b5050565b6000818362000d829190620014e1565b905092915050565b60006005600084815260200190815260200160002060000160008373ffffffffffffffffffffffffffffffffffffffff1673ffffffffffffffffffffffffffffffffffffffff16815260200190815260200160002060009054906101000a900460ff16905092915050565b600033905090565b82805462000e0b906200156d565b90600052602060002090601f01602090048101928262000e2f576000855562000e7b565b82601f1062000e4a57805160ff191683800117855562000e7b565b8280016001018555821562000e7b579182015b8281111562000e7a57825182559160200191906001019062000e5d565b5b50905062000e8a91906200105f565b5090565b82805482825590600052602060002090810192821562000f0a579160200282015b8281111562000f095782518260006101000a81548173ffffffffffffffffffffffffffffffffffffffff021916908373ffffffffffffffffffffffffffffffffffffffff1602179055509160200191906001019062000eaf565b5b50905062000f1991906200105f565b5090565b82805482825590600052602060002090810192821562000f64579160200282015b8281111562000f63578251829063ffffffff1690559160200191906001019062000f3e565b5b50905062000f7391906200105f565b5090565b82805482825590600052602060002090810192821562000ff3579160200282015b8281111562000ff25782518260006101000a81548173ffffffffffffffffffffffffffffffffffffffff021916908373ffffffffffffffffffffffffffffffffffffffff1602179055509160200191906001019062000f98565b5b5090506200100291906200105f565b5090565b8280548282559060005260206000209081019282156200104c579160200282015b828111156200104b578251829062ffffff1690559160200191906001019062001027565b5b5090506200105b91906200105f565b5090565b5b808211156200107a57600081600090555060010162001060565b5090565b6000604051905090565b600080fd5b600080fd5b600080fd5b600080fd5b6000601f19601f8301169050919050565b7f4e487b7100000000000000000000000000000000000000000000000000000000600052604160045260246000fd5b620010e7826200109c565b810181811067ffffffffffffffff82111715620011095762001108620010ad565b5b80604052505050565b60006200111e6200107e565b90506200112c8282620010dc565b919050565b600067ffffffffffffffff8211156200114f576200114e620010ad565b5b6200115a826200109c565b9050602081019050919050565b60005b83811015620011875780820151818401526020810190506200116a565b8381111562001197576000848401525b50505050565b6000620011b4620011ae8462001131565b62001112565b905082815260208101848484011115620011d357620011d262001097565b5b620011e084828562001167565b509392505050565b600082601f8301126200120057620011ff62001092565b5b8151620012128482602086016200119d565b91505092915050565b600073ffffffffffffffffffffffffffffffffffffffff82169050919050565b600062001248826200121b565b9050919050565b6200125a816200123b565b81146200126657600080fd5b50565b6000815190506200127a816200124f565b92915050565b6000819050919050565b620012958162001280565b8114620012a157600080fd5b50565b600081519050620012b5816200128a565b92915050565b60008060008060008060008060006101208a8c031215620012e157620012e062001088565b5b60008a015167ffffffffffffffff8111156200130257620013016200108d565b5b620013108c828d01620011e8565b99505060208a015167ffffffffffffffff8111156200133457620013336200108d565b5b620013428c828d01620011e8565b9850506040620013558c828d0162001269565b9750506060620013688c828d01620012a4565b96505060806200137b8c828d01620012a4565b95505060a06200138e8c828d01620012a4565b94505060c0620013a18c828d01620012a4565b93505060e0620013b48c828d01620012a4565b925050610100620013c88c828d0162001269565b9150509295985092959850929598565b7f4e487b7100000000000000000000000000000000000000000000000000000000600052602160045260246000fd5b7f4e487b7100000000000000000000000000000000000000000000000000000000600052603260045260246000fd5b7f4e487b7100000000000000000000000000000000000000000000000000000000600052601160045260246000fd5b6000620014728262001280565b91507fffffffffffffffffffffffffffffffffffffffffffffffffffffffffffffffff821415620014a857620014a762001436565b5b600182019050919050565b620014be8162001280565b82525050565b6000602082019050620014db6000830184620014b3565b92915050565b6000620014ee8262001280565b9150620014fb8362001280565b9250827fffffffffffffffffffffffffffffffffffffffffffffffffffffffffffffffff0382111562001533576200153262001436565b5b828201905092915050565b7f4e487b7100000000000000000000000000000000000000000000000000000000600052602260045260246000fd5b600060028204905060018216806200158657607f821691505b602082108114156200159d576200159c6200153e565b5b50919050565b613c9a80620015b36000396000f3fe6080604052600436106102085760003560e01c806370a0823111610118578063a9059cbb116100a0578063c807cb251161006f578063c807cb2514610818578063d547741f14610841578063dd62ed3e1461086a578063e657807b146108a7578063ef6e312d146108be57610261565b8063a9059cbb14610770578063b04fd845146107ad578063c06d1272146107d6578063c7876ea4146107ed57610261565b806391d14854116100e757806391d148541461067557806395d89b41146106b2578063a217fddf146106dd578063a3dd261914610708578063a457c2d71461073357610261565b806370a08231146105cb57806375b238fc1461060857806376082a5e1461063357806389311e6f1461065e57610261565b8063313ce5671161019b57806347fcfb7e1161016a57806347fcfb7e146104d057806349d5e6041461050d5780634cb84b9a1461053857806353ab1a7c14610563578063554d578d146105a057610261565b8063313ce5671461041657806336568abe14610441578063395093511461046a57806347e7ef24146104a757610261565b806323b872dd116101d757806323b872dd14610336578063248a9ca3146103735780632c083c97146103b05780632f2ff15d146103ed57610261565b806301ffc9a71461026657806306fdde03146102a3578063095ea7b3146102ce57806318160ddd1461030b57610261565b36610261576000349050600061024a670de0b6b3a764000061023c68056bc75e2d63100000856108e990919063ffffffff16565b6108ff90919063ffffffff16565b905061025d610257610915565b8261091d565b5050005b600080fd5b34801561027257600080fd5b5061028d60048036038101906102889190612b5e565b610b68565b60405161029a9190612ba6565b60405180910390f35b3480156102af57600080fd5b506102b8610be2565b6040516102c59190612c5a565b60405180910390f35b3480156102da57600080fd5b506102f560048036038101906102f09190612d10565b610c74565b6040516103029190612ba6565b60405180910390f35b34801561031757600080fd5b50610320610c92565b60405161032d9190612d5f565b60405180910390f35b34801561034257600080fd5b5061035d60048036038101906103589190612d7a565b610c9c565b60405161036a9190612ba6565b60405180910390f35b34801561037f57600080fd5b5061039a60048036038101906103959190612e03565b610d9d565b6040516103a79190612e3f565b60405180910390f35b3480156103bc57600080fd5b506103d760048036038101906103d29190612e5a565b610dbd565b6040516103e49190612d5f565b60405180910390f35b3480156103f957600080fd5b50610414600480360381019061040f9190612e87565b610f20565b005b34801561042257600080fd5b5061042b610f49565b6040516104389190612ee3565b60405180910390f35b34801561044d57600080fd5b5061046860048036038101906104639190612e87565b610f52565b005b34801561047657600080fd5b50610491600480360381019061048c9190612d10565b610fd5565b60405161049e9190612ba6565b60405180910390f35b3480156104b357600080fd5b506104ce60048036038101906104c99190612d10565b61091d565b005b3480156104dc57600080fd5b506104f760048036038101906104f29190612e5a565b611081565b6040516105049190612d5f565b60405180910390f35b34801561051957600080fd5b50610522611173565b60405161052f9190612e3f565b60405180910390f35b34801561054457600080fd5b5061054d611197565b60405161055a9190612d5f565b60405180910390f35b34801561056f57600080fd5b5061058a60048036038101906105859190612e5a565b6111a1565b6040516105979190612d5f565b60405180910390f35b3480156105ac57600080fd5b506105b5611290565b6040516105c29190612d5f565b60405180910390f35b3480156105d757600080fd5b506105f260048036038101906105ed9190612e5a565b61129a565b6040516105ff9190612d5f565b60405180910390f35b34801561061457600080fd5b5061061d6112e2565b60405161062a9190612e3f565b60405180910390f35b34801561063f57600080fd5b50610648611306565b6040516106559190612e3f565b60405180910390f35b34801561066a57600080fd5b5061067361132a565b005b34801561068157600080fd5b5061069c60048036038101906106979190612e87565b6113c7565b6040516106a99190612ba6565b60405180910390f35b3480156106be57600080fd5b506106c7611432565b6040516106d49190612c5a565b60405180910390f35b3480156106e957600080fd5b506106f26114c4565b6040516106ff9190612e3f565b60405180910390f35b34801561071457600080fd5b5061071d6114cb565b60405161072a9190612c5a565b60405180910390f35b34801561073f57600080fd5b5061075a60048036038101906107559190612d10565b611674565b6040516107679190612ba6565b60405180910390f35b34801561077c57600080fd5b5061079760048036038101906107929190612d10565b611768565b6040516107a49190612ba6565b60405180910390f35b3480156107b957600080fd5b506107d460048036038101906107cf9190612d10565b611831565b005b3480156107e257600080fd5b506107eb6119b9565b005b3480156107f957600080fd5b50610802611a56565b60405161080f9190612d5f565b60405180910390f35b34801561082457600080fd5b5061083f600480360381019061083a9190612efe565b611a63565b005b34801561084d57600080fd5b5061086860048036038101906108639190612e87565b611d78565b005b34801561087657600080fd5b50610891600480360381019061088c9190612f2b565b611da1565b60405161089e9190612d5f565b60405180910390f35b3480156108b357600080fd5b506108bc611e28565b005b3480156108ca57600080fd5b506108d3611f79565b6040516108e09190612d5f565b60405180910390f35b600081836108f79190612f9a565b905092915050565b6000818361090d9190613023565b905092915050565b600033905090565b60008190506001600381111561093657610935613054565b5b601760009054906101000a900460ff16600381111561095857610957613054565b5b1415610a1d576109988161098a606461097c600754866108e990919063ffffffff16565b6108ff90919063ffffffff16565b611f8390919063ffffffff16565b90506008546109b282600954611f8390919063ffffffff16565b11156109f3576040517f08c379a00000000000000000000000000000000000000000000000000000000081526004016109ea906130cf565b60405180910390fd5b610a0881600954611f8390919063ffffffff16565b600981905550610a188382611831565b610b63565b60026003811115610a3157610a30613054565b5b601760009054906101000a900460ff166003811115610a5357610a52613054565b5b1415610b0a57610a9381610a856064610a77600654866108e990919063ffffffff16565b6108ff90919063ffffffff16565b611f8390919063ffffffff16565b9050600854610aad82600954611f8390919063ffffffff16565b1115610aee576040517f08c379a0000000000000000000000000000000000000000000000000000000008152600401610ae5906130cf565b60405180910390fd5b610b0381600954611f8390919063ffffffff16565b6009819055505b610b148382611f99565b8273ffffffffffffffffffffffffffffffffffffffff167fe1fffcc4923d04b559f4d29a8bfc6cda04eb5b0d3c460751c2402c5c5cc9109c82604051610b5a9190612d5f565b60405180910390a25b505050565b60007f7965db0b000000000000000000000000000000000000000000000000000000007bffffffffffffffffffffffffffffffffffffffffffffffffffffffff1916827bffffffffffffffffffffffffffffffffffffffffffffffffffffffff19161480610bdb5750610bda826120ed565b5b9050919050565b606060038054610bf19061311e565b80601f0160208091040260200160405190810160405280929190818152602001828054610c1d9061311e565b8015610c6a5780601f10610c3f57610100808354040283529160200191610c6a565b820191906000526020600020905b815481529060010190602001808311610c4d57829003601f168201915b5050505050905090565b6000610c88610c81610915565b8484612157565b6001905092915050565b6000600254905090565b6000610ca9848484612322565b6000600160008673ffffffffffffffffffffffffffffffffffffffff1673ffffffffffffffffffffffffffffffffffffffff1681526020019081526020016000206000610cf4610915565b73ffffffffffffffffffffffffffffffffffffffff1673ffffffffffffffffffffffffffffffffffffffff16815260200190815260200160002054905082811015610d74576040517f08c379a0000000000000000000000000000000000000000000000000000000008152600401610d6b906131c2565b60405180910390fd5b610d9185610d80610915565b8584610d8c91906131e2565b612157565b60019150509392505050565b600060056000838152602001908152602001600020600101549050919050565b600080600a5490506000600380811115610dda57610dd9613054565b5b601760009054906101000a900460ff166003811115610dfc57610dfb613054565b5b14610e0c57600092505050610f1b565b5b610e377f5146a08baf902532d0ee2f909971144f12ca32651cd70cbee1117cddfb3b3b33856113c7565b15610e6f57610e5160135482611f8390919063ffffffff16565b9050610e6860145483611f8390919063ffffffff16565b9150610f01565b610e997fb165298935924f540e4181c03493a5d686c54a0aaeb3f6216de85b7ffbba7738856113c7565b15610ed157610eb3600f5482611f8390919063ffffffff16565b9050610eca60105483611f8390919063ffffffff16565b9150610f00565b610ee6600b5482611f8390919063ffffffff16565b9050610efd600c5483611f8390919063ffffffff16565b91505b5b4282108015610f11575060648111155b610e0d5780925050505b919050565b610f2982610d9d565b610f3a81610f35610915565b6125a1565b610f44838361263e565b505050565b60006012905090565b610f5a610915565b73ffffffffffffffffffffffffffffffffffffffff168173ffffffffffffffffffffffffffffffffffffffff1614610fc7576040517f08c379a0000000000000000000000000000000000000000000000000000000008152600401610fbe90613288565b60405180910390fd5b610fd1828261271f565b5050565b6000611077610fe2610915565b848460016000610ff0610915565b73ffffffffffffffffffffffffffffffffffffffff1673ffffffffffffffffffffffffffffffffffffffff16815260200190815260200160002060008873ffffffffffffffffffffffffffffffffffffffff1673ffffffffffffffffffffffffffffffffffffffff1681526020019081526020016000205461107291906132a8565b612157565b6001905092915050565b6000806000600a90505b6064811161110f576110f9601660008673ffffffffffffffffffffffffffffffffffffffff1673ffffffffffffffffffffffffffffffffffffffff16815260200190815260200160002060000160008381526020019081526020016000205483611f8390919063ffffffff16565b9150600a8161110891906132a8565b905061108b565b506000601660008573ffffffffffffffffffffffffffffffffffffffff1673ffffffffffffffffffffffffffffffffffffffff16815260200190815260200160002060020154905061116a828261280190919063ffffffff16565b92505050919050565b7f5146a08baf902532d0ee2f909971144f12ca32651cd70cbee1117cddfb3b3b3381565b6000600854905090565b6000806111ad83610dbd565b905060006112198261120b6064601660008973ffffffffffffffffffffffffffffffffffffffff1673ffffffffffffffffffffffffffffffffffffffff168152602001908152602001600020600201546108ff90919063ffffffff16565b6108e990919063ffffffff16565b90506000601660008673ffffffffffffffffffffffffffffffffffffffff1673ffffffffffffffffffffffffffffffffffffffff1681526020019081526020016000206000016000848152602001908152602001600020549050611286818361280190919063ffffffff16565b9350505050919050565b6000601554905090565b60008060008373ffffffffffffffffffffffffffffffffffffffff1673ffffffffffffffffffffffffffffffffffffffff168152602001908152602001600020549050919050565b7fa49807205ce4d355092ef5a8a18f56e8913cf4a201fbe287825b095693c2177581565b7fb165298935924f540e4181c03493a5d686c54a0aaeb3f6216de85b7ffbba773881565b61135b7fa49807205ce4d355092ef5a8a18f56e8913cf4a201fbe287825b095693c21775611356610915565b6113c7565b61139a576040517f08c379a000000000000000000000000000000000000000000000000000000000815260040161139190613370565b60405180910390fd5b6002601760006101000a81548160ff021916908360038111156113c0576113bf613054565b5b0217905550565b60006005600084815260200190815260200160002060000160008373ffffffffffffffffffffffffffffffffffffffff1673ffffffffffffffffffffffffffffffffffffffff16815260200190815260200160002060009054906101000a900460ff16905092915050565b6060600480546114419061311e565b80601f016020809104026020016040519081016040528092919081815260200182805461146d9061311e565b80156114ba5780601f1061148f576101008083540402835291602001916114ba565b820191906000526020600020905b81548152906001019060200180831161149d57829003601f168201915b5050505050905090565b6000801b81565b6060600060038111156114e1576114e0613054565b5b601760009054906101000a900460ff16600381111561150357611502613054565b5b1415611546576040518060400160405280600a81526020017f4e6f7453746172746564000000000000000000000000000000000000000000008152509050611671565b6001600381111561155a57611559613054565b5b601760009054906101000a900460ff16600381111561157c5761157b613054565b5b14156115bf576040518060400160405280600781526020017f5072652049434f000000000000000000000000000000000000000000000000008152509050611671565b600260038111156115d3576115d2613054565b5b601760009054906101000a900460ff1660038111156115f5576115f4613054565b5b1415611638576040518060400160405280600381526020017f49434f00000000000000000000000000000000000000000000000000000000008152509050611671565b6040518060400160405280600881526020017f46696e697368656400000000000000000000000000000000000000000000000081525090505b90565b60008060016000611683610915565b73ffffffffffffffffffffffffffffffffffffffff1673ffffffffffffffffffffffffffffffffffffffff16815260200190815260200160002060008573ffffffffffffffffffffffffffffffffffffffff1673ffffffffffffffffffffffffffffffffffffffff16815260200190815260200160002054905082811015611740576040517f08c379a000000000000000000000000000000000000000000000000000000000815260040161173790613402565b60405180910390fd5b61175d61174b610915565b85858461175891906131e2565b612157565b600191505092915050565b600061179b7fa49807205ce4d355092ef5a8a18f56e8913cf4a201fbe287825b095693c21775611796610915565b6113c7565b611815576003808111156117b2576117b1613054565b5b601760009054906101000a900460ff1660038111156117d4576117d3613054565b5b14611814576040517f08c379a000000000000000000000000000000000000000000000000000000000815260040161180b9061346e565b60405180910390fd5b5b611827611820610915565b8484612322565b6001905092915050565b61188681601660008573ffffffffffffffffffffffffffffffffffffffff1673ffffffffffffffffffffffffffffffffffffffff16815260200190815260200160002060020154611f8390919063ffffffff16565b601660008473ffffffffffffffffffffffffffffffffffffffff1673ffffffffffffffffffffffffffffffffffffffff1681526020019081526020016000206002018190555061192181601660008573ffffffffffffffffffffffffffffffffffffffff1673ffffffffffffffffffffffffffffffffffffffff16815260200190815260200160002060010154611f8390919063ffffffff16565b601660008473ffffffffffffffffffffffffffffffffffffffff1673ffffffffffffffffffffffffffffffffffffffff168152602001908152602001600020600101819055508173ffffffffffffffffffffffffffffffffffffffff167f231472cdefc3c25438a167454431d6b08cddc40dcc454abbb9d8d8ca98ebbcd2826040516119ad9190612d5f565b60405180910390a25050565b6119ea7fa49807205ce4d355092ef5a8a18f56e8913cf4a201fbe287825b095693c217756119e5610915565b6113c7565b611a29576040517f08c379a0000000000000000000000000000000000000000000000000000000008152600401611a2090613500565b60405180910390fd5b6001601760006101000a81548160ff02191690836003811115611a4f57611a4e613054565b5b0217905550565b68056bc75e2d6310000081565b6000611a75611a70610915565b610dbd565b90506000611b5460166000611a88610915565b73ffffffffffffffffffffffffffffffffffffffff1673ffffffffffffffffffffffffffffffffffffffff168152602001908152602001600020600001600084815260200190815260200160002054611b4684611b38606460166000611aec610915565b73ffffffffffffffffffffffffffffffffffffffff1673ffffffffffffffffffffffffffffffffffffffff168152602001908152602001600020600201546108ff90919063ffffffff16565b6108e990919063ffffffff16565b61280190919063ffffffff16565b905080831115611b99576040517f08c379a0000000000000000000000000000000000000000000000000000000008152600401611b9090613592565b60405180910390fd5b611bf58360166000611ba9610915565b73ffffffffffffffffffffffffffffffffffffffff1673ffffffffffffffffffffffffffffffffffffffff1681526020019081526020016000206001015461280190919063ffffffff16565b60166000611c01610915565b73ffffffffffffffffffffffffffffffffffffffff1673ffffffffffffffffffffffffffffffffffffffff16815260200190815260200160002060010181905550611caf8360166000611c52610915565b73ffffffffffffffffffffffffffffffffffffffff1673ffffffffffffffffffffffffffffffffffffffff168152602001908152602001600020600001600085815260200190815260200160002054611f8390919063ffffffff16565b60166000611cbb610915565b73ffffffffffffffffffffffffffffffffffffffff1673ffffffffffffffffffffffffffffffffffffffff168152602001908152602001600020600001600084815260200190815260200160002081905550611d1e611d18610915565b84611f99565b611d26610915565b73ffffffffffffffffffffffffffffffffffffffff167f393c95e9d26e675951a2e5342d80b93219994d655eb7f2834bde4f51a4a7927284604051611d6b9190612d5f565b60405180910390a2505050565b611d8182610d9d565b611d9281611d8d610915565b6125a1565b611d9c838361271f565b505050565b6000600160008473ffffffffffffffffffffffffffffffffffffffff1673ffffffffffffffffffffffffffffffffffffffff16815260200190815260200160002060008373ffffffffffffffffffffffffffffffffffffffff1673ffffffffffffffffffffffffffffffffffffffff16815260200190815260200160002054905092915050565b60026003811115611e3c57611e3b613054565b5b601760009054906101000a900460ff166003811115611e5e57611e5d613054565b5b14611e9e576040517f08c379a0000000000000000000000000000000000000000000000000000000008152600401611e95906135fe565b60405180910390fd5b611ecf7fa49807205ce4d355092ef5a8a18f56e8913cf4a201fbe287825b095693c21775611eca610915565b6113c7565b611f0e576040517f08c379a0000000000000000000000000000000000000000000000000000000008152600401611f0590613690565b60405180910390fd5b6000611f2760095460085461280190919063ffffffff16565b90506003601760006101000a81548160ff02191690836003811115611f4f57611f4e613054565b5b021790555042600a819055506000811115611f7657611f75611f6f610915565b8261091d565b5b50565b6000600954905090565b60008183611f9191906132a8565b905092915050565b600073ffffffffffffffffffffffffffffffffffffffff168273ffffffffffffffffffffffffffffffffffffffff161415612009576040517f08c379a0000000000000000000000000000000000000000000000000000000008152600401612000906136fc565b60405180910390fd5b61201560008383612817565b806002600082825461202791906132a8565b92505081905550806000808473ffffffffffffffffffffffffffffffffffffffff1673ffffffffffffffffffffffffffffffffffffffff168152602001908152602001600020600082825461207c91906132a8565b925050819055508173ffffffffffffffffffffffffffffffffffffffff16600073ffffffffffffffffffffffffffffffffffffffff167fddf252ad1be2c89b69c2b068fc378daa952ba7f163c4a11628f55a4df523b3ef836040516120e19190612d5f565b60405180910390a35050565b60007f01ffc9a7000000000000000000000000000000000000000000000000000000007bffffffffffffffffffffffffffffffffffffffffffffffffffffffff1916827bffffffffffffffffffffffffffffffffffffffffffffffffffffffff1916149050919050565b600073ffffffffffffffffffffffffffffffffffffffff168373ffffffffffffffffffffffffffffffffffffffff1614156121c7576040517f08c379a00000000000000000000000000000000000000000000000000000000081526004016121be9061378e565b60405180910390fd5b600073ffffffffffffffffffffffffffffffffffffffff168273ffffffffffffffffffffffffffffffffffffffff161415612237576040517f08c379a000000000000000000000000000000000000000000000000000000000815260040161222e90613820565b60405180910390fd5b80600160008573ffffffffffffffffffffffffffffffffffffffff1673ffffffffffffffffffffffffffffffffffffffff16815260200190815260200160002060008473ffffffffffffffffffffffffffffffffffffffff1673ffffffffffffffffffffffffffffffffffffffff168152602001908152602001600020819055508173ffffffffffffffffffffffffffffffffffffffff168373ffffffffffffffffffffffffffffffffffffffff167f8c5be1e5ebec7d5bd14f71427d1e84f3dd0314c0f7b2291e5b200ac8c7c3b925836040516123159190612d5f565b60405180910390a3505050565b600073ffffffffffffffffffffffffffffffffffffffff168373ffffffffffffffffffffffffffffffffffffffff161415612392576040517f08c379a0000000000000000000000000000000000000000000000000000000008152600401612389906138b2565b60405180910390fd5b600073ffffffffffffffffffffffffffffffffffffffff168273ffffffffffffffffffffffffffffffffffffffff161415612402576040517f08c379a00000000000000000000000000000000000000000000000000000000081526004016123f990613944565b60405180910390fd5b61240d838383612817565b60008060008573ffffffffffffffffffffffffffffffffffffffff1673ffffffffffffffffffffffffffffffffffffffff16815260200190815260200160002054905081811015612493576040517f08c379a000000000000000000000000000000000000000000000000000000000815260040161248a906139d6565b60405180910390fd5b818161249f91906131e2565b6000808673ffffffffffffffffffffffffffffffffffffffff1673ffffffffffffffffffffffffffffffffffffffff16815260200190815260200160002081905550816000808573ffffffffffffffffffffffffffffffffffffffff1673ffffffffffffffffffffffffffffffffffffffff168152602001908152602001600020600082825461252f91906132a8565b925050819055508273ffffffffffffffffffffffffffffffffffffffff168473ffffffffffffffffffffffffffffffffffffffff167fddf252ad1be2c89b69c2b068fc378daa952ba7f163c4a11628f55a4df523b3ef846040516125939190612d5f565b60405180910390a350505050565b6125ab82826113c7565b61263a576125d08173ffffffffffffffffffffffffffffffffffffffff1660146128c0565b6125de8360001c60206128c0565b6040516020016125ef929190613aca565b6040516020818303038152906040526040517f08c379a00000000000000000000000000000000000000000000000000000000081526004016126319190612c5a565b60405180910390fd5b5050565b61264882826113c7565b61271b5760016005600084815260200190815260200160002060000160008373ffffffffffffffffffffffffffffffffffffffff1673ffffffffffffffffffffffffffffffffffffffff16815260200190815260200160002060006101000a81548160ff0219169083151502179055506126c0610915565b73ffffffffffffffffffffffffffffffffffffffff168173ffffffffffffffffffffffffffffffffffffffff16837f2f8788117e7eff1d82e926ec794901d17c78024a50270940304540a733656f0d60405160405180910390a45b5050565b61272982826113c7565b156127fd5760006005600084815260200190815260200160002060000160008373ffffffffffffffffffffffffffffffffffffffff1673ffffffffffffffffffffffffffffffffffffffff16815260200190815260200160002060006101000a81548160ff0219169083151502179055506127a2610915565b73ffffffffffffffffffffffffffffffffffffffff168173ffffffffffffffffffffffffffffffffffffffff16837ff6391f5c32d9c69d2a47ea670b442974b53935d1edc7fd64eb21e047a839171b60405160405180910390a45b5050565b6000818361280f91906131e2565b905092915050565b612822838383612afc565b600073ffffffffffffffffffffffffffffffffffffffff168373ffffffffffffffffffffffffffffffffffffffff1614156128bb5761285f611290565b6128798261286b610c92565b611f8390919063ffffffff16565b11156128ba576040517f08c379a00000000000000000000000000000000000000000000000000000000081526004016128b190613b50565b60405180910390fd5b5b505050565b6060600060028360026128d39190612f9a565b6128dd91906132a8565b67ffffffffffffffff8111156128f6576128f5613b70565b5b6040519080825280601f01601f1916602001820160405280156129285781602001600182028036833780820191505090505b5090507f3000000000000000000000000000000000000000000000000000000000000000816000815181106129605761295f613b9f565b5b60200101907effffffffffffffffffffffffffffffffffffffffffffffffffffffffffffff1916908160001a9053507f7800000000000000000000000000000000000000000000000000000000000000816001815181106129c4576129c3613b9f565b5b60200101907effffffffffffffffffffffffffffffffffffffffffffffffffffffffffffff1916908160001a90535060006001846002612a049190612f9a565b612a0e91906132a8565b90505b6001811115612aae577f3031323334353637383961626364656600000000000000000000000000000000600f861660108110612a5057612a4f613b9f565b5b1a60f81b828281518110612a6757612a66613b9f565b5b60200101907effffffffffffffffffffffffffffffffffffffffffffffffffffffffffffff1916908160001a905350600485901c945080612aa790613bce565b9050612a11565b5060008414612af2576040517f08c379a0000000000000000000000000000000000000000000000000000000008152600401612ae990613c44565b60405180910390fd5b8091505092915050565b505050565b600080fd5b60007fffffffff0000000000000000000000000000000000000000000000000000000082169050919050565b612b3b81612b06565b8114612b4657600080fd5b50565b600081359050612b5881612b32565b92915050565b600060208284031215612b7457612b73612b01565b5b6000612b8284828501612b49565b91505092915050565b60008115159050919050565b612ba081612b8b565b82525050565b6000602082019050612bbb6000830184612b97565b92915050565b600081519050919050565b600082825260208201905092915050565b60005b83811015612bfb578082015181840152602081019050612be0565b83811115612c0a576000848401525b50505050565b6000601f19601f8301169050919050565b6000612c2c82612bc1565b612c368185612bcc565b9350612c46818560208601612bdd565b612c4f81612c10565b840191505092915050565b60006020820190508181036000830152612c748184612c21565b905092915050565b600073ffffffffffffffffffffffffffffffffffffffff82169050919050565b6000612ca782612c7c565b9050919050565b612cb781612c9c565b8114612cc257600080fd5b50565b600081359050612cd481612cae565b92915050565b6000819050919050565b612ced81612cda565b8114612cf857600080fd5b50565b600081359050612d0a81612ce4565b92915050565b60008060408385031215612d2757612d26612b01565b5b6000612d3585828601612cc5565b9250506020612d4685828601612cfb565b9150509250929050565b612d5981612cda565b82525050565b6000602082019050612d746000830184612d50565b92915050565b600080600060608486031215612d9357612d92612b01565b5b6000612da186828701612cc5565b9350506020612db286828701612cc5565b9250506040612dc386828701612cfb565b9150509250925092565b6000819050919050565b612de081612dcd565b8114612deb57600080fd5b50565b600081359050612dfd81612dd7565b92915050565b600060208284031215612e1957612e18612b01565b5b6000612e2784828501612dee565b91505092915050565b612e3981612dcd565b82525050565b6000602082019050612e546000830184612e30565b92915050565b600060208284031215612e7057612e6f612b01565b5b6000612e7e84828501612cc5565b91505092915050565b60008060408385031215612e9e57612e9d612b01565b5b6000612eac85828601612dee565b9250506020612ebd85828601612cc5565b9150509250929050565b600060ff82169050919050565b612edd81612ec7565b82525050565b6000602082019050612ef86000830184612ed4565b92915050565b600060208284031215612f1457612f13612b01565b5b6000612f2284828501612cfb565b91505092915050565b60008060408385031215612f4257612f41612b01565b5b6000612f5085828601612cc5565b9250506020612f6185828601612cc5565b9150509250929050565b7f4e487b7100000000000000000000000000000000000000000000000000000000600052601160045260246000fd5b6000612fa582612cda565b9150612fb083612cda565b9250817fffffffffffffffffffffffffffffffffffffffffffffffffffffffffffffffff0483118215151615612fe957612fe8612f6b565b5b828202905092915050565b7f4e487b7100000000000000000000000000000000000000000000000000000000600052601260045260246000fd5b600061302e82612cda565b915061303983612cda565b92508261304957613048612ff4565b5b828204905092915050565b7f4e487b7100000000000000000000000000000000000000000000000000000000600052602160045260246000fd5b7f5665656c616e63696e673a2049434f2043617020657863656465656400000000600082015250565b60006130b9601c83612bcc565b91506130c482613083565b602082019050919050565b600060208201905081810360008301526130e8816130ac565b9050919050565b7f4e487b7100000000000000000000000000000000000000000000000000000000600052602260045260246000fd5b6000600282049050600182168061313657607f821691505b6020821081141561314a576131496130ef565b5b50919050565b7f45524332303a207472616e7366657220616d6f756e742065786365656473206160008201527f6c6c6f77616e6365000000000000000000000000000000000000000000000000602082015250565b60006131ac602883612bcc565b91506131b782613150565b604082019050919050565b600060208201905081810360008301526131db8161319f565b9050919050565b60006131ed82612cda565b91506131f883612cda565b92508282101561320b5761320a612f6b565b5b828203905092915050565b7f416363657373436f6e74726f6c3a2063616e206f6e6c792072656e6f756e636560008201527f20726f6c657320666f722073656c660000000000000000000000000000000000602082015250565b6000613272602f83612bcc565b915061327d82613216565b604082019050919050565b600060208201905081810360008301526132a181613265565b9050919050565b60006132b382612cda565b91506132be83612cda565b9250827fffffffffffffffffffffffffffffffffffffffffffffffffffffffffffffffff038211156132f3576132f2612f6b565b5b828201905092915050565b7f5665656c616e63696e673a204f6e6c79207468652061646d696e2063616e207360008201527f74617274207468652049434f0000000000000000000000000000000000000000602082015250565b600061335a602c83612bcc565b9150613365826132fe565b604082019050919050565b600060208201905081810360008301526133898161334d565b9050919050565b7f45524332303a2064656372656173656420616c6c6f77616e63652062656c6f7760008201527f207a65726f000000000000000000000000000000000000000000000000000000602082015250565b60006133ec602583612bcc565b91506133f782613390565b604082019050919050565b6000602082019050818103600083015261341b816133df565b9050919050565b7f5665656c616e63696e673a2049434f20736561736f6e00000000000000000000600082015250565b6000613458601683612bcc565b915061346382613422565b602082019050919050565b600060208201905081810360008301526134878161344b565b9050919050565b7f5665656c616e63696e673a204f6e6c79207468652061646d696e2063616e207360008201527f7461727420746865205072652049434f00000000000000000000000000000000602082015250565b60006134ea603083612bcc565b91506134f58261348e565b604082019050919050565b60006020820190508181036000830152613519816134dd565b9050919050565b7f5665656c616e63696e673a20776974686472617720616d6f756e74206578636560008201527f6564732062616c616e6365000000000000000000000000000000000000000000602082015250565b600061357c602b83612bcc565b915061358782613520565b604082019050919050565b600060208201905081810360008301526135ab8161356f565b9050919050565b7f5665656c616e63696e673a2049434f20616c726561647920656e6465642e0000600082015250565b60006135e8601e83612bcc565b91506135f3826135b2565b602082019050919050565b60006020820190508181036000830152613617816135db565b9050919050565b7f5665656c616e63696e673a204f6e6c79207468652061646d696e2063616e206560008201527f6e64207468652049434f00000000000000000000000000000000000000000000602082015250565b600061367a602a83612bcc565b91506136858261361e565b604082019050919050565b600060208201905081810360008301526136a98161366d565b9050919050565b7f45524332303a206d696e7420746f20746865207a65726f206164647265737300600082015250565b60006136e6601f83612bcc565b91506136f1826136b0565b602082019050919050565b60006020820190508181036000830152613715816136d9565b9050919050565b7f45524332303a20617070726f76652066726f6d20746865207a65726f2061646460008201527f7265737300000000000000000000000000000000000000000000000000000000602082015250565b6000613778602483612bcc565b91506137838261371c565b604082019050919050565b600060208201905081810360008301526137a78161376b565b9050919050565b7f45524332303a20617070726f766520746f20746865207a65726f20616464726560008201527f7373000000000000000000000000000000000000000000000000000000000000602082015250565b600061380a602283612bcc565b9150613815826137ae565b604082019050919050565b60006020820190508181036000830152613839816137fd565b9050919050565b7f45524332303a207472616e736665722066726f6d20746865207a65726f20616460008201527f6472657373000000000000000000000000000000000000000000000000000000602082015250565b600061389c602583612bcc565b91506138a782613840565b604082019050919050565b600060208201905081810360008301526138cb8161388f565b9050919050565b7f45524332303a207472616e7366657220746f20746865207a65726f206164647260008201527f6573730000000000000000000000000000000000000000000000000000000000602082015250565b600061392e602383612bcc565b9150613939826138d2565b604082019050919050565b6000602082019050818103600083015261395d81613921565b9050919050565b7f45524332303a207472616e7366657220616d6f756e742065786365656473206260008201527f616c616e63650000000000000000000000000000000000000000000000000000602082015250565b60006139c0602683612bcc565b91506139cb82613964565b604082019050919050565b600060208201905081810360008301526139ef816139b3565b9050919050565b600081905092915050565b7f416363657373436f6e74726f6c3a206163636f756e7420000000000000000000600082015250565b6000613a376017836139f6565b9150613a4282613a01565b601782019050919050565b6000613a5882612bc1565b613a6281856139f6565b9350613a72818560208601612bdd565b80840191505092915050565b7f206973206d697373696e6720726f6c6520000000000000000000000000000000600082015250565b6000613ab46011836139f6565b9150613abf82613a7e565b601182019050919050565b6000613ad582613a2a565b9150613ae18285613a4d565b9150613aec82613aa7565b9150613af88284613a4d565b91508190509392505050565b7f5665656c616e63696e673a204361702065786365656465640000000000000000600082015250565b6000613b3a601883612bcc565b9150613b4582613b04565b602082019050919050565b60006020820190508181036000830152613b6981613b2d565b9050919050565b7f4e487b7100000000000000000000000000000000000000000000000000000000600052604160045260246000fd5b7f4e487b7100000000000000000000000000000000000000000000000000000000600052603260045260246000fd5b6000613bd982612cda565b91506000821415613bed57613bec612f6b565b5b600182039050919050565b7f537472696e67733a20686578206c656e67746820696e73756666696369656e74600082015250565b6000613c2e602083612bcc565b9150613c3982613bf8565b602082019050919050565b60006020820190508181036000830152613c5d81613c21565b905091905056fea2646970667358221220ad169e0489143bd2f051ce9cb5926702b968f5132b449d3b6f150e6935dae97264736f6c634300080b0033",
  "immutableReferences": {},
  "source": "// SPDX-License-Identifier: MIT\npragma solidity 0.8.11;\n\nimport \"@openzeppelin/contracts/token/ERC20/ERC20.sol\";\nimport \"@openzeppelin/contracts/utils/math/SafeMath.sol\";\nimport \"@openzeppelin/contracts/access/AccessControl.sol\";\n\ncontract VeelancingToken is ERC20, AccessControl {\n    using SafeMath for uint256;\n\n    bytes32 public constant ADMIN_ROLE = keccak256(\"ADMIN_ROLE\");\n    bytes32 public constant INVESTOR_ROLE = keccak256(\"INVESTOR_ROLE\");\n    bytes32 public constant TEAM_ROLE = keccak256(\"TEAM_ROLE\");\n    uint256 private percIco;\n    uint256 private percPreIco;\n    uint256 public constant basePrice = 100 * 10**18;\n    uint256 private icoCap;\n    uint256 private soldIcoTotal;\n    uint256 private endIcoDate;\n    uint256 private vestingPerc;\n    uint256 private vestingDays;\n    address[] private investors;\n    uint256[] private investorAmounts;\n    uint256 private percInvestors;\n    uint256 private vestingDaysInvestors;\n    address[] private team;\n    uint256[] private teamAmounts;\n    uint256 private percTeam;\n    uint256 private vestingDaysTeam;\n    uint256 private cap;\n\n    enum CrowdState {\n        NotStarted,\n        PreICO,\n        ICO,\n        Finished\n    }\n\n    struct VestedBalance {\n        mapping(uint256 => uint256) perc;\n        uint256 balance;\n        uint256 initialBalance;\n    }\n\n    mapping(address => VestedBalance) private _vestedBalances;\n\n    CrowdState private state;\n\n    event WithdrawFromVested(address indexed to, uint256 value);\n    event DepositToVested(address indexed to, uint256 value);\n    event Deposit(address indexed to, uint256 value);\n\n    constructor(\n        string memory name,\n        string memory symbol,\n        address Liquidity,\n        uint256 volume_liquidity,\n        uint256 percIco_,\n        uint256 percPreIco_,\n        uint256 icoCap_,\n        uint256 cap_,\n        address owner\n    ) public ERC20(name, symbol) {\n        percIco = percIco_;\n        percPreIco = percPreIco_;\n        icoCap = icoCap_;\n        cap = cap_;\n\n        soldIcoTotal = 0;\n\n        state = CrowdState.NotStarted;\n\n        vestingDays = 90 days;\n        vestingPerc = 20;\n\n        team = [\n            0xF553CE9e38b21077f518D8dB39dB892f05751FA1,\n            0xdA974670f0Fa770db9277A0306d568E4D6f6c5a3,\n            0x23922042557AF5B562eab49FD0AC09b16E6Ac5E2,\n            0xA0e6f859c24549Efc0f873e7e5c043d90bA68EAb,\n            0x733ACd147e486cBe9f33257DC6272Ad5292a8E6f,\n            0x700Ff631E391E22F8B7C97051626f98ff4AE2123,\n            0x6C7CCd2c0f29FE4a01f834E98a97e3698C7Ee168,\n            0xb02dbF9e04535cf3f086fE812BF765D9A8ECE5dB,\n            0xa7d4301F1F5F1C5Ac2Dcc2e761b04Fcbe0bA1Fed,\n            0xC9d8fB40f6d0E3e14C36B93e66EC16C9d4F70ed3,\n            0x72e8BBe74a17dfa47533e556189152f174A00ED9,\n            0x81a806E845D80bc775D721878d976e6F20dfA115,\n            0xBdB1D0e82620bf90a7B231b19c69caD391073341,\n            0xAc531927bD88c9A59e757Cb5BB556535c9c3043F,\n            0x2BC800abE1bd22beC07561Bc7405209088977169\n        ];\n        teamAmounts = [\n            20000270,\n            6000960,\n            30000300,\n            7000000,\n            7000000,\n            7000000,\n            3000000,\n            50000,\n            7000000,\n            7000000,\n            6000000,\n            7000100,\n            5100,\n            1100,\n            7000100\n        ];\n        percTeam = 30;\n        vestingDaysTeam = 120 days;\n\n        investors = [\n            0xc9c4aAf0042dAa49e404bdB5a84EfcFc17c54880,\n            0x72321DEc1Bc93D8C906E40d1056522283A4389F9,\n            0xB2BD39587cf589AAAb6a36e25B0aED76FCf58c7B,\n            0x3EfFeC8EbcF00052F62e4001B7804011Da7c6f14\n        ];\n        investorAmounts = [40010, 12500000, 38940, 39640];\n        percInvestors = 25;\n        vestingDaysInvestors = 180 days;\n\n        _setRoleAdmin(ADMIN_ROLE, DEFAULT_ADMIN_ROLE);\n        _setupRole(ADMIN_ROLE, owner);\n        depositToVested(Liquidity, volume_liquidity);\n\n        for (uint256 i = 0; i < investors.length; i++) {\n            _setupRole(INVESTOR_ROLE, investors[i]);\n            depositToVested(investors[i], investorAmounts[i]);\n        }\n\n        for (uint256 i = 0; i < team.length; i++) {\n            _setupRole(TEAM_ROLE, team[i]);\n            depositToVested(team[i], teamAmounts[i]);\n        }\n    }\n\n    function getCap() public view virtual returns (uint256) {\n        return cap;\n    }\n\n    function getIcoCap() public view returns (uint256) {\n        return icoCap;\n    }\n\n    function getIcoSold() public view returns (uint256) {\n        return soldIcoTotal;\n    }\n\n    function getCurrentStatus() public view returns (string memory) {\n        if (state == CrowdState.NotStarted) {\n            return \"NotStarted\";\n        } else if (state == CrowdState.PreICO) {\n            return \"Pre ICO\";\n        } else if (state == CrowdState.ICO) {\n            return \"ICO\";\n        } else {\n            return \"Finished\";\n        }\n    }\n\n    function getVestedAllowedPerc(address to) public virtual returns (uint256) {\n        uint256 date = endIcoDate;\n        uint256 perc = 0;\n\n        if (state != CrowdState.Finished) {\n            return 0;\n        }\n\n        do {\n            if (hasRole(TEAM_ROLE, to)) {\n                perc = perc.add(percTeam);\n                date = date.add(vestingDaysTeam);\n            } else if (hasRole(INVESTOR_ROLE, to)) {\n                perc = perc.add(percInvestors);\n                date = date.add(vestingDaysInvestors);\n            } else {\n                perc = perc.add(vestingPerc);\n                date = date.add(vestingDays);\n            }\n        } while (date < block.timestamp && perc <= 100);\n\n        return perc;\n    }\n\n    function getVestedTotalBalance(address to)\n        public\n        view\n        virtual\n        returns (uint256)\n    {\n        uint256 consumed;\n\n        for (uint256 index = 10; index <= 100; index += 10) {\n            consumed = consumed.add(_vestedBalances[to].perc[index]);\n        }\n\n        uint256 total = _vestedBalances[to].initialBalance;\n\n        return total.sub(consumed);\n    }\n\n    function getVestedAllowedBalance(address to)\n        public\n        virtual\n        returns (uint256)\n    {\n        uint256 perc = getVestedAllowedPerc(to);\n\n        uint256 total = _vestedBalances[to].initialBalance.div(100).mul(perc);\n        uint256 consumed = _vestedBalances[to].perc[perc];\n\n        return total.sub(consumed);\n    }\n\n    function withdrawFromVested(uint256 amount) public virtual {\n        uint256 perc = getVestedAllowedPerc(_msgSender());\n        uint256 balance = _vestedBalances[_msgSender()]\n            .initialBalance\n            .div(100)\n            .mul(perc)\n            .sub(_vestedBalances[_msgSender()].perc[perc]);\n\n        require(\n            amount <= balance,\n            \"Veelancing: withdraw amount exceeds balance\"\n        );\n\n        _vestedBalances[_msgSender()].balance = _vestedBalances[_msgSender()]\n            .balance\n            .sub(amount);\n        _vestedBalances[_msgSender()].perc[perc] = _vestedBalances[_msgSender()]\n            .perc[perc]\n            .add(amount);\n        _mint(_msgSender(), amount);\n        emit WithdrawFromVested(_msgSender(), amount);\n    }\n\n    function depositToVested(address recipient, uint256 amount) public virtual {\n        _vestedBalances[recipient].initialBalance = _vestedBalances[recipient]\n            .initialBalance\n            .add(amount);\n        _vestedBalances[recipient].balance = _vestedBalances[recipient]\n            .balance\n            .add(amount);\n        emit DepositToVested(recipient, amount);\n    }\n\n    function deposit(address recipient, uint256 amount) public virtual {\n        uint256 total = amount;\n\n        if (state == CrowdState.PreICO) {\n            total = total.mul(percPreIco).div(100).add(total);\n\n            require(\n                soldIcoTotal.add(total) <= icoCap,\n                \"Veelancing: ICO Cap excedeed\"\n            );\n\n            soldIcoTotal = soldIcoTotal.add(total);\n\n            depositToVested(recipient, total);\n        } else {\n            if (state == CrowdState.ICO) {\n                total = total.mul(percIco).div(100).add(total);\n\n                require(\n                    soldIcoTotal.add(total) <= icoCap,\n                    \"Veelancing: ICO Cap excedeed\"\n                );\n\n                soldIcoTotal = soldIcoTotal.add(total);\n            }\n\n            _mint(recipient, total);\n            emit Deposit(recipient, total);\n        }\n    }\n\n    function transfer(address recipient, uint256 amount)\n        public\n        virtual\n        override(ERC20)\n        returns (bool)\n    {\n        if (!hasRole(ADMIN_ROLE, _msgSender())) {\n            require(state == CrowdState.Finished, \"Veelancing: ICO season\");\n        }\n\n        _transfer(_msgSender(), recipient, amount);\n        return true;\n    }\n\n    function startPreIco() public virtual {\n        require(\n            hasRole(ADMIN_ROLE, _msgSender()),\n            \"Veelancing: Only the admin can start the Pre ICO\"\n        );\n        state = CrowdState.PreICO;\n    }\n\n    function startIco() public virtual {\n        require(\n            hasRole(ADMIN_ROLE, _msgSender()),\n            \"Veelancing: Only the admin can start the ICO\"\n        );\n        state = CrowdState.ICO;\n    }\n\n    function endIco() public virtual {\n        require(state == CrowdState.ICO, \"Veelancing: ICO already ended.\");\n        require(\n            hasRole(ADMIN_ROLE, _msgSender()),\n            \"Veelancing: Only the admin can end the ICO\"\n        );\n\n        uint256 leftTokens = icoCap.sub(soldIcoTotal);\n        state = CrowdState.Finished;\n        endIcoDate = block.timestamp;\n\n        if (leftTokens > 0) {\n            deposit(_msgSender(), leftTokens);\n        }\n    }\n\n    receive() external payable virtual {\n        uint256 weiAmount = msg.value;\n        uint256 tokens = weiAmount.mul(basePrice).div(1 ether);\n        deposit(_msgSender(), tokens);\n    }\n\n    function _beforeTokenTransfer(\n        address from,\n        address to,\n        uint256 amount\n    ) internal virtual override(ERC20) {\n        super._beforeTokenTransfer(from, to, amount);\n\n        if (from == address(0)) {\n            require(\n                totalSupply().add(amount) <= getCap(),\n                \"Veelancing: Cap exceeded\"\n            );\n        }\n    }\n}\n",
  "sourcePath": "/Users/daniel/Projects/VeelancingCoin/contracts/Veelancing.sol",
  "compiler": {
    "name": "solc",
    "version": "0.8.11+commit.d7f03943.Emscripten.clang"
  },
  "schemaVersion": "3.4.4",
  "updatedAt": "2022-01-16T14:02:04.337Z",
  "devdoc": {
    "kind": "dev",
    "methods": {
      "allowance(address,address)": {
        "details": "See {IERC20-allowance}."
      },
      "approve(address,uint256)": {
        "details": "See {IERC20-approve}. Requirements: - `spender` cannot be the zero address."
      },
      "balanceOf(address)": {
        "details": "See {IERC20-balanceOf}."
      },
      "decimals()": {
        "details": "Returns the number of decimals used to get its user representation. For example, if `decimals` equals `2`, a balance of `505` tokens should be displayed to a user as `5,05` (`505 / 10 ** 2`). Tokens usually opt for a value of 18, imitating the relationship between Ether and Wei. This is the value {ERC20} uses, unless this function is overridden; NOTE: This information is only used for _display_ purposes: it in no way affects any of the arithmetic of the contract, including {IERC20-balanceOf} and {IERC20-transfer}."
      },
      "decreaseAllowance(address,uint256)": {
        "details": "Atomically decreases the allowance granted to `spender` by the caller. This is an alternative to {approve} that can be used as a mitigation for problems described in {IERC20-approve}. Emits an {Approval} event indicating the updated allowance. Requirements: - `spender` cannot be the zero address. - `spender` must have allowance for the caller of at least `subtractedValue`."
      },
      "getRoleAdmin(bytes32)": {
        "details": "Returns the admin role that controls `role`. See {grantRole} and {revokeRole}. To change a role's admin, use {_setRoleAdmin}."
      },
      "grantRole(bytes32,address)": {
        "details": "Grants `role` to `account`. If `account` had not been already granted `role`, emits a {RoleGranted} event. Requirements: - the caller must have ``role``'s admin role."
      },
      "hasRole(bytes32,address)": {
        "details": "Returns `true` if `account` has been granted `role`."
      },
      "increaseAllowance(address,uint256)": {
        "details": "Atomically increases the allowance granted to `spender` by the caller. This is an alternative to {approve} that can be used as a mitigation for problems described in {IERC20-approve}. Emits an {Approval} event indicating the updated allowance. Requirements: - `spender` cannot be the zero address."
      },
      "name()": {
        "details": "Returns the name of the token."
      },
      "renounceRole(bytes32,address)": {
        "details": "Revokes `role` from the calling account. Roles are often managed via {grantRole} and {revokeRole}: this function's purpose is to provide a mechanism for accounts to lose their privileges if they are compromised (such as when a trusted device is misplaced). If the calling account had been granted `role`, emits a {RoleRevoked} event. Requirements: - the caller must be `account`."
      },
      "revokeRole(bytes32,address)": {
        "details": "Revokes `role` from `account`. If `account` had been granted `role`, emits a {RoleRevoked} event. Requirements: - the caller must have ``role``'s admin role."
      },
      "supportsInterface(bytes4)": {
        "details": "See {IERC165-supportsInterface}."
      },
      "symbol()": {
        "details": "Returns the symbol of the token, usually a shorter version of the name."
      },
      "totalSupply()": {
        "details": "See {IERC20-totalSupply}."
      },
      "transfer(address,uint256)": {
        "details": "See {IERC20-transfer}. Requirements: - `recipient` cannot be the zero address. - the caller must have a balance of at least `amount`."
      },
      "transferFrom(address,address,uint256)": {
        "details": "See {IERC20-transferFrom}. Emits an {Approval} event indicating the updated allowance. This is not required by the EIP. See the note at the beginning of {ERC20}. Requirements: - `sender` and `recipient` cannot be the zero address. - `sender` must have a balance of at least `amount`. - the caller must have allowance for ``sender``'s tokens of at least `amount`."
      }
    },
    "version": 1
  },
  "userdoc": {
    "kind": "user",
    "methods": {},
    "version": 1
  }
}