{
  "contractName": "VeelancingToken",
  "abi": [
    {
      "inputs": [
        {
          "internalType": "string",
          "name": "name",
          "type": "string"
        },
        {
          "internalType": "string",
          "name": "symbol",
          "type": "string"
        },
        {
          "internalType": "address",
          "name": "Liquidity",
          "type": "address"
        },
        {
          "internalType": "uint256",
          "name": "volume_liquidity",
          "type": "uint256"
        },
        {
          "internalType": "uint256",
          "name": "percIco_",
          "type": "uint256"
        },
        {
          "internalType": "uint256",
          "name": "percPreIco_",
          "type": "uint256"
        },
        {
          "internalType": "uint256",
          "name": "icoCap_",
          "type": "uint256"
        },
        {
          "internalType": "uint256",
          "name": "cap_",
          "type": "uint256"
        },
        {
          "internalType": "address",
          "name": "owner",
          "type": "address"
        }
      ],
      "stateMutability": "nonpayable",
      "type": "constructor"
    },
    {
      "anonymous": false,
      "inputs": [
        {
          "indexed": true,
          "internalType": "address",
          "name": "owner",
          "type": "address"
        },
        {
          "indexed": true,
          "internalType": "address",
          "name": "spender",
          "type": "address"
        },
        {
          "indexed": false,
          "internalType": "uint256",
          "name": "value",
          "type": "uint256"
        }
      ],
      "name": "Approval",
      "type": "event"
    },
    {
      "anonymous": false,
      "inputs": [
        {
          "indexed": false,
          "internalType": "uint256",
          "name": "amount",
          "type": "uint256"
        }
      ],
      "name": "CapIncreased",
      "type": "event"
    },
    {
      "anonymous": false,
      "inputs": [
        {
          "indexed": true,
          "internalType": "address",
          "name": "to",
          "type": "address"
        },
        {
          "indexed": false,
          "internalType": "uint256",
          "name": "value",
          "type": "uint256"
        }
      ],
      "name": "Deposit",
      "type": "event"
    },
    {
      "anonymous": false,
      "inputs": [
        {
          "indexed": true,
          "internalType": "address",
          "name": "to",
          "type": "address"
        },
        {
          "indexed": false,
          "internalType": "uint256",
          "name": "value",
          "type": "uint256"
        }
      ],
      "name": "DepositToVested",
      "type": "event"
    },
    {
      "anonymous": false,
      "inputs": [
        {
          "indexed": true,
          "internalType": "bytes32",
          "name": "role",
          "type": "bytes32"
        },
        {
          "indexed": true,
          "internalType": "bytes32",
          "name": "previousAdminRole",
          "type": "bytes32"
        },
        {
          "indexed": true,
          "internalType": "bytes32",
          "name": "newAdminRole",
          "type": "bytes32"
        }
      ],
      "name": "RoleAdminChanged",
      "type": "event"
    },
    {
      "anonymous": false,
      "inputs": [
        {
          "indexed": true,
          "internalType": "bytes32",
          "name": "role",
          "type": "bytes32"
        },
        {
          "indexed": true,
          "internalType": "address",
          "name": "account",
          "type": "address"
        },
        {
          "indexed": true,
          "internalType": "address",
          "name": "sender",
          "type": "address"
        }
      ],
      "name": "RoleGranted",
      "type": "event"
    },
    {
      "anonymous": false,
      "inputs": [
        {
          "indexed": true,
          "internalType": "bytes32",
          "name": "role",
          "type": "bytes32"
        },
        {
          "indexed": true,
          "internalType": "address",
          "name": "account",
          "type": "address"
        },
        {
          "indexed": true,
          "internalType": "address",
          "name": "sender",
          "type": "address"
        }
      ],
      "name": "RoleRevoked",
      "type": "event"
    },
    {
      "anonymous": false,
      "inputs": [
        {
          "indexed": true,
          "internalType": "address",
          "name": "from",
          "type": "address"
        },
        {
          "indexed": true,
          "internalType": "address",
          "name": "to",
          "type": "address"
        },
        {
          "indexed": false,
          "internalType": "uint256",
          "name": "value",
          "type": "uint256"
        }
      ],
      "name": "Transfer",
      "type": "event"
    },
    {
      "anonymous": false,
      "inputs": [
        {
          "indexed": true,
          "internalType": "address",
          "name": "to",
          "type": "address"
        },
        {
          "indexed": false,
          "internalType": "enum VeelancingToken.WalletStatus",
          "name": "status",
          "type": "uint8"
        }
      ],
      "name": "WalletStatusChanged",
      "type": "event"
    },
    {
      "anonymous": false,
      "inputs": [
        {
          "indexed": true,
          "internalType": "address",
          "name": "to",
          "type": "address"
        },
        {
          "indexed": false,
          "internalType": "uint256",
          "name": "value",
          "type": "uint256"
        }
      ],
      "name": "WithdrawFromVested",
      "type": "event"
    },
    {
      "inputs": [],
      "name": "ADMIN_ROLE",
      "outputs": [
        {
          "internalType": "bytes32",
          "name": "",
          "type": "bytes32"
        }
      ],
      "stateMutability": "view",
      "type": "function"
    },
    {
      "inputs": [],
      "name": "BONUS_ICO_ROLE",
      "outputs": [
        {
          "internalType": "bytes32",
          "name": "",
          "type": "bytes32"
        }
      ],
      "stateMutability": "view",
      "type": "function"
    },
    {
      "inputs": [],
      "name": "DEFAULT_ADMIN_ROLE",
      "outputs": [
        {
          "internalType": "bytes32",
          "name": "",
          "type": "bytes32"
        }
      ],
      "stateMutability": "view",
      "type": "function"
    },
    {
      "inputs": [],
      "name": "INVESTOR_ROLE",
      "outputs": [
        {
          "internalType": "bytes32",
          "name": "",
          "type": "bytes32"
        }
      ],
      "stateMutability": "view",
      "type": "function"
    },
    {
      "inputs": [],
      "name": "TEAM_ROLE",
      "outputs": [
        {
          "internalType": "bytes32",
          "name": "",
          "type": "bytes32"
        }
      ],
      "stateMutability": "view",
      "type": "function"
    },
    {
      "inputs": [
        {
          "internalType": "address",
          "name": "owner",
          "type": "address"
        },
        {
          "internalType": "address",
          "name": "spender",
          "type": "address"
        }
      ],
      "name": "allowance",
      "outputs": [
        {
          "internalType": "uint256",
          "name": "",
          "type": "uint256"
        }
      ],
      "stateMutability": "view",
      "type": "function"
    },
    {
      "inputs": [
        {
          "internalType": "address",
          "name": "spender",
          "type": "address"
        },
        {
          "internalType": "uint256",
          "name": "amount",
          "type": "uint256"
        }
      ],
      "name": "approve",
      "outputs": [
        {
          "internalType": "bool",
          "name": "",
          "type": "bool"
        }
      ],
      "stateMutability": "nonpayable",
      "type": "function"
    },
    {
      "inputs": [
        {
          "internalType": "address",
          "name": "account",
          "type": "address"
        }
      ],
      "name": "balanceOf",
      "outputs": [
        {
          "internalType": "uint256",
          "name": "",
          "type": "uint256"
        }
      ],
      "stateMutability": "view",
      "type": "function"
    },
    {
      "inputs": [],
      "name": "basePrice",
      "outputs": [
        {
          "internalType": "uint256",
          "name": "",
          "type": "uint256"
        }
      ],
      "stateMutability": "view",
      "type": "function"
    },
    {
      "inputs": [],
      "name": "decimals",
      "outputs": [
        {
          "internalType": "uint8",
          "name": "",
          "type": "uint8"
        }
      ],
      "stateMutability": "view",
      "type": "function"
    },
    {
      "inputs": [
        {
          "internalType": "address",
          "name": "spender",
          "type": "address"
        },
        {
          "internalType": "uint256",
          "name": "subtractedValue",
          "type": "uint256"
        }
      ],
      "name": "decreaseAllowance",
      "outputs": [
        {
          "internalType": "bool",
          "name": "",
          "type": "bool"
        }
      ],
      "stateMutability": "nonpayable",
      "type": "function"
    },
    {
      "inputs": [
        {
          "internalType": "bytes32",
          "name": "role",
          "type": "bytes32"
        }
      ],
      "name": "getRoleAdmin",
      "outputs": [
        {
          "internalType": "bytes32",
          "name": "",
          "type": "bytes32"
        }
      ],
      "stateMutability": "view",
      "type": "function"
    },
    {
      "inputs": [
        {
          "internalType": "bytes32",
          "name": "role",
          "type": "bytes32"
        },
        {
          "internalType": "address",
          "name": "account",
          "type": "address"
        }
      ],
      "name": "grantRole",
      "outputs": [],
      "stateMutability": "nonpayable",
      "type": "function"
    },
    {
      "inputs": [
        {
          "internalType": "bytes32",
          "name": "role",
          "type": "bytes32"
        },
        {
          "internalType": "address",
          "name": "account",
          "type": "address"
        }
      ],
      "name": "hasRole",
      "outputs": [
        {
          "internalType": "bool",
          "name": "",
          "type": "bool"
        }
      ],
      "stateMutability": "view",
      "type": "function"
    },
    {
      "inputs": [
        {
          "internalType": "address",
          "name": "spender",
          "type": "address"
        },
        {
          "internalType": "uint256",
          "name": "addedValue",
          "type": "uint256"
        }
      ],
      "name": "increaseAllowance",
      "outputs": [
        {
          "internalType": "bool",
          "name": "",
          "type": "bool"
        }
      ],
      "stateMutability": "nonpayable",
      "type": "function"
    },
    {
      "inputs": [],
      "name": "name",
      "outputs": [
        {
          "internalType": "string",
          "name": "",
          "type": "string"
        }
      ],
      "stateMutability": "view",
      "type": "function"
    },
    {
      "inputs": [
        {
          "internalType": "bytes32",
          "name": "role",
          "type": "bytes32"
        },
        {
          "internalType": "address",
          "name": "account",
          "type": "address"
        }
      ],
      "name": "renounceRole",
      "outputs": [],
      "stateMutability": "nonpayable",
      "type": "function"
    },
    {
      "inputs": [
        {
          "internalType": "bytes32",
          "name": "role",
          "type": "bytes32"
        },
        {
          "internalType": "address",
          "name": "account",
          "type": "address"
        }
      ],
      "name": "revokeRole",
      "outputs": [],
      "stateMutability": "nonpayable",
      "type": "function"
    },
    {
      "inputs": [
        {
          "internalType": "bytes4",
          "name": "interfaceId",
          "type": "bytes4"
        }
      ],
      "name": "supportsInterface",
      "outputs": [
        {
          "internalType": "bool",
          "name": "",
          "type": "bool"
        }
      ],
      "stateMutability": "view",
      "type": "function"
    },
    {
      "inputs": [],
      "name": "symbol",
      "outputs": [
        {
          "internalType": "string",
          "name": "",
          "type": "string"
        }
      ],
      "stateMutability": "view",
      "type": "function"
    },
    {
      "inputs": [],
      "name": "totalSupply",
      "outputs": [
        {
          "internalType": "uint256",
          "name": "",
          "type": "uint256"
        }
      ],
      "stateMutability": "view",
      "type": "function"
    },
    {
      "inputs": [
        {
          "internalType": "address",
          "name": "sender",
          "type": "address"
        },
        {
          "internalType": "address",
          "name": "recipient",
          "type": "address"
        },
        {
          "internalType": "uint256",
          "name": "amount",
          "type": "uint256"
        }
      ],
      "name": "transferFrom",
      "outputs": [
        {
          "internalType": "bool",
          "name": "",
          "type": "bool"
        }
      ],
      "stateMutability": "nonpayable",
      "type": "function"
    },
    {
      "stateMutability": "payable",
      "type": "receive"
    },
    {
      "inputs": [],
      "name": "getCap",
      "outputs": [
        {
          "internalType": "uint256",
          "name": "",
          "type": "uint256"
        }
      ],
      "stateMutability": "view",
      "type": "function"
    },
    {
      "inputs": [
        {
          "internalType": "uint256",
          "name": "amount",
          "type": "uint256"
        }
      ],
      "name": "increaseCap",
      "outputs": [],
      "stateMutability": "nonpayable",
      "type": "function"
    },
    {
      "inputs": [],
      "name": "getIcoCap",
      "outputs": [
        {
          "internalType": "uint256",
          "name": "",
          "type": "uint256"
        }
      ],
      "stateMutability": "view",
      "type": "function"
    },
    {
      "inputs": [],
      "name": "getIcoSold",
      "outputs": [
        {
          "internalType": "uint256",
          "name": "",
          "type": "uint256"
        }
      ],
      "stateMutability": "view",
      "type": "function"
    },
    {
      "inputs": [],
      "name": "getCurrentStatus",
      "outputs": [
        {
          "internalType": "string",
          "name": "",
          "type": "string"
        }
      ],
      "stateMutability": "view",
      "type": "function"
    },
    {
      "inputs": [
        {
          "internalType": "address",
          "name": "to",
          "type": "address"
        }
      ],
      "name": "getVestedAllowedPerc",
      "outputs": [
        {
          "internalType": "uint256",
          "name": "",
          "type": "uint256"
        }
      ],
      "stateMutability": "nonpayable",
      "type": "function"
    },
    {
      "inputs": [
        {
          "internalType": "address",
          "name": "to",
          "type": "address"
        }
      ],
      "name": "getVestedTotalBalance",
      "outputs": [
        {
          "internalType": "uint256",
          "name": "",
          "type": "uint256"
        }
      ],
      "stateMutability": "view",
      "type": "function"
    },
    {
      "inputs": [
        {
          "internalType": "address",
          "name": "to",
          "type": "address"
        }
      ],
      "name": "getVestedAllowedBalance",
      "outputs": [
        {
          "internalType": "uint256",
          "name": "",
          "type": "uint256"
        }
      ],
      "stateMutability": "nonpayable",
      "type": "function"
    },
    {
      "inputs": [
        {
          "internalType": "uint256",
          "name": "amount",
          "type": "uint256"
        }
      ],
      "name": "withdrawFromVested",
      "outputs": [],
      "stateMutability": "nonpayable",
      "type": "function"
    },
    {
      "inputs": [
        {
          "internalType": "address",
          "name": "recipient",
          "type": "address"
        },
        {
          "internalType": "uint256",
          "name": "amount",
          "type": "uint256"
        }
      ],
      "name": "depositToVested",
      "outputs": [],
      "stateMutability": "nonpayable",
      "type": "function"
    },
    {
      "inputs": [
        {
          "internalType": "address",
          "name": "recipient",
          "type": "address"
        }
      ],
      "name": "getWalletStatus",
      "outputs": [
        {
          "internalType": "enum VeelancingToken.WalletStatus",
          "name": "",
          "type": "uint8"
        }
      ],
      "stateMutability": "view",
      "type": "function"
    },
    {
      "inputs": [
        {
          "internalType": "address",
          "name": "recipient",
          "type": "address"
        },
        {
          "internalType": "enum VeelancingToken.WalletStatus",
          "name": "status",
          "type": "uint8"
        }
      ],
      "name": "setWalletStatus",
      "outputs": [],
      "stateMutability": "nonpayable",
      "type": "function"
    },
    {
      "inputs": [
        {
          "internalType": "address",
          "name": "recipient",
          "type": "address"
        },
        {
          "internalType": "uint256",
          "name": "amount",
          "type": "uint256"
        }
      ],
      "name": "deposit",
      "outputs": [],
      "stateMutability": "nonpayable",
      "type": "function"
    },
    {
      "inputs": [
        {
          "internalType": "address",
          "name": "recipient",
          "type": "address"
        },
        {
          "internalType": "uint256",
          "name": "amount",
          "type": "uint256"
        }
      ],
      "name": "transfer",
      "outputs": [
        {
          "internalType": "bool",
          "name": "",
          "type": "bool"
        }
      ],
      "stateMutability": "nonpayable",
      "type": "function"
    },
    {
      "inputs": [],
      "name": "startPreIco",
      "outputs": [],
      "stateMutability": "nonpayable",
      "type": "function"
    },
    {
      "inputs": [],
      "name": "startIco",
      "outputs": [],
      "stateMutability": "nonpayable",
      "type": "function"
    },
    {
      "inputs": [],
      "name": "endIco",
      "outputs": [],
      "stateMutability": "nonpayable",
      "type": "function"
    },
    {
      "inputs": [
        {
          "internalType": "address",
          "name": "recipient",
          "type": "address"
        },
        {
          "internalType": "uint256",
          "name": "amount",
          "type": "uint256"
        }
      ],
      "name": "createBonus",
      "outputs": [],
      "stateMutability": "nonpayable",
      "type": "function"
    }
  ],
  "bytecode": "0x6080604052604051806080016040528073c9c4aaf0042daa49e404bdb5a84efcfc17c5488073ffffffffffffffffffffffffffffffffffffffff1673ffffffffffffffffffffffffffffffffffffffff1681526020017372321dec1bc93d8c906e40d1056522283a4389f973ffffffffffffffffffffffffffffffffffffffff1673ffffffffffffffffffffffffffffffffffffffff16815260200173b2bd39587cf589aaab6a36e25b0aed76fcf58c7b73ffffffffffffffffffffffffffffffffffffffff1673ffffffffffffffffffffffffffffffffffffffff168152602001733effec8ebcf00052f62e4001b7804011da7c6f1473ffffffffffffffffffffffffffffffffffffffff1673ffffffffffffffffffffffffffffffffffffffff16815250600c9060046200013792919062000dc7565b506040518060800160405280619c4a62ffffff16815260200162bebc2062ffffff16815260200161981c62ffffff168152602001619ad862ffffff16815250600d9060046200018892919062000e56565b50604051806101e0016040528073f553ce9e38b21077f518d8db39db892f05751fa173ffffffffffffffffffffffffffffffffffffffff1673ffffffffffffffffffffffffffffffffffffffff16815260200173da974670f0fa770db9277a0306d568e4d6f6c5a373ffffffffffffffffffffffffffffffffffffffff1673ffffffffffffffffffffffffffffffffffffffff1681526020017323922042557af5b562eab49fd0ac09b16e6ac5e273ffffffffffffffffffffffffffffffffffffffff1673ffffffffffffffffffffffffffffffffffffffff16815260200173a0e6f859c24549efc0f873e7e5c043d90ba68eab73ffffffffffffffffffffffffffffffffffffffff1673ffffffffffffffffffffffffffffffffffffffff16815260200173733acd147e486cbe9f33257dc6272ad5292a8e6f73ffffffffffffffffffffffffffffffffffffffff1673ffffffffffffffffffffffffffffffffffffffff16815260200173700ff631e391e22f8b7c97051626f98ff4ae212373ffffffffffffffffffffffffffffffffffffffff1673ffffffffffffffffffffffffffffffffffffffff168152602001736c7ccd2c0f29fe4a01f834e98a97e3698c7ee16873ffffffffffffffffffffffffffffffffffffffff1673ffffffffffffffffffffffffffffffffffffffff16815260200173b02dbf9e04535cf3f086fe812bf765d9a8ece5db73ffffffffffffffffffffffffffffffffffffffff1673ffffffffffffffffffffffffffffffffffffffff16815260200173a7d4301f1f5f1c5ac2dcc2e761b04fcbe0ba1fed73ffffffffffffffffffffffffffffffffffffffff1673ffffffffffffffffffffffffffffffffffffffff16815260200173c9d8fb40f6d0e3e14c36b93e66ec16c9d4f70ed373ffffffffffffffffffffffffffffffffffffffff1673ffffffffffffffffffffffffffffffffffffffff1681526020017372e8bbe74a17dfa47533e556189152f174a00ed973ffffffffffffffffffffffffffffffffffffffff1673ffffffffffffffffffffffffffffffffffffffff1681526020017381a806e845d80bc775d721878d976e6f20dfa11573ffffffffffffffffffffffffffffffffffffffff1673ffffffffffffffffffffffffffffffffffffffff16815260200173bdb1d0e82620bf90a7b231b19c69cad39107334173ffffffffffffffffffffffffffffffffffffffff1673ffffffffffffffffffffffffffffffffffffffff16815260200173ac531927bd88c9a59e757cb5bb556535c9c3043f73ffffffffffffffffffffffffffffffffffffffff1673ffffffffffffffffffffffffffffffffffffffff168152602001732bc800abe1bd22bec07561bc740520908897716973ffffffffffffffffffffffffffffffffffffffff1673ffffffffffffffffffffffffffffffffffffffff16815250600e90600f620005bf92919062000eaf565b50604051806101e001604052806301312e0e63ffffffff168152602001625b914063ffffffff1681526020016301c9c4ac63ffffffff168152602001626acfc063ffffffff168152602001626acfc063ffffffff168152602001626acfc063ffffffff168152602001622dc6c063ffffffff16815260200161c35063ffffffff168152602001626acfc063ffffffff168152602001626acfc063ffffffff168152602001625b8d8063ffffffff168152602001626ad02463ffffffff1681526020016113ec63ffffffff16815260200161044c63ffffffff168152602001626ad02463ffffffff16815250600f90600f620006bc92919062000f3e565b50348015620006ca57600080fd5b5060405162005a8538038062005a858339818101604052810190620006f0919062001285565b888881600390805190602001906200070a92919062000f98565b5080600490805190602001906200072392919062000f98565b50505084600681905550836007819055508260088190555081600b8190555060006009819055506000601260006101000a81548160ff02191690836003811115620007735762000772620013a2565b5b0217905550620007ad7fa49807205ce4d355092ef5a8a18f56e8913cf4a201fbe287825b095693c217756000801b62000a1e60201b60201c565b620007df7fa49807205ce4d355092ef5a8a18f56e8913cf4a201fbe287825b095693c217758262000a7c60201b60201c565b620007f1878762000a9260201b60201c565b60005b600c80549050811015620008ff57620008757fb165298935924f540e4181c03493a5d686c54a0aaeb3f6216de85b7ffbba7738600c83815481106200083e576200083d620013d1565b5b9060005260206000200160009054906101000a900473ffffffffffffffffffffffffffffffffffffffff1662000a7c60201b60201c565b620008e9600c828154811062000890576200088f620013d1565b5b9060005260206000200160009054906101000a900473ffffffffffffffffffffffffffffffffffffffff16600d8381548110620008d257620008d1620013d1565b5b906000526020600020015462000a9260201b60201c565b8080620008f6906200142f565b915050620007f4565b5060005b600e8054905081101562000a0e57620009847f5146a08baf902532d0ee2f909971144f12ca32651cd70cbee1117cddfb3b3b33600e83815481106200094d576200094c620013d1565b5b9060005260206000200160009054906101000a900473ffffffffffffffffffffffffffffffffffffffff1662000a7c60201b60201c565b620009f8600e82815481106200099f576200099e620013d1565b5b9060005260206000200160009054906101000a900473ffffffffffffffffffffffffffffffffffffffff16600f8381548110620009e157620009e0620013d1565b5b906000526020600020015462000a9260201b60201c565b808062000a05906200142f565b91505062000903565b505050505050505050506200156d565b8062000a308362000c2a60201b60201c565b837fbd79b86ffe0ab8e8776151514217cd7cacd52c909f66475c3af44e129f0b00ff60405160405180910390a48060056000848152602001908152602001600020600101819055505050565b62000a8e828262000c4a60201b60201c565b5050565b62000aee81601060008573ffffffffffffffffffffffffffffffffffffffff1673ffffffffffffffffffffffffffffffffffffffff1681526020019081526020016000206002015462000d3c60201b620025211790919060201c565b601060008473ffffffffffffffffffffffffffffffffffffffff1673ffffffffffffffffffffffffffffffffffffffff1681526020019081526020016000206002018190555062000b9081601060008573ffffffffffffffffffffffffffffffffffffffff1673ffffffffffffffffffffffffffffffffffffffff1681526020019081526020016000206001015462000d3c60201b620025211790919060201c565b601060008473ffffffffffffffffffffffffffffffffffffffff1673ffffffffffffffffffffffffffffffffffffffff168152602001908152602001600020600101819055508173ffffffffffffffffffffffffffffffffffffffff167f231472cdefc3c25438a167454431d6b08cddc40dcc454abbb9d8d8ca98ebbcd28260405162000c1e91906200148e565b60405180910390a25050565b600060056000838152602001908152602001600020600101549050919050565b62000c5c828262000d5460201b60201c565b62000d385760016005600084815260200190815260200160002060000160008373ffffffffffffffffffffffffffffffffffffffff1673ffffffffffffffffffffffffffffffffffffffff16815260200190815260200160002060006101000a81548160ff02191690831515021790555062000cdd62000dbf60201b60201c565b73ffffffffffffffffffffffffffffffffffffffff168173ffffffffffffffffffffffffffffffffffffffff16837f2f8788117e7eff1d82e926ec794901d17c78024a50270940304540a733656f0d60405160405180910390a45b5050565b6000818362000d4c9190620014ab565b905092915050565b60006005600084815260200190815260200160002060000160008373ffffffffffffffffffffffffffffffffffffffff1673ffffffffffffffffffffffffffffffffffffffff16815260200190815260200160002060009054906101000a900460ff16905092915050565b600033905090565b82805482825590600052602060002090810192821562000e43579160200282015b8281111562000e425782518260006101000a81548173ffffffffffffffffffffffffffffffffffffffff021916908373ffffffffffffffffffffffffffffffffffffffff1602179055509160200191906001019062000de8565b5b50905062000e52919062001029565b5090565b82805482825590600052602060002090810192821562000e9c579160200282015b8281111562000e9b578251829062ffffff1690559160200191906001019062000e77565b5b50905062000eab919062001029565b5090565b82805482825590600052602060002090810192821562000f2b579160200282015b8281111562000f2a5782518260006101000a81548173ffffffffffffffffffffffffffffffffffffffff021916908373ffffffffffffffffffffffffffffffffffffffff1602179055509160200191906001019062000ed0565b5b50905062000f3a919062001029565b5090565b82805482825590600052602060002090810192821562000f85579160200282015b8281111562000f84578251829063ffffffff1690559160200191906001019062000f5f565b5b50905062000f94919062001029565b5090565b82805462000fa69062001537565b90600052602060002090601f01602090048101928262000fca576000855562001016565b82601f1062000fe557805160ff191683800117855562001016565b8280016001018555821562001016579182015b828111156200101557825182559160200191906001019062000ff8565b5b50905062001025919062001029565b5090565b5b80821115620010445760008160009055506001016200102a565b5090565b6000604051905090565b600080fd5b600080fd5b600080fd5b600080fd5b6000601f19601f8301169050919050565b7f4e487b7100000000000000000000000000000000000000000000000000000000600052604160045260246000fd5b620010b18262001066565b810181811067ffffffffffffffff82111715620010d357620010d262001077565b5b80604052505050565b6000620010e862001048565b9050620010f68282620010a6565b919050565b600067ffffffffffffffff82111562001119576200111862001077565b5b620011248262001066565b9050602081019050919050565b60005b838110156200115157808201518184015260208101905062001134565b8381111562001161576000848401525b50505050565b60006200117e6200117884620010fb565b620010dc565b9050828152602081018484840111156200119d576200119c62001061565b5b620011aa84828562001131565b509392505050565b600082601f830112620011ca57620011c96200105c565b5b8151620011dc84826020860162001167565b91505092915050565b600073ffffffffffffffffffffffffffffffffffffffff82169050919050565b60006200121282620011e5565b9050919050565b620012248162001205565b81146200123057600080fd5b50565b600081519050620012448162001219565b92915050565b6000819050919050565b6200125f816200124a565b81146200126b57600080fd5b50565b6000815190506200127f8162001254565b92915050565b60008060008060008060008060006101208a8c031215620012ab57620012aa62001052565b5b60008a015167ffffffffffffffff811115620012cc57620012cb62001057565b5b620012da8c828d01620011b2565b99505060208a015167ffffffffffffffff811115620012fe57620012fd62001057565b5b6200130c8c828d01620011b2565b98505060406200131f8c828d0162001233565b9750506060620013328c828d016200126e565b9650506080620013458c828d016200126e565b95505060a0620013588c828d016200126e565b94505060c06200136b8c828d016200126e565b93505060e06200137e8c828d016200126e565b925050610100620013928c828d0162001233565b9150509295985092959850929598565b7f4e487b7100000000000000000000000000000000000000000000000000000000600052602160045260246000fd5b7f4e487b7100000000000000000000000000000000000000000000000000000000600052603260045260246000fd5b7f4e487b7100000000000000000000000000000000000000000000000000000000600052601160045260246000fd5b60006200143c826200124a565b91507fffffffffffffffffffffffffffffffffffffffffffffffffffffffffffffffff82141562001472576200147162001400565b5b600182019050919050565b62001488816200124a565b82525050565b6000602082019050620014a560008301846200147d565b92915050565b6000620014b8826200124a565b9150620014c5836200124a565b9250827fffffffffffffffffffffffffffffffffffffffffffffffffffffffffffffffff03821115620014fd57620014fc62001400565b5b828201905092915050565b7f4e487b7100000000000000000000000000000000000000000000000000000000600052602260045260246000fd5b600060028204905060018216806200155057607f821691505b6020821081141562001567576200156662001508565b5b50919050565b614508806200157d6000396000f3fe60806040526004361061023f5760003560e01c806375b238fc1161012e578063c06d1272116100ab578063d547741f1161006f578063d547741f14610932578063dd62ed3e1461095b578063e5130c9014610998578063e657807b146109c1578063ef6e312d146109d857610298565b8063c06d127214610873578063c7876ea41461088a578063c807cb25146108b5578063cab24ee6146108de578063cb9974d61461090757610298565b8063a217fddf116100f2578063a217fddf1461077a578063a3dd2619146107a5578063a457c2d7146107d0578063a9059cbb1461080d578063b04fd8451461084a57610298565b806375b238fc146106a557806376082a5e146106d057806389311e6f146106fb57806391d148541461071257806395d89b411461074f57610298565b806339509351116101bc578063523e955111610180578063523e95511461059a57806353ab1a7c146105c3578063554d578d146106005780635de593cd1461062b57806370a082311461066857610298565b806339509351146104a157806347e7ef24146104de57806347fcfb7e1461050757806349d5e604146105445780634cb84b9a1461056f57610298565b8063248a9ca311610203578063248a9ca3146103aa5780632c083c97146103e75780632f2ff15d14610424578063313ce5671461044d57806336568abe1461047857610298565b806301ffc9a71461029d57806306fdde03146102da578063095ea7b31461030557806318160ddd1461034257806323b872dd1461036d57610298565b366102985760003490506000610281670de0b6b3a764000061027368056bc75e2d6310000085610a0390919063ffffffff16565b610a1990919063ffffffff16565b905061029461028e610a2f565b82610a37565b5050005b600080fd5b3480156102a957600080fd5b506102c460048036038101906102bf91906130e2565b610d02565b6040516102d1919061312a565b60405180910390f35b3480156102e657600080fd5b506102ef610d7c565b6040516102fc91906131de565b60405180910390f35b34801561031157600080fd5b5061032c60048036038101906103279190613294565b610e0e565b604051610339919061312a565b60405180910390f35b34801561034e57600080fd5b50610357610e2c565b60405161036491906132e3565b60405180910390f35b34801561037957600080fd5b50610394600480360381019061038f91906132fe565b610e36565b6040516103a1919061312a565b60405180910390f35b3480156103b657600080fd5b506103d160048036038101906103cc9190613387565b610f37565b6040516103de91906133c3565b60405180910390f35b3480156103f357600080fd5b5061040e600480360381019061040991906133de565b610f57565b60405161041b91906132e3565b60405180910390f35b34801561043057600080fd5b5061044b6004803603810190610446919061340b565b61111e565b005b34801561045957600080fd5b50610462611147565b60405161046f9190613467565b60405180910390f35b34801561048457600080fd5b5061049f600480360381019061049a919061340b565b611150565b005b3480156104ad57600080fd5b506104c860048036038101906104c39190613294565b6111d3565b6040516104d5919061312a565b60405180910390f35b3480156104ea57600080fd5b5061050560048036038101906105009190613294565b610a37565b005b34801561051357600080fd5b5061052e600480360381019061052991906133de565b61127f565b60405161053b91906132e3565b60405180910390f35b34801561055057600080fd5b50610559611371565b60405161056691906133c3565b60405180910390f35b34801561057b57600080fd5b50610584611395565b60405161059191906132e3565b60405180910390f35b3480156105a657600080fd5b506105c160048036038101906105bc9190613482565b61139f565b005b3480156105cf57600080fd5b506105ea60048036038101906105e591906133de565b611464565b6040516105f791906132e3565b60405180910390f35b34801561060c57600080fd5b50610615611553565b60405161062291906132e3565b60405180910390f35b34801561063757600080fd5b50610652600480360381019061064d91906133de565b61155d565b60405161065f9190613526565b60405180910390f35b34801561067457600080fd5b5061068f600480360381019061068a91906133de565b6115b3565b60405161069c91906132e3565b60405180910390f35b3480156106b157600080fd5b506106ba6115fb565b6040516106c791906133c3565b60405180910390f35b3480156106dc57600080fd5b506106e561161f565b6040516106f291906133c3565b60405180910390f35b34801561070757600080fd5b50610710611643565b005b34801561071e57600080fd5b506107396004803603810190610734919061340b565b6116e0565b604051610746919061312a565b60405180910390f35b34801561075b57600080fd5b5061076461174b565b60405161077191906131de565b60405180910390f35b34801561078657600080fd5b5061078f6117dd565b60405161079c91906133c3565b60405180910390f35b3480156107b157600080fd5b506107ba6117e4565b6040516107c791906131de565b60405180910390f35b3480156107dc57600080fd5b506107f760048036038101906107f29190613294565b61198d565b604051610804919061312a565b60405180910390f35b34801561081957600080fd5b50610834600480360381019061082f9190613294565b611a81565b604051610841919061312a565b60405180910390f35b34801561085657600080fd5b50610871600480360381019061086c9190613294565b611bbf565b005b34801561087f57600080fd5b50610888611d47565b005b34801561089657600080fd5b5061089f611de4565b6040516108ac91906132e3565b60405180910390f35b3480156108c157600080fd5b506108dc60048036038101906108d79190613482565b611df1565b005b3480156108ea57600080fd5b5061090560048036038101906109009190613566565b612106565b005b34801561091357600080fd5b5061091c61222f565b60405161092991906133c3565b60405180910390f35b34801561093e57600080fd5b506109596004803603810190610954919061340b565b612253565b005b34801561096757600080fd5b50610982600480360381019061097d91906135a6565b61227c565b60405161098f91906132e3565b60405180910390f35b3480156109a457600080fd5b506109bf60048036038101906109ba9190613294565b612303565b005b3480156109cd57600080fd5b506109d66123c6565b005b3480156109e457600080fd5b506109ed612517565b6040516109fa91906132e3565b60405180910390f35b60008183610a119190613615565b905092915050565b60008183610a27919061369e565b905092915050565b600033905090565b600081905060016003811115610a5057610a4f6134af565b5b601260009054906101000a900460ff166003811115610a7257610a716134af565b5b1415610b7757610ab281610aa46064610a9660075486610a0390919063ffffffff16565b610a1990919063ffffffff16565b61252190919063ffffffff16565b9050600854610acc8260095461252190919063ffffffff16565b1115610b0d576040517f08c379a0000000000000000000000000000000000000000000000000000000008152600401610b049061371b565b60405180910390fd5b600180811115610b2057610b1f6134af565b5b610b298461155d565b6001811115610b3b57610b3a6134af565b5b1415610b4d57610b4c836000612106565b5b610b628160095461252190919063ffffffff16565b600981905550610b728382611bbf565b610cfd565b60026003811115610b8b57610b8a6134af565b5b601260009054906101000a900460ff166003811115610bad57610bac6134af565b5b1415610ca457610bed81610bdf6064610bd160065486610a0390919063ffffffff16565b610a1990919063ffffffff16565b61252190919063ffffffff16565b9050600854610c078260095461252190919063ffffffff16565b1115610c48576040517f08c379a0000000000000000000000000000000000000000000000000000000008152600401610c3f9061371b565b60405180910390fd5b600180811115610c5b57610c5a6134af565b5b610c648461155d565b6001811115610c7657610c756134af565b5b1415610c8857610c87836000612106565b5b610c9d8160095461252190919063ffffffff16565b6009819055505b610cae8382612537565b8273ffffffffffffffffffffffffffffffffffffffff167fe1fffcc4923d04b559f4d29a8bfc6cda04eb5b0d3c460751c2402c5c5cc9109c82604051610cf491906132e3565b60405180910390a25b505050565b60007f7965db0b000000000000000000000000000000000000000000000000000000007bffffffffffffffffffffffffffffffffffffffffffffffffffffffff1916827bffffffffffffffffffffffffffffffffffffffffffffffffffffffff19161480610d755750610d74826125a8565b5b9050919050565b606060038054610d8b9061376a565b80601f0160208091040260200160405190810160405280929190818152602001828054610db79061376a565b8015610e045780601f10610dd957610100808354040283529160200191610e04565b820191906000526020600020905b815481529060010190602001808311610de757829003601f168201915b5050505050905090565b6000610e22610e1b610a2f565b8484612612565b6001905092915050565b6000600254905090565b6000610e438484846127dd565b6000600160008673ffffffffffffffffffffffffffffffffffffffff1673ffffffffffffffffffffffffffffffffffffffff1681526020019081526020016000206000610e8e610a2f565b73ffffffffffffffffffffffffffffffffffffffff1673ffffffffffffffffffffffffffffffffffffffff16815260200190815260200160002054905082811015610f0e576040517f08c379a0000000000000000000000000000000000000000000000000000000008152600401610f059061380e565b60405180910390fd5b610f2b85610f1a610a2f565b8584610f26919061382e565b612612565b60019150509392505050565b600060056000838152602001908152602001600020600101549050919050565b600080600a5490506000600380811115610f7457610f736134af565b5b601260009054906101000a900460ff166003811115610f9657610f956134af565b5b14610fa657600092505050611119565b5b610fd17f9a655bf4f3f1c7d2f9e9e0f77235619a2dbb74cae04687c73945e706d64d1c56856116e0565b1561100a57610fea60148261252190919063ffffffff16565b905061100363013c68008361252190919063ffffffff16565b91506110ff565b6110347f5146a08baf902532d0ee2f909971144f12ca32651cd70cbee1117cddfb3b3b33856116e0565b1561106c5761104d601e8261252190919063ffffffff16565b9050611065629e34008361252190919063ffffffff16565b91506110fe565b6110967fb165298935924f540e4181c03493a5d686c54a0aaeb3f6216de85b7ffbba7738856116e0565b156110ce576110af60198261252190919063ffffffff16565b90506110c762ed4e008361252190919063ffffffff16565b91506110fd565b6110e260148261252190919063ffffffff16565b90506110fa6276a7008361252190919063ffffffff16565b91505b5b5b428210801561110f575060648111155b610fa75780925050505b919050565b61112782610f37565b61113881611133610a2f565b612a5c565b6111428383612af9565b505050565b60006012905090565b611158610a2f565b73ffffffffffffffffffffffffffffffffffffffff168173ffffffffffffffffffffffffffffffffffffffff16146111c5576040517f08c379a00000000000000000000000000000000000000000000000000000000081526004016111bc906138d4565b60405180910390fd5b6111cf8282612bda565b5050565b60006112756111e0610a2f565b8484600160006111ee610a2f565b73ffffffffffffffffffffffffffffffffffffffff1673ffffffffffffffffffffffffffffffffffffffff16815260200190815260200160002060008873ffffffffffffffffffffffffffffffffffffffff1673ffffffffffffffffffffffffffffffffffffffff1681526020019081526020016000205461127091906138f4565b612612565b6001905092915050565b6000806000600a90505b6064811161130d576112f7601060008673ffffffffffffffffffffffffffffffffffffffff1673ffffffffffffffffffffffffffffffffffffffff1681526020019081526020016000206000016000838152602001908152602001600020548361252190919063ffffffff16565b9150600a8161130691906138f4565b9050611289565b506000601060008573ffffffffffffffffffffffffffffffffffffffff1673ffffffffffffffffffffffffffffffffffffffff1681526020019081526020016000206002015490506113688282612cbc90919063ffffffff16565b92505050919050565b7f5146a08baf902532d0ee2f909971144f12ca32651cd70cbee1117cddfb3b3b3381565b6000600854905090565b6113d07fa49807205ce4d355092ef5a8a18f56e8913cf4a201fbe287825b095693c217756113cb610a2f565b6116e0565b61140f576040517f08c379a0000000000000000000000000000000000000000000000000000000008152600401611406906139bc565b60405180910390fd5b61142481600b5461252190919063ffffffff16565b600b819055507f80abc82f9231153a7e1aac6902d6bc5a1c5f5cc02bf2643efada847881696ca38160405161145991906132e3565b60405180910390a150565b60008061147083610f57565b905060006114dc826114ce6064601060008973ffffffffffffffffffffffffffffffffffffffff1673ffffffffffffffffffffffffffffffffffffffff16815260200190815260200160002060020154610a1990919063ffffffff16565b610a0390919063ffffffff16565b90506000601060008673ffffffffffffffffffffffffffffffffffffffff1673ffffffffffffffffffffffffffffffffffffffff16815260200190815260200160002060000160008481526020019081526020016000205490506115498183612cbc90919063ffffffff16565b9350505050919050565b6000600b54905090565b6000601160008373ffffffffffffffffffffffffffffffffffffffff1673ffffffffffffffffffffffffffffffffffffffff16815260200190815260200160002060009054906101000a900460ff169050919050565b60008060008373ffffffffffffffffffffffffffffffffffffffff1673ffffffffffffffffffffffffffffffffffffffff168152602001908152602001600020549050919050565b7fa49807205ce4d355092ef5a8a18f56e8913cf4a201fbe287825b095693c2177581565b7fb165298935924f540e4181c03493a5d686c54a0aaeb3f6216de85b7ffbba773881565b6116747fa49807205ce4d355092ef5a8a18f56e8913cf4a201fbe287825b095693c2177561166f610a2f565b6116e0565b6116b3576040517f08c379a00000000000000000000000000000000000000000000000000000000081526004016116aa90613a4e565b60405180910390fd5b6002601260006101000a81548160ff021916908360038111156116d9576116d86134af565b5b0217905550565b60006005600084815260200190815260200160002060000160008373ffffffffffffffffffffffffffffffffffffffff1673ffffffffffffffffffffffffffffffffffffffff16815260200190815260200160002060009054906101000a900460ff16905092915050565b60606004805461175a9061376a565b80601f01602080910402602001604051908101604052809291908181526020018280546117869061376a565b80156117d35780601f106117a8576101008083540402835291602001916117d3565b820191906000526020600020905b8154815290600101906020018083116117b657829003601f168201915b5050505050905090565b6000801b81565b6060600060038111156117fa576117f96134af565b5b601260009054906101000a900460ff16600381111561181c5761181b6134af565b5b141561185f576040518060400160405280600a81526020017f4e6f745374617274656400000000000000000000000000000000000000000000815250905061198a565b60016003811115611873576118726134af565b5b601260009054906101000a900460ff166003811115611895576118946134af565b5b14156118d8576040518060400160405280600781526020017f5072652049434f00000000000000000000000000000000000000000000000000815250905061198a565b600260038111156118ec576118eb6134af565b5b601260009054906101000a900460ff16600381111561190e5761190d6134af565b5b1415611951576040518060400160405280600381526020017f49434f0000000000000000000000000000000000000000000000000000000000815250905061198a565b6040518060400160405280600881526020017f46696e697368656400000000000000000000000000000000000000000000000081525090505b90565b6000806001600061199c610a2f565b73ffffffffffffffffffffffffffffffffffffffff1673ffffffffffffffffffffffffffffffffffffffff16815260200190815260200160002060008573ffffffffffffffffffffffffffffffffffffffff1673ffffffffffffffffffffffffffffffffffffffff16815260200190815260200160002054905082811015611a59576040517f08c379a0000000000000000000000000000000000000000000000000000000008152600401611a5090613ae0565b60405180910390fd5b611a76611a64610a2f565b858584611a71919061382e565b612612565b600191505092915050565b6000611ab47fa49807205ce4d355092ef5a8a18f56e8913cf4a201fbe287825b095693c21775611aaf610a2f565b6116e0565b611b2e57600380811115611acb57611aca6134af565b5b601260009054906101000a900460ff166003811115611aed57611aec6134af565b5b14611b2d576040517f08c379a0000000000000000000000000000000000000000000000000000000008152600401611b2490613b4c565b60405180910390fd5b5b600180811115611b4157611b406134af565b5b611b51611b4c610a2f565b61155d565b6001811115611b6357611b626134af565b5b14611ba3576040517f08c379a0000000000000000000000000000000000000000000000000000000008152600401611b9a90613bb8565b60405180910390fd5b611bb5611bae610a2f565b84846127dd565b6001905092915050565b611c1481601060008573ffffffffffffffffffffffffffffffffffffffff1673ffffffffffffffffffffffffffffffffffffffff1681526020019081526020016000206002015461252190919063ffffffff16565b601060008473ffffffffffffffffffffffffffffffffffffffff1673ffffffffffffffffffffffffffffffffffffffff16815260200190815260200160002060020181905550611caf81601060008573ffffffffffffffffffffffffffffffffffffffff1673ffffffffffffffffffffffffffffffffffffffff1681526020019081526020016000206001015461252190919063ffffffff16565b601060008473ffffffffffffffffffffffffffffffffffffffff1673ffffffffffffffffffffffffffffffffffffffff168152602001908152602001600020600101819055508173ffffffffffffffffffffffffffffffffffffffff167f231472cdefc3c25438a167454431d6b08cddc40dcc454abbb9d8d8ca98ebbcd282604051611d3b91906132e3565b60405180910390a25050565b611d787fa49807205ce4d355092ef5a8a18f56e8913cf4a201fbe287825b095693c21775611d73610a2f565b6116e0565b611db7576040517f08c379a0000000000000000000000000000000000000000000000000000000008152600401611dae90613c4a565b60405180910390fd5b6001601260006101000a81548160ff02191690836003811115611ddd57611ddc6134af565b5b0217905550565b68056bc75e2d6310000081565b6000611e03611dfe610a2f565b610f57565b90506000611ee260106000611e16610a2f565b73ffffffffffffffffffffffffffffffffffffffff1673ffffffffffffffffffffffffffffffffffffffff168152602001908152602001600020600001600084815260200190815260200160002054611ed484611ec6606460106000611e7a610a2f565b73ffffffffffffffffffffffffffffffffffffffff1673ffffffffffffffffffffffffffffffffffffffff16815260200190815260200160002060020154610a1990919063ffffffff16565b610a0390919063ffffffff16565b612cbc90919063ffffffff16565b905080831115611f27576040517f08c379a0000000000000000000000000000000000000000000000000000000008152600401611f1e90613cdc565b60405180910390fd5b611f838360106000611f37610a2f565b73ffffffffffffffffffffffffffffffffffffffff1673ffffffffffffffffffffffffffffffffffffffff16815260200190815260200160002060010154612cbc90919063ffffffff16565b60106000611f8f610a2f565b73ffffffffffffffffffffffffffffffffffffffff1673ffffffffffffffffffffffffffffffffffffffff1681526020019081526020016000206001018190555061203d8360106000611fe0610a2f565b73ffffffffffffffffffffffffffffffffffffffff1673ffffffffffffffffffffffffffffffffffffffff16815260200190815260200160002060000160008581526020019081526020016000205461252190919063ffffffff16565b60106000612049610a2f565b73ffffffffffffffffffffffffffffffffffffffff1673ffffffffffffffffffffffffffffffffffffffff1681526020019081526020016000206000016000848152602001908152602001600020819055506120ac6120a6610a2f565b84612537565b6120b4610a2f565b73ffffffffffffffffffffffffffffffffffffffff167f393c95e9d26e675951a2e5342d80b93219994d655eb7f2834bde4f51a4a79272846040516120f991906132e3565b60405180910390a2505050565b6121377fa49807205ce4d355092ef5a8a18f56e8913cf4a201fbe287825b095693c21775612132610a2f565b6116e0565b612176576040517f08c379a000000000000000000000000000000000000000000000000000000000815260040161216d90613d6e565b60405180910390fd5b80601160008473ffffffffffffffffffffffffffffffffffffffff1673ffffffffffffffffffffffffffffffffffffffff16815260200190815260200160002060006101000a81548160ff021916908360018111156121d8576121d76134af565b5b02179055508173ffffffffffffffffffffffffffffffffffffffff167fe889d83d305e4aa8bb35213963828d1bd52e88e6af324362092d9b1622a4f27c826040516122239190613526565b60405180910390a25050565b7f9a655bf4f3f1c7d2f9e9e0f77235619a2dbb74cae04687c73945e706d64d1c5681565b61225c82610f37565b61226d81612268610a2f565b612a5c565b6122778383612bda565b505050565b6000600160008473ffffffffffffffffffffffffffffffffffffffff1673ffffffffffffffffffffffffffffffffffffffff16815260200190815260200160002060008373ffffffffffffffffffffffffffffffffffffffff1673ffffffffffffffffffffffffffffffffffffffff16815260200190815260200160002054905092915050565b6123347fa49807205ce4d355092ef5a8a18f56e8913cf4a201fbe287825b095693c2177561232f610a2f565b6116e0565b612373576040517f08c379a000000000000000000000000000000000000000000000000000000000815260040161236a90613e00565b60405180910390fd5b61239d7f9a655bf4f3f1c7d2f9e9e0f77235619a2dbb74cae04687c73945e706d64d1c5683612cd2565b6123a78282611bbf565b6123bc8160095461252190919063ffffffff16565b6009819055505050565b600260038111156123da576123d96134af565b5b601260009054906101000a900460ff1660038111156123fc576123fb6134af565b5b1461243c576040517f08c379a000000000000000000000000000000000000000000000000000000000815260040161243390613e6c565b60405180910390fd5b61246d7fa49807205ce4d355092ef5a8a18f56e8913cf4a201fbe287825b095693c21775612468610a2f565b6116e0565b6124ac576040517f08c379a00000000000000000000000000000000000000000000000000000000081526004016124a390613efe565b60405180910390fd5b60006124c5600954600854612cbc90919063ffffffff16565b90506003601260006101000a81548160ff021916908360038111156124ed576124ec6134af565b5b021790555042600a8190555060008111156125145761251361250d610a2f565b82610a37565b5b50565b6000600954905090565b6000818361252f91906138f4565b905092915050565b61253f611553565b6125598261254b610e2c565b61252190919063ffffffff16565b111561259a576040517f08c379a000000000000000000000000000000000000000000000000000000000815260040161259190613f6a565b60405180910390fd5b6125a48282612ce0565b5050565b60007f01ffc9a7000000000000000000000000000000000000000000000000000000007bffffffffffffffffffffffffffffffffffffffffffffffffffffffff1916827bffffffffffffffffffffffffffffffffffffffffffffffffffffffff1916149050919050565b600073ffffffffffffffffffffffffffffffffffffffff168373ffffffffffffffffffffffffffffffffffffffff161415612682576040517f08c379a000000000000000000000000000000000000000000000000000000000815260040161267990613ffc565b60405180910390fd5b600073ffffffffffffffffffffffffffffffffffffffff168273ffffffffffffffffffffffffffffffffffffffff1614156126f2576040517f08c379a00000000000000000000000000000000000000000000000000000000081526004016126e99061408e565b60405180910390fd5b80600160008573ffffffffffffffffffffffffffffffffffffffff1673ffffffffffffffffffffffffffffffffffffffff16815260200190815260200160002060008473ffffffffffffffffffffffffffffffffffffffff1673ffffffffffffffffffffffffffffffffffffffff168152602001908152602001600020819055508173ffffffffffffffffffffffffffffffffffffffff168373ffffffffffffffffffffffffffffffffffffffff167f8c5be1e5ebec7d5bd14f71427d1e84f3dd0314c0f7b2291e5b200ac8c7c3b925836040516127d091906132e3565b60405180910390a3505050565b600073ffffffffffffffffffffffffffffffffffffffff168373ffffffffffffffffffffffffffffffffffffffff16141561284d576040517f08c379a000000000000000000000000000000000000000000000000000000000815260040161284490614120565b60405180910390fd5b600073ffffffffffffffffffffffffffffffffffffffff168273ffffffffffffffffffffffffffffffffffffffff1614156128bd576040517f08c379a00000000000000000000000000000000000000000000000000000000081526004016128b4906141b2565b60405180910390fd5b6128c8838383612e34565b60008060008573ffffffffffffffffffffffffffffffffffffffff1673ffffffffffffffffffffffffffffffffffffffff1681526020019081526020016000205490508181101561294e576040517f08c379a000000000000000000000000000000000000000000000000000000000815260040161294590614244565b60405180910390fd5b818161295a919061382e565b6000808673ffffffffffffffffffffffffffffffffffffffff1673ffffffffffffffffffffffffffffffffffffffff16815260200190815260200160002081905550816000808573ffffffffffffffffffffffffffffffffffffffff1673ffffffffffffffffffffffffffffffffffffffff16815260200190815260200160002060008282546129ea91906138f4565b925050819055508273ffffffffffffffffffffffffffffffffffffffff168473ffffffffffffffffffffffffffffffffffffffff167fddf252ad1be2c89b69c2b068fc378daa952ba7f163c4a11628f55a4df523b3ef84604051612a4e91906132e3565b60405180910390a350505050565b612a6682826116e0565b612af557612a8b8173ffffffffffffffffffffffffffffffffffffffff166014612e44565b612a998360001c6020612e44565b604051602001612aaa929190614338565b6040516020818303038152906040526040517f08c379a0000000000000000000000000000000000000000000000000000000008152600401612aec91906131de565b60405180910390fd5b5050565b612b0382826116e0565b612bd65760016005600084815260200190815260200160002060000160008373ffffffffffffffffffffffffffffffffffffffff1673ffffffffffffffffffffffffffffffffffffffff16815260200190815260200160002060006101000a81548160ff021916908315150217905550612b7b610a2f565b73ffffffffffffffffffffffffffffffffffffffff168173ffffffffffffffffffffffffffffffffffffffff16837f2f8788117e7eff1d82e926ec794901d17c78024a50270940304540a733656f0d60405160405180910390a45b5050565b612be482826116e0565b15612cb85760006005600084815260200190815260200160002060000160008373ffffffffffffffffffffffffffffffffffffffff1673ffffffffffffffffffffffffffffffffffffffff16815260200190815260200160002060006101000a81548160ff021916908315150217905550612c5d610a2f565b73ffffffffffffffffffffffffffffffffffffffff168173ffffffffffffffffffffffffffffffffffffffff16837ff6391f5c32d9c69d2a47ea670b442974b53935d1edc7fd64eb21e047a839171b60405160405180910390a45b5050565b60008183612cca919061382e565b905092915050565b612cdc8282612af9565b5050565b600073ffffffffffffffffffffffffffffffffffffffff168273ffffffffffffffffffffffffffffffffffffffff161415612d50576040517f08c379a0000000000000000000000000000000000000000000000000000000008152600401612d47906143be565b60405180910390fd5b612d5c60008383612e34565b8060026000828254612d6e91906138f4565b92505081905550806000808473ffffffffffffffffffffffffffffffffffffffff1673ffffffffffffffffffffffffffffffffffffffff1681526020019081526020016000206000828254612dc391906138f4565b925050819055508173ffffffffffffffffffffffffffffffffffffffff16600073ffffffffffffffffffffffffffffffffffffffff167fddf252ad1be2c89b69c2b068fc378daa952ba7f163c4a11628f55a4df523b3ef83604051612e2891906132e3565b60405180910390a35050565b612e3f838383613080565b505050565b606060006002836002612e579190613615565b612e6191906138f4565b67ffffffffffffffff811115612e7a57612e796143de565b5b6040519080825280601f01601f191660200182016040528015612eac5781602001600182028036833780820191505090505b5090507f300000000000000000000000000000000000000000000000000000000000000081600081518110612ee457612ee361440d565b5b60200101907effffffffffffffffffffffffffffffffffffffffffffffffffffffffffffff1916908160001a9053507f780000000000000000000000000000000000000000000000000000000000000081600181518110612f4857612f4761440d565b5b60200101907effffffffffffffffffffffffffffffffffffffffffffffffffffffffffffff1916908160001a90535060006001846002612f889190613615565b612f9291906138f4565b90505b6001811115613032577f3031323334353637383961626364656600000000000000000000000000000000600f861660108110612fd457612fd361440d565b5b1a60f81b828281518110612feb57612fea61440d565b5b60200101907effffffffffffffffffffffffffffffffffffffffffffffffffffffffffffff1916908160001a905350600485901c94508061302b9061443c565b9050612f95565b5060008414613076576040517f08c379a000000000000000000000000000000000000000000000000000000000815260040161306d906144b2565b60405180910390fd5b8091505092915050565b505050565b600080fd5b60007fffffffff0000000000000000000000000000000000000000000000000000000082169050919050565b6130bf8161308a565b81146130ca57600080fd5b50565b6000813590506130dc816130b6565b92915050565b6000602082840312156130f8576130f7613085565b5b6000613106848285016130cd565b91505092915050565b60008115159050919050565b6131248161310f565b82525050565b600060208201905061313f600083018461311b565b92915050565b600081519050919050565b600082825260208201905092915050565b60005b8381101561317f578082015181840152602081019050613164565b8381111561318e576000848401525b50505050565b6000601f19601f8301169050919050565b60006131b082613145565b6131ba8185613150565b93506131ca818560208601613161565b6131d381613194565b840191505092915050565b600060208201905081810360008301526131f881846131a5565b905092915050565b600073ffffffffffffffffffffffffffffffffffffffff82169050919050565b600061322b82613200565b9050919050565b61323b81613220565b811461324657600080fd5b50565b60008135905061325881613232565b92915050565b6000819050919050565b6132718161325e565b811461327c57600080fd5b50565b60008135905061328e81613268565b92915050565b600080604083850312156132ab576132aa613085565b5b60006132b985828601613249565b92505060206132ca8582860161327f565b9150509250929050565b6132dd8161325e565b82525050565b60006020820190506132f860008301846132d4565b92915050565b60008060006060848603121561331757613316613085565b5b600061332586828701613249565b935050602061333686828701613249565b92505060406133478682870161327f565b9150509250925092565b6000819050919050565b61336481613351565b811461336f57600080fd5b50565b6000813590506133818161335b565b92915050565b60006020828403121561339d5761339c613085565b5b60006133ab84828501613372565b91505092915050565b6133bd81613351565b82525050565b60006020820190506133d860008301846133b4565b92915050565b6000602082840312156133f4576133f3613085565b5b600061340284828501613249565b91505092915050565b6000806040838503121561342257613421613085565b5b600061343085828601613372565b925050602061344185828601613249565b9150509250929050565b600060ff82169050919050565b6134618161344b565b82525050565b600060208201905061347c6000830184613458565b92915050565b60006020828403121561349857613497613085565b5b60006134a68482850161327f565b91505092915050565b7f4e487b7100000000000000000000000000000000000000000000000000000000600052602160045260246000fd5b600281106134ef576134ee6134af565b5b50565b6000819050613500826134de565b919050565b6000613510826134f2565b9050919050565b61352081613505565b82525050565b600060208201905061353b6000830184613517565b92915050565b6002811061354e57600080fd5b50565b60008135905061356081613541565b92915050565b6000806040838503121561357d5761357c613085565b5b600061358b85828601613249565b925050602061359c85828601613551565b9150509250929050565b600080604083850312156135bd576135bc613085565b5b60006135cb85828601613249565b92505060206135dc85828601613249565b9150509250929050565b7f4e487b7100000000000000000000000000000000000000000000000000000000600052601160045260246000fd5b60006136208261325e565b915061362b8361325e565b9250817fffffffffffffffffffffffffffffffffffffffffffffffffffffffffffffffff0483118215151615613664576136636135e6565b5b828202905092915050565b7f4e487b7100000000000000000000000000000000000000000000000000000000600052601260045260246000fd5b60006136a98261325e565b91506136b48361325e565b9250826136c4576136c361366f565b5b828204905092915050565b7f5665656c616e63696e673a2049434f2043617020657863656465656400000000600082015250565b6000613705601c83613150565b9150613710826136cf565b602082019050919050565b60006020820190508181036000830152613734816136f8565b9050919050565b7f4e487b7100000000000000000000000000000000000000000000000000000000600052602260045260246000fd5b6000600282049050600182168061378257607f821691505b602082108114156137965761379561373b565b5b50919050565b7f45524332303a207472616e7366657220616d6f756e742065786365656473206160008201527f6c6c6f77616e6365000000000000000000000000000000000000000000000000602082015250565b60006137f8602883613150565b91506138038261379c565b604082019050919050565b60006020820190508181036000830152613827816137eb565b9050919050565b60006138398261325e565b91506138448361325e565b925082821015613857576138566135e6565b5b828203905092915050565b7f416363657373436f6e74726f6c3a2063616e206f6e6c792072656e6f756e636560008201527f20726f6c657320666f722073656c660000000000000000000000000000000000602082015250565b60006138be602f83613150565b91506138c982613862565b604082019050919050565b600060208201905081810360008301526138ed816138b1565b9050919050565b60006138ff8261325e565b915061390a8361325e565b9250827fffffffffffffffffffffffffffffffffffffffffffffffffffffffffffffffff0382111561393f5761393e6135e6565b5b828201905092915050565b7f5665656c616e63696e673a204f6e6c792061646d696e2063616e20696e63726560008201527f6173652074686520636170000000000000000000000000000000000000000000602082015250565b60006139a6602b83613150565b91506139b18261394a565b604082019050919050565b600060208201905081810360008301526139d581613999565b9050919050565b7f5665656c616e63696e673a204f6e6c79207468652061646d696e2063616e207360008201527f74617274207468652049434f0000000000000000000000000000000000000000602082015250565b6000613a38602c83613150565b9150613a43826139dc565b604082019050919050565b60006020820190508181036000830152613a6781613a2b565b9050919050565b7f45524332303a2064656372656173656420616c6c6f77616e63652062656c6f7760008201527f207a65726f000000000000000000000000000000000000000000000000000000602082015250565b6000613aca602583613150565b9150613ad582613a6e565b604082019050919050565b60006020820190508181036000830152613af981613abd565b9050919050565b7f5665656c616e63696e673a2049434f20736561736f6e00000000000000000000600082015250565b6000613b36601683613150565b9150613b4182613b00565b602082019050919050565b60006020820190508181036000830152613b6581613b29565b9050919050565b7f5665656c616e63696e673a2057616c6c657420697320626c6f636b6564000000600082015250565b6000613ba2601d83613150565b9150613bad82613b6c565b602082019050919050565b60006020820190508181036000830152613bd181613b95565b9050919050565b7f5665656c616e63696e673a204f6e6c79207468652061646d696e2063616e207360008201527f7461727420746865205072652049434f00000000000000000000000000000000602082015250565b6000613c34603083613150565b9150613c3f82613bd8565b604082019050919050565b60006020820190508181036000830152613c6381613c27565b9050919050565b7f5665656c616e63696e673a20776974686472617720616d6f756e74206578636560008201527f6564732062616c616e6365000000000000000000000000000000000000000000602082015250565b6000613cc6602b83613150565b9150613cd182613c6a565b604082019050919050565b60006020820190508181036000830152613cf581613cb9565b9050919050565b7f5665656c616e63696e673a204f6e6c79207468652061646d696e2063616e206360008201527f68616e6765207468652077616c6c657420737461747573000000000000000000602082015250565b6000613d58603783613150565b9150613d6382613cfc565b604082019050919050565b60006020820190508181036000830152613d8781613d4b565b9050919050565b7f5665656c616e63696e673a204f6e6c79207468652061646d696e2063616e206360008201527f726561746520626f6e7573657300000000000000000000000000000000000000602082015250565b6000613dea602d83613150565b9150613df582613d8e565b604082019050919050565b60006020820190508181036000830152613e1981613ddd565b9050919050565b7f5665656c616e63696e673a2049434f20616c726561647920656e6465642e0000600082015250565b6000613e56601e83613150565b9150613e6182613e20565b602082019050919050565b60006020820190508181036000830152613e8581613e49565b9050919050565b7f5665656c616e63696e673a204f6e6c79207468652061646d696e2063616e206560008201527f6e64207468652049434f00000000000000000000000000000000000000000000602082015250565b6000613ee8602a83613150565b9150613ef382613e8c565b604082019050919050565b60006020820190508181036000830152613f1781613edb565b9050919050565b7f5665656c616e63696e673a204361702065786365656465640000000000000000600082015250565b6000613f54601883613150565b9150613f5f82613f1e565b602082019050919050565b60006020820190508181036000830152613f8381613f47565b9050919050565b7f45524332303a20617070726f76652066726f6d20746865207a65726f2061646460008201527f7265737300000000000000000000000000000000000000000000000000000000602082015250565b6000613fe6602483613150565b9150613ff182613f8a565b604082019050919050565b6000602082019050818103600083015261401581613fd9565b9050919050565b7f45524332303a20617070726f766520746f20746865207a65726f20616464726560008201527f7373000000000000000000000000000000000000000000000000000000000000602082015250565b6000614078602283613150565b91506140838261401c565b604082019050919050565b600060208201905081810360008301526140a78161406b565b9050919050565b7f45524332303a207472616e736665722066726f6d20746865207a65726f20616460008201527f6472657373000000000000000000000000000000000000000000000000000000602082015250565b600061410a602583613150565b9150614115826140ae565b604082019050919050565b60006020820190508181036000830152614139816140fd565b9050919050565b7f45524332303a207472616e7366657220746f20746865207a65726f206164647260008201527f6573730000000000000000000000000000000000000000000000000000000000602082015250565b600061419c602383613150565b91506141a782614140565b604082019050919050565b600060208201905081810360008301526141cb8161418f565b9050919050565b7f45524332303a207472616e7366657220616d6f756e742065786365656473206260008201527f616c616e63650000000000000000000000000000000000000000000000000000602082015250565b600061422e602683613150565b9150614239826141d2565b604082019050919050565b6000602082019050818103600083015261425d81614221565b9050919050565b600081905092915050565b7f416363657373436f6e74726f6c3a206163636f756e7420000000000000000000600082015250565b60006142a5601783614264565b91506142b08261426f565b601782019050919050565b60006142c682613145565b6142d08185614264565b93506142e0818560208601613161565b80840191505092915050565b7f206973206d697373696e6720726f6c6520000000000000000000000000000000600082015250565b6000614322601183614264565b915061432d826142ec565b601182019050919050565b600061434382614298565b915061434f82856142bb565b915061435a82614315565b915061436682846142bb565b91508190509392505050565b7f45524332303a206d696e7420746f20746865207a65726f206164647265737300600082015250565b60006143a8601f83613150565b91506143b382614372565b602082019050919050565b600060208201905081810360008301526143d78161439b565b9050919050565b7f4e487b7100000000000000000000000000000000000000000000000000000000600052604160045260246000fd5b7f4e487b7100000000000000000000000000000000000000000000000000000000600052603260045260246000fd5b60006144478261325e565b9150600082141561445b5761445a6135e6565b5b600182039050919050565b7f537472696e67733a20686578206c656e67746820696e73756666696369656e74600082015250565b600061449c602083613150565b91506144a782614466565b602082019050919050565b600060208201905081810360008301526144cb8161448f565b905091905056fea26469706673582212209ad05ac6d9f851a9e572d78517400b507520bff4215665318fa472e79623f2a564736f6c634300080b0033",
  "immutableReferences": {},
  "source": "// SPDX-License-Identifier: MIT\npragma solidity 0.8.11;\n\nimport \"@openzeppelin/contracts/token/ERC20/ERC20.sol\";\nimport \"@openzeppelin/contracts/utils/math/SafeMath.sol\";\nimport \"@openzeppelin/contracts/access/AccessControl.sol\";\n\ncontract VeelancingToken is ERC20, AccessControl {\n    using SafeMath for uint256;\n\n    bytes32 public constant ADMIN_ROLE = keccak256(\"ADMIN_ROLE\");\n    bytes32 public constant INVESTOR_ROLE = keccak256(\"INVESTOR_ROLE\");\n    bytes32 public constant TEAM_ROLE = keccak256(\"TEAM_ROLE\");\n    bytes32 public constant BONUS_ICO_ROLE = keccak256(\"BONUS_ICO_ROLE\");\n    uint256 private percIco;\n    uint256 private percPreIco;\n    uint256 public constant basePrice = 100 * 10**18;\n    uint256 private icoCap;\n    uint256 private soldIcoTotal;\n    uint256 private endIcoDate;\n    uint256 private cap;\n\n    uint256 private constant vestingPerc = 20;\n    uint256 private constant vestingDays = 90 days;\n    address[] private investors = [\n        0xc9c4aAf0042dAa49e404bdB5a84EfcFc17c54880,\n        0x72321DEc1Bc93D8C906E40d1056522283A4389F9,\n        0xB2BD39587cf589AAAb6a36e25B0aED76FCf58c7B,\n        0x3EfFeC8EbcF00052F62e4001B7804011Da7c6f14\n    ];\n    uint256[] private investorAmounts = [40010, 12500000, 38940, 39640];\n    uint256 private constant percInvestors = 25;\n    uint256 private constant vestingDaysInvestors = 180 days;\n    address[] private team = [\n        0xF553CE9e38b21077f518D8dB39dB892f05751FA1,\n        0xdA974670f0Fa770db9277A0306d568E4D6f6c5a3,\n        0x23922042557AF5B562eab49FD0AC09b16E6Ac5E2,\n        0xA0e6f859c24549Efc0f873e7e5c043d90bA68EAb,\n        0x733ACd147e486cBe9f33257DC6272Ad5292a8E6f,\n        0x700Ff631E391E22F8B7C97051626f98ff4AE2123,\n        0x6C7CCd2c0f29FE4a01f834E98a97e3698C7Ee168,\n        0xb02dbF9e04535cf3f086fE812BF765D9A8ECE5dB,\n        0xa7d4301F1F5F1C5Ac2Dcc2e761b04Fcbe0bA1Fed,\n        0xC9d8fB40f6d0E3e14C36B93e66EC16C9d4F70ed3,\n        0x72e8BBe74a17dfa47533e556189152f174A00ED9,\n        0x81a806E845D80bc775D721878d976e6F20dfA115,\n        0xBdB1D0e82620bf90a7B231b19c69caD391073341,\n        0xAc531927bD88c9A59e757Cb5BB556535c9c3043F,\n        0x2BC800abE1bd22beC07561Bc7405209088977169\n    ];\n    uint256[] private teamAmounts = [\n        20000270,\n        6000960,\n        30000300,\n        7000000,\n        7000000,\n        7000000,\n        3000000,\n        50000,\n        7000000,\n        7000000,\n        6000000,\n        7000100,\n        5100,\n        1100,\n        7000100\n    ];\n    uint256 private constant percTeam = 30;\n    uint256 private constant vestingDaysTeam = 120 days;\n    uint256 private constant percBonusIco = 20;\n    uint256 private constant vestingDaysBonusIco = 240 days;\n\n    enum CrowdState {\n        NotStarted,\n        PreICO,\n        ICO,\n        Finished\n    }\n\n    enum WalletStatus {\n        Blocked,\n        Unblocked\n    }\n\n    struct VestedBalance {\n        mapping(uint256 => uint256) perc;\n        uint256 balance;\n        uint256 initialBalance;\n    }\n\n    mapping(address => VestedBalance) private _vestedBalances;\n    mapping(address => WalletStatus) private _blockedWallets;\n\n    CrowdState private state;\n\n    event WithdrawFromVested(address indexed to, uint256 value);\n    event DepositToVested(address indexed to, uint256 value);\n    event WalletStatusChanged(address indexed to, WalletStatus status);\n    event Deposit(address indexed to, uint256 value);\n    event CapIncreased(uint256 amount);\n\n    constructor(\n        string memory name,\n        string memory symbol,\n        address Liquidity,\n        uint256 volume_liquidity,\n        uint256 percIco_,\n        uint256 percPreIco_,\n        uint256 icoCap_,\n        uint256 cap_,\n        address owner\n    ) public ERC20(name, symbol) {\n        percIco = percIco_;\n        percPreIco = percPreIco_;\n        icoCap = icoCap_;\n        cap = cap_;\n\n        soldIcoTotal = 0;\n\n        state = CrowdState.NotStarted;\n\n        _setRoleAdmin(ADMIN_ROLE, DEFAULT_ADMIN_ROLE);\n        _setupRole(ADMIN_ROLE, owner);\n        depositToVested(Liquidity, volume_liquidity);\n\n        for (uint256 i = 0; i < investors.length; i++) {\n            _setupRole(INVESTOR_ROLE, investors[i]);\n            depositToVested(investors[i], investorAmounts[i]);\n        }\n\n        for (uint256 i = 0; i < team.length; i++) {\n            _setupRole(TEAM_ROLE, team[i]);\n            depositToVested(team[i], teamAmounts[i]);\n        }\n    }\n\n    function getCap() public view virtual returns (uint256) {\n        return cap;\n    }\n\n    function increaseCap(uint256 amount) public virtual {\n        require(\n            hasRole(ADMIN_ROLE, _msgSender()),\n            \"Veelancing: Only admin can increase the cap\"\n        );\n        cap = cap.add(amount);\n        emit CapIncreased(amount);\n    }\n\n    function getIcoCap() public view returns (uint256) {\n        return icoCap;\n    }\n\n    function getIcoSold() public view returns (uint256) {\n        return soldIcoTotal;\n    }\n\n    function getCurrentStatus() public view returns (string memory) {\n        if (state == CrowdState.NotStarted) {\n            return \"NotStarted\";\n        } else if (state == CrowdState.PreICO) {\n            return \"Pre ICO\";\n        } else if (state == CrowdState.ICO) {\n            return \"ICO\";\n        } else {\n            return \"Finished\";\n        }\n    }\n\n    function getVestedAllowedPerc(address to) public virtual returns (uint256) {\n        uint256 date = endIcoDate;\n        uint256 perc = 0;\n\n        if (state != CrowdState.Finished) {\n            return 0;\n        }\n\n        do {\n            if (hasRole(BONUS_ICO_ROLE, to)) {\n                perc = perc.add(percBonusIco);\n                date = date.add(vestingDaysBonusIco);\n            } else if (hasRole(TEAM_ROLE, to)) {\n                perc = perc.add(percTeam);\n                date = date.add(vestingDaysTeam);\n            } else if (hasRole(INVESTOR_ROLE, to)) {\n                perc = perc.add(percInvestors);\n                date = date.add(vestingDaysInvestors);\n            } else {\n                perc = perc.add(vestingPerc);\n                date = date.add(vestingDays);\n            }\n        } while (date < block.timestamp && perc <= 100);\n\n        return perc;\n    }\n\n    function getVestedTotalBalance(address to)\n        public\n        view\n        virtual\n        returns (uint256)\n    {\n        uint256 consumed;\n\n        for (uint256 index = 10; index <= 100; index += 10) {\n            consumed = consumed.add(_vestedBalances[to].perc[index]);\n        }\n\n        uint256 total = _vestedBalances[to].initialBalance;\n\n        return total.sub(consumed);\n    }\n\n    function getVestedAllowedBalance(address to)\n        public\n        virtual\n        returns (uint256)\n    {\n        uint256 perc = getVestedAllowedPerc(to);\n\n        uint256 total = _vestedBalances[to].initialBalance.div(100).mul(perc);\n        uint256 consumed = _vestedBalances[to].perc[perc];\n\n        return total.sub(consumed);\n    }\n\n    function withdrawFromVested(uint256 amount) public virtual {\n        uint256 perc = getVestedAllowedPerc(_msgSender());\n        uint256 balance = _vestedBalances[_msgSender()]\n            .initialBalance\n            .div(100)\n            .mul(perc)\n            .sub(_vestedBalances[_msgSender()].perc[perc]);\n\n        require(\n            amount <= balance,\n            \"Veelancing: withdraw amount exceeds balance\"\n        );\n\n        _vestedBalances[_msgSender()].balance = _vestedBalances[_msgSender()]\n            .balance\n            .sub(amount);\n        _vestedBalances[_msgSender()].perc[perc] = _vestedBalances[_msgSender()]\n            .perc[perc]\n            .add(amount);\n        _mint(_msgSender(), amount);\n        emit WithdrawFromVested(_msgSender(), amount);\n    }\n\n    function depositToVested(address recipient, uint256 amount) public virtual {\n        _vestedBalances[recipient].initialBalance = _vestedBalances[recipient]\n            .initialBalance\n            .add(amount);\n        _vestedBalances[recipient].balance = _vestedBalances[recipient]\n            .balance\n            .add(amount);\n        emit DepositToVested(recipient, amount);\n    }\n\n    function getWalletStatus(address recipient)\n        public\n        view\n        returns (WalletStatus)\n    {\n        return _blockedWallets[recipient];\n    }\n\n    function setWalletStatus(address recipient, WalletStatus status) public {\n        require(\n            hasRole(ADMIN_ROLE, _msgSender()),\n            \"Veelancing: Only the admin can change the wallet status\"\n        );\n\n        _blockedWallets[recipient] = status;\n        emit WalletStatusChanged(recipient, status);\n    }\n\n    function deposit(address recipient, uint256 amount) public virtual {\n        uint256 total = amount;\n\n        if (state == CrowdState.PreICO) {\n            total = total.mul(percPreIco).div(100).add(total);\n\n            require(\n                soldIcoTotal.add(total) <= icoCap,\n                \"Veelancing: ICO Cap excedeed\"\n            );\n\n            if (getWalletStatus(recipient) == WalletStatus.Unblocked) {\n                setWalletStatus(recipient, WalletStatus.Blocked);\n            }\n\n            soldIcoTotal = soldIcoTotal.add(total);\n\n            depositToVested(recipient, total);\n        } else {\n            if (state == CrowdState.ICO) {\n                total = total.mul(percIco).div(100).add(total);\n\n                require(\n                    soldIcoTotal.add(total) <= icoCap,\n                    \"Veelancing: ICO Cap excedeed\"\n                );\n\n                if (getWalletStatus(recipient) == WalletStatus.Unblocked) {\n                    setWalletStatus(recipient, WalletStatus.Blocked);\n                }\n\n                soldIcoTotal = soldIcoTotal.add(total);\n            }\n\n            _mint(recipient, total);\n            emit Deposit(recipient, total);\n        }\n    }\n\n    function transfer(address recipient, uint256 amount)\n        public\n        virtual\n        override(ERC20)\n        returns (bool)\n    {\n        if (!hasRole(ADMIN_ROLE, _msgSender())) {\n            require(state == CrowdState.Finished, \"Veelancing: ICO season\");\n        }\n\n        require(\n            getWalletStatus(_msgSender()) == WalletStatus.Unblocked,\n            \"Veelancing: Wallet is blocked\"\n        );\n\n        _transfer(_msgSender(), recipient, amount);\n        return true;\n    }\n\n    function startPreIco() public virtual {\n        require(\n            hasRole(ADMIN_ROLE, _msgSender()),\n            \"Veelancing: Only the admin can start the Pre ICO\"\n        );\n        state = CrowdState.PreICO;\n    }\n\n    function startIco() public virtual {\n        require(\n            hasRole(ADMIN_ROLE, _msgSender()),\n            \"Veelancing: Only the admin can start the ICO\"\n        );\n        state = CrowdState.ICO;\n    }\n\n    function endIco() public virtual {\n        require(state == CrowdState.ICO, \"Veelancing: ICO already ended.\");\n        require(\n            hasRole(ADMIN_ROLE, _msgSender()),\n            \"Veelancing: Only the admin can end the ICO\"\n        );\n\n        uint256 leftTokens = icoCap.sub(soldIcoTotal);\n        state = CrowdState.Finished;\n        endIcoDate = block.timestamp;\n\n        if (leftTokens > 0) {\n            deposit(_msgSender(), leftTokens);\n        }\n    }\n\n    function createBonus(address recipient, uint256 amount) public virtual {\n        require(\n            hasRole(ADMIN_ROLE, _msgSender()),\n            \"Veelancing: Only the admin can create bonuses\"\n        );\n\n        _setupRole(BONUS_ICO_ROLE, recipient);\n        depositToVested(recipient, amount);\n        soldIcoTotal = soldIcoTotal.add(amount);\n    }\n\n    receive() external payable virtual {\n        uint256 weiAmount = msg.value;\n        uint256 tokens = weiAmount.mul(basePrice).div(1 ether);\n        deposit(_msgSender(), tokens);\n    }\n\n    function _mint(address account, uint256 amount) internal virtual override {\n        require(\n            totalSupply().add(amount) <= getCap(),\n            \"Veelancing: Cap exceeded\"\n        );\n        super._mint(account, amount);\n    }\n\n    function _beforeTokenTransfer(\n        address from,\n        address to,\n        uint256 amount\n    ) internal virtual override(ERC20) {\n        super._beforeTokenTransfer(from, to, amount);\n    }\n}\n",
  "sourcePath": "/Users/daniel/Projects/VeelancingCoin/contracts/Veelancing.sol",
  "compiler": {
    "name": "solc",
    "version": "0.8.11+commit.d7f03943.Emscripten.clang"
  },
  "schemaVersion": "3.4.4",
  "updatedAt": "2022-01-19T06:51:53.741Z",
  "devdoc": {
    "kind": "dev",
    "methods": {
      "allowance(address,address)": {
        "details": "See {IERC20-allowance}."
      },
      "approve(address,uint256)": {
        "details": "See {IERC20-approve}. Requirements: - `spender` cannot be the zero address."
      },
      "balanceOf(address)": {
        "details": "See {IERC20-balanceOf}."
      },
      "decimals()": {
        "details": "Returns the number of decimals used to get its user representation. For example, if `decimals` equals `2`, a balance of `505` tokens should be displayed to a user as `5,05` (`505 / 10 ** 2`). Tokens usually opt for a value of 18, imitating the relationship between Ether and Wei. This is the value {ERC20} uses, unless this function is overridden; NOTE: This information is only used for _display_ purposes: it in no way affects any of the arithmetic of the contract, including {IERC20-balanceOf} and {IERC20-transfer}."
      },
      "decreaseAllowance(address,uint256)": {
        "details": "Atomically decreases the allowance granted to `spender` by the caller. This is an alternative to {approve} that can be used as a mitigation for problems described in {IERC20-approve}. Emits an {Approval} event indicating the updated allowance. Requirements: - `spender` cannot be the zero address. - `spender` must have allowance for the caller of at least `subtractedValue`."
      },
      "getRoleAdmin(bytes32)": {
        "details": "Returns the admin role that controls `role`. See {grantRole} and {revokeRole}. To change a role's admin, use {_setRoleAdmin}."
      },
      "grantRole(bytes32,address)": {
        "details": "Grants `role` to `account`. If `account` had not been already granted `role`, emits a {RoleGranted} event. Requirements: - the caller must have ``role``'s admin role."
      },
      "hasRole(bytes32,address)": {
        "details": "Returns `true` if `account` has been granted `role`."
      },
      "increaseAllowance(address,uint256)": {
        "details": "Atomically increases the allowance granted to `spender` by the caller. This is an alternative to {approve} that can be used as a mitigation for problems described in {IERC20-approve}. Emits an {Approval} event indicating the updated allowance. Requirements: - `spender` cannot be the zero address."
      },
      "name()": {
        "details": "Returns the name of the token."
      },
      "renounceRole(bytes32,address)": {
        "details": "Revokes `role` from the calling account. Roles are often managed via {grantRole} and {revokeRole}: this function's purpose is to provide a mechanism for accounts to lose their privileges if they are compromised (such as when a trusted device is misplaced). If the calling account had been granted `role`, emits a {RoleRevoked} event. Requirements: - the caller must be `account`."
      },
      "revokeRole(bytes32,address)": {
        "details": "Revokes `role` from `account`. If `account` had been granted `role`, emits a {RoleRevoked} event. Requirements: - the caller must have ``role``'s admin role."
      },
      "supportsInterface(bytes4)": {
        "details": "See {IERC165-supportsInterface}."
      },
      "symbol()": {
        "details": "Returns the symbol of the token, usually a shorter version of the name."
      },
      "totalSupply()": {
        "details": "See {IERC20-totalSupply}."
      },
      "transfer(address,uint256)": {
        "details": "See {IERC20-transfer}. Requirements: - `recipient` cannot be the zero address. - the caller must have a balance of at least `amount`."
      },
      "transferFrom(address,address,uint256)": {
        "details": "See {IERC20-transferFrom}. Emits an {Approval} event indicating the updated allowance. This is not required by the EIP. See the note at the beginning of {ERC20}. Requirements: - `sender` and `recipient` cannot be the zero address. - `sender` must have a balance of at least `amount`. - the caller must have allowance for ``sender``'s tokens of at least `amount`."
      }
    },
    "version": 1
  },
  "userdoc": {
    "kind": "user",
    "methods": {},
    "version": 1
  }
}